:100000000C94F8070C943F080C943F080C943F089C
:100010000C943F080C943F080C943F080C943F0844
:100020000C943F080C943F080C9456280C942829F3
:100030000C942C190C943F080C943F080C943F0826
:100040000C943F080C943F080C943F080C943F0814
:100050000C943F080C94A0190C943F080C943F0892
:100060000C943F080C943F080C943F080C943F08F4
:100070000C943F080C943F080C943F080C943F08E4
:100080000C943F080C943F080C943F080C943F08D4
:100090000C943F080C943F080C943F080C943F08C4
:1000A0000C943F080C943F080C943F0850095209E7
:1000B0005D095409560958095A095C095F09610923
:1000C00063096E096509670969096B096D0970099A
:1000D000F010F0102911291155118111E812E812C0
:1000E0009311E81260126012471347135913591302
:1000F00050135913591359134713471355135913D1
:10010000591355139529B729AA2AB729AA2AFC29D0
:100110001F2AAA2A742A872A00F035001E001F0011
:1001200020002100220023002400250026002700B3
:100130002D002E0000002A002B0014001A000900D8
:1001400013000A000D000F0018001C0033002F00E0
:1001500030003100000029000400150016001700CF
:1001600007000B00110008000C0012003400000012
:1001700028000000C65C00001D001B0006001900DE
:1001800005000E0010003600370038000000C75C84
:100190000000E000E300E2000000000000002C008E
:1001A000000000000000E600E700055104510000D7
:1001B00035001E001F002000210022002300240023
:1001C0002500260027002D002E0000002A002B000D
:1001D00014001A00090013000A000D000F00180097
:1001E0001C0033002F003000310000002900040003
:1001F00015001600170007000B00110008000C0086
:1002000012003400000028000000C65C00001D0041
:100210001B000600190005000E0010003600370014
:1002200038000000C75C0000E000E200E3000000CE
:10023000000000002C00000000000000E700E600C5
:1002400005510451000029001E001F00200021005C
:100250002200230024002500260027002D002E0068
:1002600000002A002B0014001A00080015001700D7
:100270001C0018000C00120013002F003000310089
:100280000000390004001600070009000A000B00F6
:100290000D000E000F0033003400000028000000A5
:1002A000C65C00001D001B000600190005001100BF
:1002B00010003600370038000000C75C0000E00086
:1002C000E200E3000000000000002C00000000003D
:1002D0000000E700E60005510451000029001E005F
:1002E0001F002000210022002300240025002600FA
:1002F00027002D002E0000002A002B0014001A00F9
:100300000800150017001C0018000C001200130054
:100310002F003000310000003900040016000700F3
:1003200009000A000B000D000E000F00330034001E
:10033000000028000000C65C00001D001B00060035
:1003400019000500110010003600370038000000C9
:10035000C75C0000E000E300E200000000000000D5
:100360002C00000000000000E600E70005510451E9
:10037000000035003A003B003C003D003E003F00DD
:1003800040004100420043004400450001004C0091
:1003900039004B004A0052004D004E0001000100A0
:1003A0004600470048005200010049000000E000FC
:1003B0000100500051004F000100010001004A00FF
:1003C0004B0050004F000100280000000100010018
:1003D000AA00A900A80001000100010001004D00D1
:1003E0004E00510001000100010001000100010068
:1003F0000000000000002C000000000000000100D0
:10040000010006510100000035003A003B003C00AD
:100410003D003E003F0040004100420043004400D8
:10042000450001002A002B0001000100010001002D
:100430000100FB00FA00F900FC00010001000100CE
:1004400001000000E0000100FD00FE00FF000100CF
:10045000F200F100F000F3000100010001002800AB
:100460000000010001000100010001000100F60090
:10047000F500F400F700F80001000100E5000100BC
:10048000010001000100000000000000F400000075
:1004900000000000010001000100E4000000105015
:1004A0001150125013500100010001000100010021
:1004B00001000100010001000100010001001250D3
:1004C00013500100010001000100010001000100C2
:1004D0000100010001000100000001000100010015
:1004E0000100010001000100010001000100010004
:1004F00001000100010000000100010001000100F5
:100500001150010001000100105001000100010024
:1005100001000100010001000100010000000000D5
:1005200000000100000000000000010001000100C7
:10053000010000000A44454255473A20656E616259
:100540006C65642E0A000A002530313662003A20BC
:100550000025303258000A722F6320303132333494
:1005600035363738394142434445460A000A0025AA
:1005700030325820006B6579626F6172645F72651A
:10058000706F72743A20000A0025303258006B6593
:1005900079626F6172645F7365745F6C65643A2041
:1005A00000646F6E652E0A00626F6F746D6167691B
:1005B00063207363616E3A202E2E2E2000290A00DC
:1005C0002575002F002575005D280025640020009A
:1005D000256400200025640020002564007C00259F
:1005E000303258006D6F7573656B6579205B62748E
:1005F0006E7C782079207620685D287265702F6186
:10060000636C293A205B006D6B5F776865656C5F92
:1006100074696D655F746F5F6D6178203D2025643E
:100620000A006D6B5F776865656C5F6D61785F73FD
:1006300070656564203D2025640A006D6B5F7469F8
:100640006D655F746F5F6D6178203D2025640A00E1
:100650006D6B5F6D61785F7370656564203D20250B
:10066000640A006D6B5F696E74657276616C203D23
:100670002025640A006D6B5F64656C6179203D2004
:1006800025640A006D6B5F776865656C5F74696DE2
:10069000655F746F5F6D6178203D2025640A006D91
:1006A0006B5F776865656C5F6D61785F73706565BA
:1006B00064203D2025640A006D6B5F74696D655F81
:1006C000746F5F6D6178203D2025640A006D6B5F5B
:1006D0006D61785F7370656564203D2025640A0054
:1006E0006D6B5F696E74657276616C203D20256468
:1006F0000A006D6B5F64656C6179203D2025640A9A
:10070000000A00257500363A20776865656C5F74CD
:10071000696D655F746F5F6D61783A20000A00252E
:100720007500353A20776865656C5F6D61785F7339
:10073000706565643A20000A00257500343A20741B
:10074000696D655F746F5F6D61783A20000A0025FE
:100750007500333A206D61785F73706565643A2087
:10076000000A00257500323A20696E746572766160
:100770006C286D73293A20000A00257500313A2053
:1007800064656C6179282A31306D73293A20000A3A
:10079000092D2056616C756573202D0A004D3E00B1
:1007A0004D25643E20003F007365742064656661DA
:1007B000756C740A00433E2000776865726520649A
:1007C000656C74613A20637572736F723D25642C99
:1007D00020776865656C3D25640A536565206874FB
:1007E00074703A2F2F656E2E77696B697065646936
:1007F000612E6F72672F77696B692F4D6F75736507
:100800005F6B6579730A000A092D204D6F7573655A
:100810006B6579202D0A4553432F713A097175692B
:10082000740A313A0964656C6179282A31306D7334
:10083000290A323A09696E74657276616C286D73A3
:10084000290A333A096D61785F73706565640A340B
:100850003A0974696D655F746F5F6D61780A353A46
:1008600009776865656C5F6D61785F737065656455
:100870000A363A09776865656C5F74696D655F74FF
:100880006F5F6D61780A0A703A097072696E742040
:1008900076616C7565730A643A09736574206465E2
:1008A0006661756C74730A75703A092B310A646F4E
:1008B000776E3A092D310A706775703A092B31301D
:1008C0000A7067646F776E3A092D31300A0A7370C7
:1008D000656564203D2064656C7461202A206D612B
:1008E000785F7370656564202A2028726570656181
:1008F00074202F2074696D655F746F5F6D61782956
:100900000A003F004D3E2000433E20004C25640A73
:100910000074696D65725F72656164333228293ACB
:10092000202530346C580A006B6579626F617264FF
:100930005F69646C653A2025580A006B6579626FBF
:100940006172645F70726F746F636F6C3A202558C8
:100950000A00686F73745F6B6579626F6172645FC0
:100960006C65647328293A2025580A000A092D204D
:10097000537461747573202D0A004743433A203540
:100980002E342E30204156522D4C4942433A2032CB
:100990002E302E30204156525F415243483A20615A
:1009A0007672350A004F5054494F4E533A204C55F9
:1009B000464120424F4F544D41474943204D4F55EA
:1009C00053454B45592045585452414B45592043B6
:1009D0004F4E534F4C4520434F4D4D414E442034D4
:1009E0003039360A004255494C443A2022302E35DF
:1009F0002E34302D3138392D676138343464612D0F
:100A0000646972747922202831363A32393A3238A0
:100A1000204E6F762020352032303138290A00569A
:100A200049443A20307846454544284D6173736403
:100A3000726F7029205049443A2030783630363071
:100A4000285336302D5829205645523A20307830D8
:100A50003030310A00444553433A20712E6D2E6BDD
:100A60002E206B6579626F617264206669726D77A2
:100A700061726520666F72205336302D580A000A65
:100A8000092D2056657273696F6E202D0A000A09C0
:100A90002D20436F6E736F6C65202D0A4553432FD5
:100AA000713A09717569740A6D3A096D6F757365EC
:100AB0006B65790A000A092D204D61676963202D55
:100AC0000A443A094465627567204D65737361672E
:100AD0006520546F67676C650A583A094D617472F6
:100AE0006978204465627567204D6F646520546F96
:100AF00067676C65202D2053686F77206B65797070
:100B000072657373657320696E206D6174726978A4
:100B100020677269640A4B3A094B6579626F6172AA
:100B20006420446562756720546F67676C65202D8B
:100B30002053686F77206B657970726573732072CC
:100B400065706F72740A4D3A094465627567204D8D
:100B50006F75736520546F67676C650A563A09565E
:100B6000657273696F6E0A533A09537461747573D1
:100B70000A433A09416374697661746520436F6E74
:100B8000736F6C65204D6F64650A46312D463130B8
:100B90003A0953776974636820746F204C617965F2
:100BA0007220302D392028463130203D204C30290C
:100BB0000A302D393A0953776974636820746F20BD
:100BC0004C6179657220302D390A4553433A0953F7
:100BD000776974636820746F204C61796572203086
:100BE0002028616C7465726E617465206B65792074
:100BF00031290A47524156453A0953776974636867
:100C000020746F204C6179657220302028616C74EB
:100C100065726E617465206B65792032290A5041D6
:100C20005553453A094A756D7020746F20426F6FB5
:100C3000746C6F6164657220285265736574290A4B
:100C4000453A095072696E7420454550524F4D2007
:100C500053657474696E67730A000A002575002E67
:100C60006E6B726F3A20000A002575002E73776153
:100C7000705F6261636B736C6173685F6261636B09
:100C800073706163653A20000A002575002E737742
:100C900061705F67726176655F6573633A20000A11
:100CA000002575002E6E6F5F6775693A20000A0097
:100CB0002575002E737761705F72616C745F726767
:100CC00075693A20000A002575002E737761705F00
:100CD0006C616C745F6C6775693A20000A00257559
:100CE000002E636170736C6F636B5F746F5F636F13
:100CF0006E74726F6C3A20000A002575002E7377AF
:100D000061705F636F6E74726F6C5F636170736C40
:100D10006F636B3A20000A0025303258006B65790A
:100D20006D61705F636F6E6669672E7261773A20DE
:100D3000000A002575002E6D6F7573653A20000A54
:100D4000002575002E6B6579626F6172643A200030
:100D50000A002575002E6D61747269783A20000AC8
:100D6000002575002E656E61626C653A20000A00F0
:100D7000253032580064656275675F636F6E66691F
:100D8000672E7261773A20000A0025750064656657
:100D900061756C745F6C617965723A20003F000A7E
:100DA0006D6F7573653A206F66660A000A6D6F7520
:100DB00073653A206F6E0A000A6B6579626F617223
:100DC000643A206F66660A000A6B6579626F617229
:100DD000643A206F6E0A000A6D61747269783A2075
:100DE0006F66660A000A6D61747269783A206F6EE8
:100DF0000A000A64656275673A206F66660A000A2F
:100E000064656275673A206F6E0A000A0A4A756D5A
:100E100070696E6720746F20626F6F746C6F6164AD
:100E200065722E2E2E2000433E20006565636F6E96
:100E30006669673A0A005B735D004B6579626F61B2
:100E400072642073746172742E0A005B575D005BDC
:100E5000535D005B525D005B445D005B435D000CD5
:100E6000035300360030002D005800000012034DDF
:100E700000610073007300640072006F0070000076
:100E8000000403090409027400040100A0FA090423
:100E900000000103010100092111010001224000AD
:100EA0000705810308000A0904010001030102008B
:100EB000092111010001224D000705820308000AE3
:100EC00009040200010300000009211101000122B0
:100ED00036000705830308000A0904030002030023
:100EE00000000921110100012222000705840320CE
:100EF0000001070504032000011201100100000099
:100F000008EDFE60600100010200010631FF097476
:100F1000A1010975150026FF0095207508810209B9
:100F200076150026FF00952075089102C00501097D
:100F300080A10185021601002603001A81002A8380
:100F400000751095018100C0050C0901A101850300
:100F5000160100269C021A01002A9C0275109501B8
:100F60008100C005010902A1010901A100050919BB
:100F70000129051500250195057501810295017569
:100F80000381010501093009311581257F9502751D
:100F900008810609381581257F95017508810605A8
:100FA0000C0A38021581257F950175088106C0C09D
:100FB00005010906A101050719E029E7150025012A
:100FC00095087501810295017508810105081901CF
:100FD0002905950575019102950175039101050794
:100FE000190029FF150026FF00950675088100C02D
:100FF00011241FBECFEFDAE0DEBFCDBF04B603FE83
:1010000027C08091FD019091FE01A091FF01B09158
:1010100000028730904BA740B04BD1F41092FD01F5
:101020001092FE011092FF011092000214BE84B7CC
:10103000877F84BF0FB6F894A8958091600088617F
:1010400080936000109260000FBEE0E0F8E3099525
:1010500011E0A0E0B1E0E0E0F9E502C005900D92FA
:10106000A634B107D9F721E0A6E4B1E001C01D9292
:10107000AD3FB207E1F70E947F250C947E2C0C94C3
:101080000000FF93EF93E0914601F0914701309704
:1010900009F00995EF91FF910895FC018591803049
:1010A00011F0EFDFFBCF0895FF27E0E230E247FFCA
:1010B0000CC0419597FF09C0EDE260957095809551
:1010C0009095611D711D811D911D27FF02C0219505
:1010D00030E350E2AA27660F771F881F991FAA1FC7
:1010E000A41710F0A41B63955A95A9F7AA3008F02D
:1010F000A95FA05DAF93F395611571058105910519
:1011000041F7ED3211F4EF93F395F21718F43F9392
:10111000F395FBCF8F91B5DFFA95E1F70895E9914B
:10112000F9918591803021F0853219F0AADFF9CF4D
:10113000089520E0E89455915532C1F3503311F4ED
:10114000689455915A3348F4505390F3220F022E6D
:10115000220F220F200D250FF4CF0EF42195899137
:101160009991533619F3533729F1533559F1BC018D
:1011700088279927E8945C3621F48991999168949D
:101180005591543639F446EF7EF077FF0DC08FEF5E
:101190009FEF0AC055374AE039F0583540E121F059
:1011A000523642E009F00895FF93EF937DDFEF910F
:1011B000FF91B7CFFF93EF93FC0181918030B9F39A
:1011C00060DFFBCFFF93EF9368DFF1CFDF93CF9327
:1011D000CDB7DEB72596A3DFCF91DF9108950C94AC
:1011E000990C0C94980C0C94F9080C941F0A81E04B
:1011F000089581E008950E9433132FEF84E39CE06B
:10120000215080409040E1F700C000000C94C619C6
:101210000F931F93CF93DF938C01FC01C081D18189
:10122000CE010E94AD17BE010E94220AEC01B80156
:101230000E94F308882309F4F8C0B801CE010E9487
:10124000490C882309F4F1C0C531FCE5DF0708F03B
:1012500081C0C2308CE5D80708F452C0F801828101
:10126000882309F459C00E94BC18811102C00E9451
:10127000A2180E94D91890E09093EF018093EE019C
:10128000FE01E350FC45E231F10530F4EA5AFF4F2C
:101290008091EE010C942E2C8091EE01816027C08C
:1012A000826025C0846023C0806121C080621FC02D
:1012B00080641DC080681BC08460886018C08E7FF9
:1012C00016C08D7F14C08B7F12C08F7E10C08F7DA3
:1012D0000EC08F7B0CC08F770AC08B7F877F07C0C3
:1012E00087FB222720F991E0922790FB87F98093D2
:1012F000EE018091EE010E94DD180E94331395C02B
:10130000C115ECE5DE0779F0C130DC45A1F081E0E4
:1013100080934C0180934D01C801DF91CF911F91C3
:101320000F910C94F708F8018281882309F47DC09D
:101330000E94FB087AC0F8018281882309F475C0F5
:1013400084E395E00E944D088091CF0181608093F5
:10135000CF016BC0C73C8CE5D80739F5F801828115
:10136000882361F010924D010E945E1990934B0109
:1013700080934A0180E20E94C11057C080914D01C4
:1013800081110FC080914A0190914B010E94761902
:10139000883C910530F487E20E949F0F87E20E940B
:1013A000721080E20E94C81040C0C83CECE5DE0725
:1013B00038F5C63CDC4509F0AACFF80182818823C4
:1013C00051F010924C010E945E1990934901809354
:1013D000480182E0D0CF80914C0181110FC08091F3
:1013E0004801909149010E947619883C910530F49A
:1013F00086E20E949F0F86E20E94721082E0D2CFA6
:10140000CA3C8CE5D80731F4F8018281882369F061
:1014100080E009C0CB3CDC4509F079CFF80182813E
:10142000882319F082E00E941D2680E0DF91CF9191
:101430001F910F9108950C94EF080C94F1080895F2
:101440000C94F5082BE4829FC0011124FC012FE0CD
:10145000729FE00DF11D1124E60FF11DEE0FFF1F2D
:10146000E65EFE4F859194910895880F991FFC01C7
:10147000E85EFE4F8591949108950E94220A0E9491
:10148000CC0B811520E49207B0F5811540E3940759
:1014900008F0DBC0803E9105D8F4803C910508F04F
:1014A00069C0883A910578F4853A910508F065C0DD
:1014B0008130910509F46FC108F426C1843091058B
:1014C00008F069C121C18D3B910508F461C01CC1C0
:1014D0008F3F910509F048F4803F910508F0AFC0B7
:1014E000883E910508F457C10FC1811520E292078B
:1014F00008F0A7C00895811544E59407D8F4811534
:1015000023E5920708F0DEC0811541E5940740F419
:10151000811520E5920708F0A2C09F70906A089597
:10152000811542E5940708F0B7C0982F8827816F8E
:10153000906A0895811526E5920750F4811545E5D6
:10154000940708F0D5C0982F8827846F906A089573
:10155000811528E5920708F4D7C0811549E594075D
:1015600008F4CBC09C0130562115304208F0CCC0A5
:101570009F71C8C0805C910965C0853A910509F4E6
:10158000C6C0863A910509F0C5C082E890E4089586
:10159000883A910509F4C1C0893A910509F4C0C09F
:1015A0008A3A910509F4BFC08B3A910509F4BEC08F
:1015B0008C3A910509F4BDC08B3B910509F4BCC080
:1015C0008C3B910509F4BBC08D3A910509F4BAC072
:1015D000803B910509F4B9C08E3A910509F4B8C071
:1015E0008F3A910509F4B7C0813B910509F4B6C063
:1015F000823B910509F4B5C0833B910509F4B4C061
:10160000843B910509F4B3C0853B910509F4B2C050
:10161000863B910509F4B1C0873B910509F4B0C040
:10162000883B910509F4AFC0893B910509F4AEC030
:101630008A3B910509F4ADC080E094E4089590657B
:1016400008959F700E94350A08959C01332793FFE7
:1016500003C0C901986C0895C901906C08959C015C
:1016600064E0369527956A95E1F7922F9370482F9D
:10167000437021E030E002C0220F331F4A95E2F7A9
:101680003C68392B8F708695869540E2849FC00117
:101690001124822B932B08959C012370332741E062
:1016A00050E002C0440F551F2A95E2F7282F2695D7
:1016B000269580E2289F90011124CA01822B932B4A
:1016C0009C6808959C012370332741E050E002C0DC
:1016D000440F551F2A95E2F7282F2695269580E27C
:1016E000289F90011124CA01822B932B9A68089598
:1016F0008F719927982F882705C0982F8827806F8A
:10170000906A08959062089580E090E0089581E8DD
:1017100090E4089583E890E4089582EE94E40895B7
:1017200089EE94E408958AEE94E4089585EB94E4B8
:10173000089586EB94E4089583EB94E4089584EB94
:1017400094E4089587EB94E408958CEC94E4089570
:101750008DEC94E4089583E895E408958AE895E48F
:10176000089582E995E4089584E995E4089581E275
:1017700096E4089583E296E4089584E296E4089559
:1017800085E296E4089586E296E4089587E296E479
:1017900008958AE296E408958238910549F1B0F4FB
:1017A0008133910509F459C048F48932910509F44F
:1017B0004FC08A32910509F455C0089585339105CB
:1017C00009F441C08933910599F00895833E91054C
:1017D00031F138F4803E910591F0823E9105A9F0F7
:1017E0000895863E910501F1873E910539F10895EE
:1017F0002091EE0120FD3BC021FD39C0089580916C
:10180000EE0180FF34C089E341C08091EE0182FF88
:1018100030C08091EE0184FD2EC083EE37C08091F0
:10182000EE0182FD26C0F5CF8091EE0183FF25C039
:101830008091EE0184FD1FC087EE28C08091EE01EB
:1018400083FD1BC0F5CF8091EE0185FD18C019C046
:101850008091EE0185FD15C012C08091EE0186FDDC
:1018600012C013C08091EE0186FD0FC00CC080EE47
:101870000DC082EE0BC080E009C086EE07C089E291
:1018800005C085E303C08AE201C081E390E00895CA
:1018900008950F931F93CF93FB012281211102C062
:1018A000C1E041C08C01C0915B01C11125C08531EF
:1018B0009C45B1F70E94480C81E080935B010E9437
:1018C0005E1990935A018093590110924E01109223
:1018D000500110924F01109252011092510110923A
:1018E000540110925301109256011092550110921A
:1018F00058011092570117C08091590190915A01D7
:101900000E947619883C910558F690914E01E92F76
:10191000F0E0EE0FFF1FE15BFE4F118300839F5F3E
:1019200090934E01C0E08C2FCF911F910F9108959D
:1019300008950C94980CCF93DF9385B7806885BF8A
:1019400085B7806885BFA2E2B1E047E251E061E07F
:1019500070E08D91E82FE295EF70F0E021A18F709B
:10196000EB0102C0CC0FDD1F8A95E2F7CE019C2F60
:101970009095922391A392A1892B82A34A175B078A
:1019800041F7A3E1B1E042E251E061E070E08D9106
:10199000E82FE295EF70F0E021A18F70EB0102C01B
:1019A000CC0FDD1F8A95E2F7CE019C2F90959223F4
:1019B00091A392A1892B82A34A175B0741F7E6E620
:1019C000F1E0ACE5B1E080E791E0119211921D9257
:1019D0001D928E179F07C9F7DF91CF910C941B0AB8
:1019E0002F923F924F925F926F927F928F929F922F
:1019F000AF92BF92CF92DF92EF92FF920F931F931D
:101A0000CF93DF9322E2C22E21E0D22E0CE511E02B
:101A1000E801EE24E394F12C662463945E0188804F
:101A2000998019821882D6018D916D01E82FE29577
:101A3000EF70F0E021A18F70A70102C0440F551F85
:101A40008A95E2F7CA01242B21A322A1742E709457
:101A5000272122A350EA5A95F1F793E1292E91E02C
:101A6000392E20E030E0D1015D901D01452D4295D9
:101A70004F7050E0DA0190964C9068817981552D35
:101A80005F70D70102C0AA0FBB1F5A95E2F7AD01E4
:101A9000442141F4A701022E02C0440F551F0A94AD
:101AA000E2F702C040E050E0462B572B59834883B1
:101AB0002F5F3F4F2F303105B1F691A1792271A2EE
:101AC00092A1892B82A32296F501808191818816AB
:101AD000990641F0609270010E945E199093720124
:101AE00080937101F1E0C636DF0709F097CF80914E
:101AF00070018823B1F080917101909172010E9470
:101B00007619069770F0E6E6F1E0D8018D919D9187
:101B10008D0181939193B1E006361B07B1F71092C6
:101B200070010E941D0A81E0DF91CF911F910F91FA
:101B3000FF90EF90DF90CF90BF90AF909F908F90ED
:101B40007F906F905F904F903F902F900895E82F77
:101B5000F0E0EE0FFF1FEA59FE4F8081918108955A
:101B6000CF92DF92EF92FF920F931F93CF93DF9369
:101B700086E595E00E944D0886E6E82E81E0F82E85
:101B8000C0E0D0E091E5C92E95E0D92E08E415E03B
:101B9000DF93CF93DF92CF920E94E6088EE495E028
:101BA0000E944D08F701819191917F010E948F1849
:101BB0009F938F931F930F930E94E60886E495E00E
:101BC0000E944D0821968DB79EB708960FB6F894DF
:101BD0009EBF0FBE8DBFC530D105D1F6DF91CF912D
:101BE0001F910F91FF90EF90DF90CF900895909309
:101BF0007801809377010895E0917701F091780161
:101C0000309721F00190F081E02D099480E0089553
:101C1000EF92FF920F931F93CF93DF93E0917701A1
:101C2000F09178013097B1F18C010280F381E02DC1
:101C300009958091CF0182FF2DC080FF04C085E708
:101C400095E00E944D08E80118E08FE6E82E85E057
:101C5000F82E8091CF0180FF0BC088811F928F9357
:101C6000FF92EF920E94E6080F900F900F900F9056
:101C7000115021961111EDCF8091CF0180FF0AC044
:101C80008DE695E0DF91CF911F910F91FF90EF903E
:101C90000C944D08DF91CF911F910F91FF90EF9021
:101CA0000895E0917701F0917801309721F0048058
:101CB000F581E02D09940895209175013091760108
:101CC0002817390771F09093760180937501E091A0
:101CD0007701F0917801309721F00680F781E02DAF
:101CE00009940895209173013091740128173907E0
:101CF00071F09093740180937301E0917701F091FA
:101D00007801309721F00084F185E02D0994089541
:101D100008950C94880E0E9455190E949B0C0C94F7
:101D2000341ACF93C82F8091CF0182FF1EC080FF4D
:101D300004C08EE895E00E944D088091CF0180FF9D
:101D40000CC01F92CF9389E895E09F938F930E94D8
:101D5000E6080F900F900F900F908091CF0180FFB9
:101D600004C087E895E00E944D088C2FCF910C9419
:101D7000200A5F926F927F928F929F92AF92BF9252
:101D8000CF92DF92EF92FF920F931F93CF93DF9347
:101D9000CDB7DEB72A970FB6F894DEBF0FBECDBF22
:101DA0000E94F00C9AE7692E91E0792E00E010E095
:101DB00088248394912C502E802F0E94A70D6C01B3
:101DC000F301A190B1903F01A826B926A114B10456
:101DD000B1F40F5F1F4F0530110569F78FEF89834D
:101DE0008A831B820E945E198160782F9D838C8379
:101DF00049815A816B818D810E94710F39C0809118
:101E0000CF0181FD0E94B00D80E090E07401082EAA
:101E100002C0EE0CFF1C0A94E2F795012E213F212F
:101E2000232B09F18E835F82CE20DF2081E0CD2835
:101E300009F480E088870E945E198160782F9A8774
:101E400089874E815F8168858A850E94710F000FA6
:101E5000111FF801E658FE4F80819181E826F9268E
:101E6000F182E08205C001968F30910579F6B1CFFD
:101E70000E94611D0E94FC0D909179018917D9F093
:101E80000E94FC0D809379012A960FB6F894DEBF6C
:101E90000FBECDBFDF91CF911F910F91FF90EF90BB
:101EA000DF90CF90BF90AF909F908F907F906F907A
:101EB0005F900C94910E2A960FB6F894DEBF0FBE79
:101EC000CDBFDF91CF911F910F91FF90EF90DF90E9
:101ED000CF90BF90AF909F908F907F906F905F90CA
:101EE0000895CF93DF93CDB7DEB72B970FB6F89455
:101EF000DEBF0FBECDBF4F83588769877A878B8738
:101F0000DE01119686E0FD0111928A95E9F785E0E0
:101F1000FE01379601900D928A95E1F749815A8129
:101F20006B817C818D819E810E94F3152B960FB66B
:101F3000F894DEBF0FBECDBFDF91CF910895CF9350
:101F4000882309F4CDC0C82F823859F40E94FC0DB3
:101F500081FDC6C089E30E941A180E94FB1789E31D
:101F60000CC0833879F40E94FC0D80FDB9C083E574
:101F70000E941A180E94FB1783E50E943718CF9120
:101F80000C94FB17843859F40E94FC0D82FDA8C004
:101F900087E40E941A180E94FB1787E4EECF8CEFAB
:101FA0008C0F813A48F48C2F0E94CD21811198C06A
:101FB0008C2F0E941A18E3CF80E28C0F883048F4EF
:101FC000C77081E001C0880FCA95EAF70E945518D2
:101FD000D6CF8BE58C0F833078F4C53A29F0C63A1A
:101FE00031F083E890E005C081E890E002C082E82B
:101FF00090E0CF910C945C0E88E58C0F853108F051
:102000006FC0C83A61F1C93A69F1CA3A71F1CB3A85
:1020100079F1CC3A81F1CB3B89F1CC3B91F1CD3ACE
:1020200099F1C03BA1F1CE3AA9F1CF3AB1F1C13B50
:10203000B9F1C23BC1F1C33BC9F1C43BD1F1C53BCE
:10204000D9F1C63BE1F1C73BE9F1C83BF1F1C93B2E
:10205000F9F1CA3B09F43FC080E090E03EC082EE57
:1020600090E03BC089EE90E038C08AEE90E035C049
:1020700085EB90E032C086EB90E02FC083EB90E0E0
:102080002CC084EB90E029C087EB90E026C08CEC5C
:1020900090E023C08DEC90E020C083E891E01DC06B
:1020A0008AE891E01AC082E991E017C084E991E0E2
:1020B00014C081E292E011C083E292E00EC084E29B
:1020C00092E00BC085E292E008C086E292E005C093
:1020D00087E292E002C08AE292E0CF910C94720E05
:1020E000CF910895882309F44BC0823859F40E9497
:1020F000FC0D81FF45C089E30E941A180E94FB175E
:1021000089E30CC0833871F40E94FC0D80FF38C055
:1021100083E50E941A180E94FB1783E50E94371876
:102120000C94FB17843859F40E94FC0D82FF28C0E0
:1021300087E40E941A180E94FB1787E4EFCF9CEFF8
:10214000980F913A58F390E2980F983050F48770B6
:1021500091E001C0990F8A95EAF7892F0E945B18D8
:10216000DFCF9BE5980F933020F480E090E00C9453
:102170005C0E885A853120F480E090E00C94720E59
:102180000895882321F00E9455180C94FB17089598
:10219000882321F00E945B180C94FB170895CF92BE
:1021A000DF92EF92FF920F931F93CF93DF937C0107
:1021B000D62FC72FFC01058102950F7012811111D6
:1021C0000E947218EC2FE295EF708E2F90E08C3009
:1021D000910508F0FDC1FC01E859FF4F0C942E2C2D
:1021E0008C2F807FCF70882311F0C295C07F112380
:1021F00099F0CC2309F4D4C180E28D0F883010F01F
:10220000D11104C08C2F0E94551803C08C2F0E943E
:1022100065180E94FB17C4C18D2F0E947210CC2339
:1022200009F4D6C180E28D0F883010F0D11104C0BE
:102230008C2F0E945B1803C08C2F0E946B18DF91BB
:10224000CF911F910F91FF90EF90DF90CF900C9462
:10225000FB179C2F907F8C2F8F70903211F08295FE
:10226000807FD13051F4112321F0063008F0B0C145
:102270000EC0053008F0ACC13CC1112391F0002321
:1022800031F0F701958190FF8BC19F709583DF91AD
:10229000CF911F910F91FF90EF90DF90CF900C9412
:1022A000C110002309F425C188C18C2F869586951D
:1022B000837019F0813099F08BC1112321F08D2F9B
:1022C0009C2F937002C080E090E0DF91CF911F912E
:1022D0000F91FF90EF90DF90CF900C945C0E112344
:1022E00021F08D2F9C2F937002C080E090E0DF9151
:1022F000CF911F910F91FF90EF90DF90CF900C94B2
:10230000720E8D2F112319F00E94E71B02C00E944C
:102310004F1CDF91CF911F910F91FF90EF90DF90B5
:10232000CF900C94D41C8C2F837009F061C01111D4
:102330004FC12D2F229526952770220F220F6D2F2A
:102340006F70862F90E0A0E0B0E06C017D01022E5E
:1023500004C0CC0CDD1CEE1CFF1C0A94D2F7D4FF89
:1023600012C08FE090E0A0E0B0E004C0880F991F99
:10237000AA1FBB1F2A95D2F7BC01CD0160957095AD
:102380008095909503C060E070E0CB01C695C6953E
:10239000C370C23089F0F0F46C297D298E299F2901
:1023A000C130E1F0DF91CF911F910F91FF90EF903D
:1023B000DF90CF900C94C5166C297D298E299F291A
:1023C000DF91CF911F910F91FF90EF90DF90CF9011
:1023D0000C94D7160E94C516C701B601DF91CF91A4
:1023E0001F910F91FF90EF90DF90CF900C94B31658
:1023F000112319F08C2F817001C08695882309F470
:10240000E7C02D2F229526952770220F220F6D2FC2
:102410006F70862F90E0A0E0B0E06C017D01022E8D
:1024200004C0CC0CDD1CEE1CFF1C0A94D2F7D4FFB8
:1024300012C08FE090E0A0E0B0E004C0880F991FC8
:10244000AA1FBB1F2A95D2F7BC01CD0160957095DC
:102450008095909503C060E070E0CB01C695C6956D
:10246000C370C23089F0F0F46C297D298E299F2930
:10247000C130E1F0DF91CF911F910F91FF90EF906C
:10248000DF90CF900C9488176C297D298E299F2985
:10249000DF91CF911F910F91FF90EF90DF90CF9040
:1024A0000C949A170E948817C701B601DF91CF914B
:1024B0001F910F91FF90EF90DF90CF900C947617C3
:1024C000D03F09F118F4D03E40F466C0D23FF1F19C
:1024D00078F1D33F09F448C05FC0DF708C2F8F7153
:1024E000112321F00E940F178D2FD1CE0E9430179B
:1024F0008D2FDF91CF911F910F91FF90EF90DF9083
:10250000CF900C94C810112379F0053008F060C00A
:102510008C2F8F71DF91CF911F910F91FF90EF90D2
:10252000DF90CF900C945517063008F051C0F0CFD3
:10253000112371F08C2F8F71DF91CF911F910F912B
:10254000FF90EF90DF90CF900C940F17112391F331
:102550008C2F8F71DF91CF911F910F91FF90EF9092
:10256000DF90CF900C943017112361F08C2F8F7176
:10257000DF91CF911F910F91FF90EF90DF90CF905F
:102580000C94FA16DF91CF911F910F91FF90EF906D
:10259000DF90CF900C94F516112369F0002351F2CF
:1025A0008D2FDF91CF911F910F91FF90EF90DF90D2
:1025B000CF900C949F0F002359F28D2FDF91CF9174
:1025C0001F910F91FF90EF90DF90CF900C947210BD
:1025D000DF91CF911F910F91FF90EF90DF90CF90FF
:1025E00008950F931F93CF93DF93EC019881898116
:1025F0002B813C81232B31F08F3F31F481E09F3FD1
:1026000019F403C081E001C080E080FD13C0CE0159
:102610000E940809882371F0688179818A810E946B
:10262000F7178C010E94AC170E94A116B801CE01C9
:102630000E94CF10DF91CF911F910F9108950E94BA
:1026400072180E9475180E9447180E94FB170E947A
:10265000061E0E94D41C80E090E00E945C0E80E088
:1026600090E00C94720E0E9462180C941F130E944A
:10267000EC17E92FE295EF704E2F50E0FA013297F8
:10268000EE30F105B0F4EC58FF4F0C942E2C803F47
:1026900091F018F4803E68F40EC0843F51F40BC0F2
:1026A000803E48F0813F29F406C093FB882780F9DB
:1026B000089580E0089581E00895CF93DF9300D0DE
:1026C00000D01F92CDB7DEB70F900F900F900F90F4
:1026D0000F90DF91CF910895CF93DF9300D000D07A
:1026E00000D0CDB7DEB726960FB6F894DEBF0FBE8A
:1026F000CDBFDF91CF9108951F93CF93DF93C0910A
:10270000840116E080918501C81799F0D0E01C9FE4
:10271000F0011D9FF00D1124EA57FE4F40815181B9
:1027200062817381848195810E946C132196C770A8
:10273000E9CFDF91CF911F9108954091B60150915B
:10274000B7016091B8017091B9018091BA0190917F
:10275000BB010C946C13CF938091BB0182958F7059
:1027600009F05FC08091B801882309F45AC08091B4
:102770008401B09185017091B601A091B70140919B
:10278000B9015091BA0191E07F3F09F090E0692FC3
:10279000C6E08B1709F445C04115510521F0AF3F44
:1027A00021F020E003C021E001C0262F90E020FDB1
:1027B00035C0C89FF001C99FF00D1124EA57FE4FA4
:1027C00021812A132BC02081271328C022812111A7
:1027D00025C0238134812417350710F42150310995
:1027E000241B350B283C3105C8F42091BB012F7008
:1027F00020612093BB0126E0289FF001299FF00D66
:102800001124E557FE4F80818F708061808386EBB5
:1028100091E00E94F112CF910C947C130196877085
:10282000B8CFCF910895AF92BF92CF92DF92EF923F
:10283000FF920F931F93CF93DF93CDB7DEB76197CE
:102840000FB6F894DEBF0FBECDBF8C0185E0F80156
:10285000DE011D9601900D928A95E1F7D8014C9109
:1028600011965C9111971296EC903091B60160919F
:10287000B7018091B9019091BA01009731F06F3F93
:1028800031F421E03F3F19F403C021E001C020E012
:10289000B22FB170BB2E20FD64C1F801C380D4807B
:1028A000A090B801AA2009F4C3C02091BB01C816AA
:1028B000D90628F0D601A81BB90BCD0104C080951C
:1028C00090958C0D9D1DFF24F394883C910580F01C
:1028D000F12C207F09F09CC07C2DD98AC88A6E2DEE
:1028E00089890E945D1386EB91E00E94F112B4C0C9
:1028F000822F807F09F054C0561314C0431312C0B6
:10290000FE2CE1100FC02F7020612093BB010E94AC
:102910009D1386EB91E00E94F1128091BB01F801BA
:1029200085834FC1CD2831F05F3F31F481E04F3FC7
:1029300019F403C081E001C080E080FD03C081E0A4
:102940008E2502C080E090E0F82FF170FF2E80FF0E
:102950001CC0809184012091850136E0821709F422
:102960000DC190E0389FF001399FF00D1124EA5716
:10297000FE4F6181561306C06081461303C0628119
:10298000E61203C001968770E9CFFE2CEE2009F411
:1029900018C18091BB0181608093BB01F12C11C1F2
:1029A000561309C0431307C0E11005C08091BB0155
:1029B000F8018583B0C04D875E878D859E850E9416
:1029C0003713882379F1EE2069F12091BB01822F22
:1029D00082958F7090E0029774F08091B60190918B
:1029E000B70198878F831986DB86CA862C87CE012C
:1029F00007960E94F11286E0F801A6EBB1E0019083
:102A00000D928A95E1F70E94AB130E949D130DC0B1
:102A1000561761F14D875E878D859E850E9437131D
:102A2000811138C0C8010E94F112FF24F394C9C07B
:102A3000C816D90608F446C0F601E81BF90BCF0109
:102A4000883C910508F443C0F12C7C2DD98AC88AB2
:102A50006E2D89890E945D13E6EBF1E086E0DF01CF
:102A60001D928A95E9F70E949D13ABC04313D2CF04
:102A7000E110D0CF8091BB01F8018583C8010E948D
:102A8000F11286E0E6EBF1E0DF011D928A95E9F7AD
:102A9000FA2C97C0EE2031F22091BB01822F829553
:102AA0008F7090E002970CF4A6CF8091B6019091C0
:102AB000B7019A8389831B82DD82CC822E83CE016B
:102AC000019697CF809590958C0D9D1DB9CFFE2CCA
:102AD000EE2009F4A7CF561333C0431331C0209121
:102AE000BB0120FD24C0822F82958F70482F50E0BB
:102AF00041155105E1F0D80115962C9315974F30EB
:102B0000510549F08F5F982F9295907F822F8F709B
:102B1000892B15968C93C8010E94F11286E0F8016A
:102B2000A6EBB1E001900D928A95E1F79CCF86E08B
:102B3000F801A6EBB1E001900D928A95E1F741C052
:102B40004D875E878D859E850E943713811153CFF7
:102B50008091BB0181608093BB01C8010E94F1128A
:102B600030C0EE2009F45ECF4D875E878D859E854F
:102B70000E943713882309F455CF3DCF4D875E87D8
:102B80008D859E850E94EC17292F22952F7022306B
:102B900028F49F7039F0811105C00BC0243028F44F
:102BA0009F7049F4805E883020F0C8010E94F112C5
:102BB000BF2CFB2C06C0D80115969C91907F91F7F5
:102BC000F8CF8F2D61960FB6F894DEBF0FBECDBF44
:102BD000DF91CF911F910F91FF90EF90DF90CF90F9
:102BE000BF90AF9008951F93CF93DF93CDB7DEB71B
:102BF0002C970FB6F894DEBF0FBECDBF4F8358871A
:102C000069877A878B879C87CE0107960E94131469
:102C10008823D1F09F8188852A853B85232B31F03D
:102C20008F3F31F481E09F3F19F403C081E001C080
:102C300080E080FD47C04F81588569857A858B8506
:102C40009C850E946C133EC086E0FE013796DE0133
:102C5000119601900D928A95E1F7FF81E8856A85CA
:102C60007B856115710531F0EF3F31F481E0FF3F65
:102C700019F403C081E001C080E080FD23C02091F1
:102C8000850130E0C9010196877099274091840140
:102C900050E084179507F1F1F983EA837D836C8313
:102CA00096E0929FD001939FB00D1124AA57BE4F7A
:102CB000FE01319601900D929A95E1F7809385017E
:102CC0000E947C1316E08091840190918501891700
:102CD00071F1189FC00111248A579E4F0E9413144E
:102CE000882329F1E09184011E9FF0011124EA5705
:102CF000FE4F4081518162817381848195810E9460
:102D00006C138091840190E00196877099278093DD
:102D10008401D9CF0E94331310928501109284014F
:102D2000E6EBF1E086E0DF011D928A95E9F72C964B
:102D30000FB6F894DEBF0FBECDBFDF91CF911F91CC
:102D40000895089508950C94A2160E94A316609306
:102D5000C0017093C1018093C2019093C3010C9490
:102D60001F130C94A5160F931F930091C00110918F
:102D7000C1012091C2013091C301602B712B822BC4
:102D8000932B1F910F910C94A5160F931F930091F5
:102D9000C0011091C1012091C2013091C301602393
:102DA0007123822393231F910F910C94A5160F93E7
:102DB0001F930091C0011091C1012091C201309177
:102DC000C30160277127822793271F910F910C94CD
:102DD000A5160E94A2166093BC017093BD0180935A
:102DE000BE019093BF010C941F1360E070E0CB0113
:102DF0000C94E9160F931F9341E050E060E070E0FF
:102E00008A019B0104C0000F111F221F331F8A95E6
:102E1000D2F7C901B8011F910F910C94E9160F93D5
:102E20001F9341E050E060E070E004C0440F551F84
:102E3000661F771F8A95D2F78091BC019091BD01E2
:102E4000A091BE01B091BF018A019B01082B192BF3
:102E50002A2B3B2BC901B8011F910F910C94E91645
:102E60000F931F9341E050E060E070E004C0440F16
:102E7000551F661F771F8A95D2F74095509560952C
:102E800070958091BC019091BD01A091BE01B0915F
:102E9000BF018A019B01082319232A233B23C9016F
:102EA000B8011F910F910C94E9160F931F9341E005
:102EB00050E060E070E004C0440F551F661F771FAC
:102EC0008A95D2F78091BC019091BD01A091BE017D
:102ED000B091BF018A019B01082719272A273B27A8
:102EE000C901B8011F910F910C94E9160F931F931C
:102EF0000091BC011091BD012091BE013091BF0134
:102F0000602B712B822B932B1F910F910C94E91640
:102F10000F931F930091BC011091BD012091BE0140
:102F20003091BF0160237123822393231F910F915E
:102F30000C94E9160F931F930091BC011091BD01F1
:102F40002091BE013091BF0160277127822793270E
:102F50001F910F910C94E9160895CF92DF92EF9292
:102F6000FF920F931F93CF93DF938C01C090BC010E
:102F7000D090BD01E090BE01F090BF018091C001F2
:102F80009091C101A091C201B091C301C82AD92A70
:102F9000EA2AFB2ACFE1D0E0D701C6010C2E04C0FB
:102FA000B695A795979587950A94D2F780FD04C0AA
:102FB000219790F780E007C0B8018C2F0E943D0A4E
:102FC0000197B1F38C2FDF91CF911F910F91FF905B
:102FD000EF90DF90CF900895CF93DF93EC010E94A4
:102FE000AD17BE010E943D0ADF91CF910895CB013C
:102FF0000E94EC170895E0910001F0910101809189
:10300000CE018083E0910001F091010190818091D7
:10301000CD01892B8083E0910001F0910101908125
:103020008091CC01892B80838091000190910101D6
:103030000C94080E2091000130910101F9013296A3
:103040009FEF40E05191851789F09F3F19F451118E
:1030500001C0942F4F5F4630A9F79F3F39F0F90127
:10306000E90FF11D97FDFA95828308950895E09187
:103070000001F09101019F012A5F3F4F9281891366
:1030800001C012823196E217F307C1F7089581E07B
:1030900090E0E0910001F0910101E80FF91F10822A
:1030A000019688309105A9F708959091CE01892B5A
:1030B0008093CE01089580959091CE0189238093CD
:1030C000CE0108951092CE0108959091CD01892BE3
:1030D0008093CD01089580959091CD0189238093AF
:1030E000CD0108951092CD0108951092CC0108955C
:1030F000909347018093460108958295982F93738A
:1031000044E0949F900111248C7C86958695282B11
:10311000822F8575880F2A7A2695822B0895CF9362
:10312000DF93D92F0E947D18C82F8D2F0E947D1804
:103130002C2F30E0322F2227A901482BCA01DF9122
:10314000CF9108956DEE7EEF80E090E00E94682CB4
:1031500060E082E090E00E94562C60E083E090E026
:103160000E94562C60E084E090E00E94562C60E0C3
:1031700085E090E00C94562C80E090E00E94502C6A
:1031800021E08D3E9E4F09F020E0822F089582E0DD
:1031900090E00C94482C682F82E090E00C94562C20
:1031A00083E090E00C94482C682F83E090E00C942E
:1031B000562C84E090E00C94482C682F84E090E03A
:1031C0000C94562C8091F401843039F11092D00186
:1031D00020E488E190E00FB6F894A8958093600011
:1031E0000FBE2093600080E00E94200A83B7817F99
:1031F000846083BF83B7816083BF7894889583B7E9
:103200008E7F83BF0FB6F894A89580916000886187
:1032100080936000109260000FBE089508950C9492
:103220000E19CF930E940F190E94F00C0E940E19E4
:10323000C0E08C2F0E94A70D892B29F4CF5FC530E9
:10324000C1F780E001C081E0CF9108950E9433135F
:103250000E94FC0D0C94200A1F920F920FB60F9241
:1032600011248F939F93AF93BF938091D0018111CD
:1032700013C08091EA019091EB01A091EC01B09113
:10328000ED014196A11DB11D8093EA019093EB01E0
:10329000A093EC01B093ED01BF91AF919F918F91FD
:1032A0000F900FBE0F901F90189582E084BD93E0A1
:1032B00095BD9AEF97BD80936E0008952FB7F8944F
:1032C0008091EA019091EB01A091EC01B091ED01A8
:1032D0002FBF08952FB7F8946091EA017091EB0128
:1032E0008091EC019091ED012FBF0895CF92DF9274
:1032F000EF92FF920F931F932FB7F8944091EA013A
:103300005091EB016091EC017091ED012FBF6A01CA
:103310007B01EE24FF248C0120E030E0C016D106B2
:10332000E206F30610F4415051099A01281B390BAB
:10333000C9011F910F91FF90EF90DF90CF900895FA
:1033400078941F920F920FB60F9211248F939F9330
:10335000AF93BF938091EA019091EB01A091EC01B2
:10336000B091ED010196A11DB11D8093EA019093EA
:10337000EB01A093EC01B093ED01BF91AF919F9150
:103380008F910F900FBE0F901F9018950E94DB2712
:10339000F8942FEF87EA91E6215080409040E1F7C2
:1033A00000C0000087E090EBDC018093FD0190936A
:1033B000FE01A093FF01B09300029CE088E10FB6EC
:1033C000F894A895809360000FBE90936000FFCFA3
:1033D000AF92BF92CF92DF92EF92FF920F931F9323
:1033E000CF93C0E0CC24C394D12CE82EF12C8C2FA9
:1033F0000E94A70D5C0100E010E0C601002E02C093
:10340000880F991F0A94E2F78A219B21892B31F4B6
:103410000F5F1F4F0F30110581F70AC0602F7C2FFF
:1034200080E00E94220AE816F90691F781E004C0C4
:10343000CF5FC530E1F680E0CF911F910F91FF90F3
:10344000EF90DF90CF90BF90AF900895CF93C82FAB
:103450008CE20E94E819882321F08C2FCF910C94E4
:10346000E81980E0CF910895CF930E94BC18811194
:1034700002C00E94A21888EA95E00E944D08C5E6A5
:10348000C15049F00E94F00C8FE39CE90197F1F7DD
:1034900000C00000F5CF81EA95E00E944D0889E266
:1034A0000E94261A81110FC18AE20E94261A8111F8
:1034B0000E94A21885E00E94261A81110E94C61956
:1034C0000E94C7188093CF0187E00E94261A8823A4
:1034D000A9F18BE10E94261A882351F08091CF0137
:1034E00081FB222720F991E0922790FB81F90EC001
:1034F0008EE00E94261A882361F08091CF0182FB22
:10350000222720F991E0922790FB82F98093CF0146
:1035100015C080E10E94261A9091CF01882341F0C6
:1035200093FB222720F981E0822780FB93F904C0D6
:10353000892F809580FB90F99093CF018091CF01E6
:103540000E94CB180E94D91890E09093EF018093CD
:10355000EE0180EE0E94261A882341F08091EE0150
:10356000982F909590FB80F98093EE0189E30E945B
:10357000261A882359F08091EE0181FB222720F939
:1035800091E0922790FB81F98093EE0182EE0E94F8
:10359000261A882359F08091EE0182FB222720F918
:1035A00091E0922790FB82F98093EE0186EE0E94D3
:1035B000261A882359F08091EE0183FB222720F9F7
:1035C00091E0922790FB83F98093EE0183EE0E94B5
:1035D000261A882359F08091EE0184FB222720F9D6
:1035E00091E0922790FB84F98093EE0185E30E949D
:1035F000261A882359F08091EE0185FB222720F9B5
:1036000091E0922790FB85F98093EE0181E30E947F
:10361000261A882359F08091EE0186FB222720F993
:1036200091E0922790FB86F98093EE0181E10E9460
:10363000261A882359F08091EE0187FB222720F972
:1036400091E0922790FB87F98093EE018091EE0143
:103650000E94DD1887E20E94261AC82F8EE10E9480
:10366000261A8111C2608FE10E94261A8111C4605E
:1036700080E20E94261A8111C86081E20E94261A07
:103680008111C06182E20E94261A8111C06283E228
:103690000E94261A8111C06484E20E94261A88239F
:1036A00011F0C06802C0CC2329F08C2F0E94D418DE
:1036B0006C2F03C00E94D018682F70E080E090E06B
:1036C000CF910C94B116CF9108958091D30180FFD2
:1036D0000BC06091050185E0689FB00111247595CC
:1036E0006795759567952BC081FF09C060910501AD
:1036F00085E0689FB00111247595679520C082FF11
:1037000007C06091050185E0689FB001112417C0D2
:103710009091D4019923D1F060910401961788F714
:103720002091050185E0289F90011124929FA0011E
:10373000939F500D112470E0CA010E941A2C60382A
:10374000710540F46115710519F406C065E070E07B
:10375000862F08958FE7089581E008958091D30121
:1037600080FF08C06091030170E0759567957595BD
:10377000679521C081FF06C06091030170E07595D7
:10378000679519C082FF04C06091030170E010C00A
:103790009091D401992399F0609102019617A0F7B6
:1037A00080910301899FC001112470E00E941A2CAE
:1037B0006038710540F46115710519F406C061E0C7
:1037C00070E0862F08958FE7089581E00895803F87
:1037D00021F40E94651B819504C0813F29F40E9459
:1037E000651B8093D7010895823F21F40E94651BD9
:1037F000819504C0833F29F40E94651B8093D60104
:103800000895893F19F40E94AE1B05C08A3F31F428
:103810000E94AE1B81958093D80108958B3F21F4BF
:103820000E94AE1B819504C08C3F29F40E94AE1B00
:103830008093D9010895843F21F48091D50181605E
:1038400017C0853F21F48091D501826011C0863F69
:1038500021F48091D50184600BC0873F21F48091D1
:10386000D501886005C0883F31F48091D501806121
:103870008093D50108958D3F21F48091D30181601B
:103880000BC08E3F21F48091D301826005C08F3F31
:1038900029F48091D30184608093D3010895803FFF
:1038A00039F48091D70187FF6CC01092D70169C0AD
:1038B000813F29F48091D7011816BCF362C0909122
:1038C000D601823F29F497FF5CC01092D60159C0FF
:1038D000833F19F41916CCF354C0893F41F4809109
:1038E000D80118160CF04DC01092D8014AC08A3F7A
:1038F00029F48091D80187FF44C0F6CF8B3F39F47B
:103900008091D90187FF3DC01092D9013AC08C3F08
:1039100029F48091D9011816BCF333C0843F21F4F7
:103920008091D5018E7F17C0853F21F48091D5010C
:103930008D7F11C0863F21F48091D5018B7F0BC014
:10394000873F21F48091D501877F05C0883F31F4FE
:103950008091D5018F7E8093D50113C08D3F21F4D6
:103960008091D3018E7F0BC08E3F21F48091D301D3
:103970008D7F05C08F3F29F48091D3018B7F809389
:10398000D3018091D60181110EC08091D7018111A0
:103990000AC08091D801811106C08091D90181119E
:1039A00002C01092D40108958091CF0183FF7EC0A0
:1039B00084EE95E00E944D088091D5011F928F936F
:1039C0008FED95E09F938F930E94E6088DED95E033
:1039D0000E944D088091D601282F082E000C330B31
:1039E0003F938F938AED95E09F938F930E94E60813
:1039F00088ED95E00E944D088091D701282F082E70
:103A0000000C330B3F938F9385ED95E09F938F933D
:103A10000E94E60883ED95E00E944D088091D80150
:103A2000282F082E000C330B3F938F9380ED95E0E9
:103A30009F938F930E94E6088EEC95E00E944D08BC
:103A40008091D901282F082E000C330B3F938F93C0
:103A50008BEC95E09F938F930E94E60888EC95E0AD
:103A60000E944D088091D4011F928F9385EC95E0C0
:103A70009F938F930E94E60883EC95E00E944D0887
:103A80008091D3011F928F9380EC95E09F938F9349
:103A90000E94E6088DEB95E00E944D088DB79EB719
:103AA0004C960FB6F8949EBF0FBE8DBF85ED91E08A
:103AB0000E94510E0E945E199093D2018093D10111
:103AC00008951F93CF93DF938091D1019091D201FC
:103AD0000E947619AC019091D401992321F0209194
:103AE000060130E006C0209107018AE0289F90017E
:103AF00011244217530708F485C08091D601C09164
:103B0000D701D091D8011091D901811107C0C111FD
:103B100075C0D11173C0111171C074C09F3F19F0ED
:103B20009F5F9093D401181624F40E94651B809324
:103B3000D6018091D60187FF05C00E94651B819543
:103B40008093D6011C1624F40E94651B8093D70134
:103B50008091D70187FF05C00E94651B81958093E6
:103B6000D7016091D601662331F1C091D701CC23F2
:103B700011F1062E000C770B880B990B0E94152B68
:103B800023E333E343E35FE30E94792B0E94DD2AC2
:103B90006093D6016C2FCC0F770B880B990B0E948A
:103BA000152B23E333E343E35FE30E94792B0E9469
:103BB000DD2A6093D7011D1624F40E94AE1B80936A
:103BC000D8018091D80187FF05C00E94AE1B819566
:103BD0008093D801111624F40E94AE1B8093D90162
:103BE0008091D90187FF05C00E94AE1B819580930B
:103BF000D901DF91CF911F910C94D41C9F3F09F004
:103C00008FCFA0CFDF91CF911F910895E5EDF1E027
:103C100085E0DF011D928A95E9F71092D401109298
:103C2000D301089587E098E00E944D081F9281E03B
:103C30008F931F9285E08F9389EB97E09F938F93EB
:103C40000E94E6080F900F900F900F900F900F902A
:103C500008958330E9F128F4813061F0823009F170
:103C60000895853009F462C008F449C0863009F42B
:103C700074C0089580910701262F30E0280F311D70
:103C80002F3F310524F4680F6093070103C08FEFC5
:103C900080930701809107011F928F9382EF96E036
:103CA00072C080910601262F30E0280F311D2F3F72
:103CB000310524F4680F6093060103C08FEF8093F1
:103CC0000601809106011F928F9380EE96E05BC003
:103CD00080910501262F30E0280F311D2F3F31053F
:103CE00024F4680F6093050103C08FEF80930501F2
:103CF000809105011F928F938DEC96E044C08091D6
:103D00000401262F30E0280F311D2F3F310524F408
:103D1000680F6093040103C08FEF809304018091CA
:103D200004011F928F9388EB96E02DC080910301D0
:103D3000262F30E0280F311D2F3F310524F4680F66
:103D40006093030103C08FEF80930301809103010F
:103D50001F928F938FE996E016C080910201262F63
:103D600030E0280F311D2F3F310524F4680F609398
:103D7000020103C08FEF80930201809102011F9224
:103D80008F9384E896E09F938F930E94E6080F90AC
:103D90000F900F900F900895833081F128F48130B7
:103DA00059F08230D1F00895853009F449C0B8F156
:103DB000863009F456C0089580910701681720F4F1
:103DC000861B8093070102C01092070180910701B2
:103DD0001F928F9385E796E054C080910601681783
:103DE00020F4861B8093060102C010920601809188
:103DF00006011F928F9383E696E043C080910501F0
:103E0000681720F4861B8093050102C010920501FB
:103E1000809105011F928F9380E596E032C08091DA
:103E20000401681720F4861B8093040102C01092DD
:103E30000401809104011F928F938BE396E021C0CF
:103E400080910301681720F4861B8093030102C050
:103E500010920301809103011F928F9382E296E0FA
:103E600010C080910201681720F4861B8093020124
:103E700002C010920201809102011F928F9387E08D
:103E800096E09F938F930E94E6080F900F900F90FB
:103E90000F900895CF93C82F1F928F938CE099E0D5
:103EA0009F938F930E94E60881E090E0A0E0B0E04D
:103EB000BC01CD0104C0660F771F881F991FCA95EA
:103EC000D2F70E94B1160F900F900F900F90CF91E4
:103ED0000C943313CF938732B0F58E3108F040C283
:103EE0008E3009F4C0C100F5873009F48DC1A8F403
:103EF000863009F03BC28091CF01817F8E7F809315
:103F0000CF018EE89AE00E944D0887E29EE00E9471
:103F10004D0881E08093DB0175C1883009F43FC012
:103F20008B3009F46BC122C2863109F4E2C120F45E
:103F3000803109F4ACC11AC2893109F4C3C18B3193
:103F400009F47DC113C2883309F458C150F4893291
:103F500009F408C2853309F405C2873209F402C2A4
:103F600005C2833409F4FEC128F48A3308F4FEC183
:103F70008953F9C1883409F0F9C10E9433138BE0E9
:103F80009EE00E944D089FEF23ED80E3915020407A
:103F90008040E1F700C000000E94C61933C18BE2E7
:103FA0009EE00E944D088DE89DE00E944D080E9411
:103FB000D0181F928F938AE89DE09F938F930E9461
:103FC000E60888E89DE00E944D080E94C718C82FA7
:103FD00085E79DE00E944D081F92CF9380E79DE00A
:103FE0009F938F930E94E6088EE69DE00E944D0805
:103FF00084E69DE00E944D088C2F81701F928F9364
:1040000081E69DE09F938F930E94E6088FE59DE0F7
:104010000E944D0885E59DE00E944D08C1FB882760
:1040200080F91F928F9382E59DE09F938F930E946A
:10403000E60880E59DE00E944D0884E49DE00E9432
:104040004D08C2FB882780F91F928F9381E49DE081
:104050009F938F930E94E6088FE39DE00E944D0896
:1040600086E39DE00E944D08C3FBCC27C0F91F9258
:10407000CF9383E39DE09F938F930E94E60881E3B3
:104080009DE00E944D080E94D918C82F8DE19DE047
:104090000E944D081F92CF9388E19DE09F938F93DC
:1040A0000E94E60886E19DE00E944D088DEF9CE0AD
:1040B0000E944D088C2F81701F928F938AEF9CE095
:1040C0009F938F930E94E6088DB79EB780960FB698
:1040D000F8949EBF0FBE8DBF88EF9CE00E944D08F4
:1040E00081EE9CE00E944D08C1FB882780F91F9259
:1040F0008F938EED9CE09F938F930E94E6088CED4A
:104100009CE00E944D088AEC9CE00E944D08C2FB96
:10411000882780F91F928F9387EC9CE09F938F9361
:104120000E94E60885EC9CE00E944D0883EB9CE031
:104130000E944D08C3FB882780F91F928F9380EB64
:104140009CE09F938F930E94E6088EEA9CE00E9479
:104150004D0884EA9CE00E944D08C4FB882780F942
:104160001F928F9381EA9CE09F938F930E94E608B1
:104170008FE99CE00E944D088DE89CE00E944D086C
:10418000C5FB882780F91F928F938AE89CE09F9354
:104190008F930E94E60888E89CE00E944D088CE618
:1041A0009CE00E944D08C6FB882780F91F928F93E0
:1041B00089E69CE09F938F930E94E60887E69CE047
:1041C0000E944D088FE59CE00E944D08C7FBCC275C
:1041D000C0F91F92CF938CE59CE09F938F930E9430
:1041E000E6088AE59CE00E944D088DB79EB74C9684
:1041F0000FB6F8949EBF0FBE8DBF04C085EB9AE04A
:104200000E944D08C1E0B7C08091CF01C82FC09572
:10421000C170C0FB80F98093CF01CC2329F08FEFD0
:104220009DE00E944D08A7C082EF9DE00E944D08CE
:104230008091CF01897F877F8093CF01E3CF9091D9
:10424000CF0191FBCC27C0F981E0C827892FC0FBA3
:1042500081F98093CF01CC2319F085EE9DE027C032
:1042600087ED9DE0CDCF9091CF0192FBCC27C0F997
:1042700081E0C827892FC0FB82F98093CF01CC232E
:1042800019F088EC9DE013C088EB9DE0B9CF9091C8
:10429000CF0193FBCC27C0F981E0C827892FC0FB51
:1042A00083F98093CF01CC2351F08CEA9DE00E94EA
:1042B0004D088091CF0181608093CF015CC08FE970
:1042C0009DE09ECF8FE79AE00E944D0885E59AE039
:1042D0000E944D088FE19AE00E944D0885EE99E01A
:1042E0000E944D0885EA99E00E944D088AE799E00E
:1042F00087CF8CE699E00E944D080E94FC0D1F922A
:104300008F9382E599E09F938F930E94E6088091B6
:1043100012011F928F938BE399E09F938F930E94DA
:10432000E6088091E8011F928F9388E299E09F93BD
:104330008F930E94E6080E946A199F938F937F9340
:104340006F9381E199E09F938F930E94E6088DB768
:104350009EB742960FB6F8949EBF0FBE8DBF52CF48
:104360008D5101C080E00E944A1F4CCF8DE99DE035
:104370000E944D08C0E08C2FCF91089580E00895F1
:104380000C94BE218E518A3030F4E82FF0E0E95DC4
:10439000FE4F8081089580E00895CF93C82F8091CB
:1043A000DB01813071F020F0823009F44BC03FC155
:1043B000E0910001F09101018081823209F039C160
:1043C00007C0E0910001F09101018081823261F427
:1043D0008C2F0E94C021811104C08C2F0E946A1F63
:1043E0002FC081E090E02CC08C2F0E94BE21811153
:1043F00026C0C431E1F070F4CB3081F0C031D1F48B
:104400000E94121E84E099E00E944D0882E0809391
:10441000DB0115C0C93259F0C83361F48EE89AE067
:104420000E944D0888E099E00E944D0808C0109253
:10443000DB0101C182E099E00E944D08FCC081E0EF
:104440008170FBC0C43228F5CE3108F0C1C0CB303A
:10445000A1F1D0F4C73009F0D0C08EE180930701FC
:1044600082E3809306018AE08093050184E18093D2
:10447000040188E08093030188E28093020188EAC6
:1044800097E00E944D08BCC0C33149F1C431C1F06E
:10449000B4C0CB3409F4A6C028F4C93289F0C833BB
:1044A00061F0ABC0C13509F49BC0C23509F496C0B8
:1044B000CE3409F0A2C06AE09BC00E94121EA0C0C8
:1044C0008091DA01882319F01092DA0199C085EB06
:1044D00097E00E944D0881E08093DB01AEC08FE839
:1044E00097E00E944D088DE797E00E944D0880916B
:1044F00007011F928F938AE797E09F938F930E9403
:10450000E60888E797E00E944D0886E697E00E945B
:104510004D08809106011F928F9383E697E09F9349
:104520008F930E94E60881E697E00E944D0882E59D
:1045300097E00E944D08809105011F928F938FE4B0
:1045400097E09F938F930E94E6088DE497E00E9486
:104550004D088CE397E00E944D08809104011F9262
:104560008F9389E397E09F938F930E94E60887E3F8
:1045700097E00E944D0882E297E00E944D088091EA
:1045800003011F928F938FE197E09F938F930E9477
:10459000E6088DE197E00E944D0886E097E00E94D2
:1045A0004D08809102011F928F9383E097E09F93C3
:1045B0008F930E94E60881E097E00E944D088DB736
:1045C0009EB748960FB6F8949EBF0FBE8DBF18C019
:1045D0008C2F0E94C2218093DA0112C061E003C0D7
:1045E00061E006C06AE08091DA010E94291E08C0DD
:1045F0008091DA010E94CC1E03C086EA97E013C0C6
:104600008091DA01882369F01F928F9380EA97E006
:104610009F938F930E94E6080F900F900F900F903A
:1046200004C08DE997E00E944D0881E006C0109219
:10463000DB0180E002C080E003CFCF91089580913C
:10464000E70108959FB7F8941092DE019FBF909103
:10465000F401943009F057C09091E9009F703091B7
:10466000EC00232F217030FD20E8922B24E02093D2
:10467000E9002091EB0020FF43C02091EE0027FFCE
:104680003FC02091DC01222321F02091E80025FF8A
:1046900037C01092DC0126E03091E80035FD15C0EE
:1046A0003091F401343061F53091EB0035FD28C0D4
:1046B000215021F481E08093DC0122C0EFE9FFE08A
:1046C0003197F1F700C00000E7CF8093F1008091AF
:1046D000E80085FD0AC08091E80080FFFCCF809152
:1046E000E8008E778093E80006C08FB7F89421E049
:1046F0002093DE018FBF9F709093E90080E00895C2
:104700009F709093E9008FEF08950F931F93CF93BD
:10471000DF9300D01F92CDB7DEB78C010E942D260B
:10472000823011F0843019F583E089831B830A837A
:104730008093E9008FEF9091E800815095FD06C0CD
:1047400095ED9A95F1F700008111F5CF8091E80081
:1047500085FF0DC040E050E063E070E0CE010196BF
:104760000E944A268091E8008E778093E8000F909F
:104770000F900F90DF91CF911F910F910895CF93DC
:10478000DF9300D01F92CDB7DEB72091F401243023
:1047900031F522E02983805891099B838A8383E045
:1047A0008093E9008FEF9091E800815095FD06C05D
:1047B00095ED9A95F1F700008111F5CF8091E80011
:1047C00085FF0DC040E050E063E070E0CE0101964F
:1047D0000E944A268091E8008E778093E8000F902F
:1047E0000F900F90DF91CF910895CF93DF93EC015D
:1047F0000E942D26823011F08430F9F482E08093FB
:10480000E9008FEF9091E800815095FD06C095ED8D
:104810009A95F1F700008111F5CF8091E80085FFAE
:104820000CC040E050E065E070E0CE010E944A26F6
:104830008091E8008E778093E800DF91CF91089512
:10484000CF93DF93EC010E942D26823011F084304B
:1048500039F581E08093E9008FEF9091E800815075
:1048600095FD06C095ED9A95F1F700008111F5CF01
:104870008091E80085FF14C040E050E068E070E0FF
:10488000CE010E944A268091E8008E778093E8004E
:1048900088E0FE01AFEDB1E001900D928A95E1F75D
:1048A000DF91CF9108958BE59EE00E944D088091A5
:1048B000F301811109C00E94DB270E9438288091F2
:1048C000E20084608093E200089587E59EE00E9404
:1048D0004D081092F301089583E59EE00C944D0875
:1048E0008FE49EE00C944D088BE49EE00E944D08FE
:1048F0000C9426192091DD012F5F822F62E30E9424
:104900000E2C992319F02093DD0108951092DD01FA
:104910008091DE01882371F18091F401843041F5AA
:104920008091E9008F702091EC00922F917020FD12
:1049300090E8892B94E09093E9009091EB0090FF30
:1049400014C09091EE0097FF10C09091E80095FF81
:1049500003C01092F100F9CF9091E80090FF05C0DC
:104960009091E8009E779093E8008F708093E90023
:104970001092DE01089542E061EC81E00E9454272C
:1049800042E061EC82E00E94542742E061EC83E067
:104990000E94542742E261EC84E00C9454278091F9
:1049A000F601833009F453C030F4813071F0823065
:1049B00009F48CC008958A3009F478C08B3009F46A
:1049C0005EC0893009F09AC020C08091F501813A1B
:1049D00009F094C08091E800877F8093E80080917F
:1049E000F9019091FA01892B21F468E08FED91E0B3
:1049F00003C060E080E090E070E00E949526809126
:104A0000E8008B778093E80008958091F50181326A
:104A100009F074C08091F9019091FA01892B09F095
:104A20006DC08091E800877F8093E8008091E80066
:104A300082FD05C08091F4018111F8CF5FC08091A3
:104A4000F1008093E7018091E8008B7753C080915B
:104A5000F501813A09F052C08091F9019091FA0173
:104A6000892B09F04BC08091E800877F8093E80094
:104A70008091E80080FFFCCF8091120136C08091C8
:104A8000F5018132D9F58091F9019091FA01892BD4
:104A9000A9F58091E800877F8093E8000E9489272C
:104AA0008091F701809312010C9433138091F501EA
:104AB000813221F58091E800877F8093E8000E9491
:104AC00089278091F8018093E80108958091F5018C
:104AD000813AA1F48091E800877F8093E80080917B
:104AE000E80080FFFCCF8091E8018093F100809185
:104AF000E8008E778093E8000C948927089584B7A6
:104B0000877F84BF0FB6F894A89580916000886174
:104B100080936000109260000FBE80E88093610077
:104B2000109261000E94890E0E94DB270E943828A3
:104B30008091E20084608093E20082E293E20E942E
:104B4000781878940E94C22A0E948B0E88E091E027
:104B50000E94F70D8AE39EE00E944D088091F401C7
:104B6000853089F486E39EE00E944D080E94E21899
:104B70008091F201882391F30E941119882371F327
:104B80000E943426EBCF0E94B90EE8CF292F33279D
:104B900023303105C9F060F42130310581F0223035
:104BA000310509F041C084E790E025E83EE040C0CF
:104BB00021323105E1F02232310531F135C082E197
:104BC00090E029EF3EE034C099278130910549F00B
:104BD00028F0029749F5EFE5FEE005C0E1E8FEE0C8
:104BE00002C0EDE6FEE0849190E09F0121C06430B8
:104BF000D8F4E62FF0E0EE0FFF1FE35CFE4F2081BC
:104C0000318189E090E014C0643070F470E0FB0101
:104C1000EE0FFF1FEB5CFE4F20813181FB01EF5C4B
:104C2000FE4F808190E004C080E090E020E030E022
:104C3000FA013183208308950895CF93C82F0E94ED
:104C40001C26C093E901CF9108958091F40184302E
:104C500011F081E0089582E008958091E9018111C9
:104C600002C00C942526089580E189BD82E189BDAA
:104C700009B400FEFDCF8091D8008F7D8093D800CD
:104C80008091E00082608093E0008091E00081FDEF
:104C9000FCCF0895CF92DF92EF92FF920F931F9374
:104CA000CF93DF93EC018B017A010E94A827811139
:104CB00033C0E114F10439F0F70180819181081BC0
:104CC000190BC80FD91FC12CD12C0115110519F1D1
:104CD0008091E80085FD16C08091E8008E77809372
:104CE000E800E114F10449F0F70180819181C80ED8
:104CF000D91ED182C08285E00FC00E94A8278823D8
:104D000021F30AC089918093F10001501109FFEF4E
:104D1000CF1ADF0ADACF80E0DF91CF911F910F9198
:104D2000FF90EF90DF90CF9008952091FB0130919C
:104D3000FC012617370748F06115710539F42091F9
:104D4000E8002E772093E80001C0B901FC0120E0C3
:104D50006115710579F18091F4018823F1F18530B5
:104D6000F1F18091E80083FD3CC08091E80082FD74
:104D70002EC08091E80080FFEBCF2091F30080915E
:104D8000F20090E0922B6115710551F08830910589
:104D900038F421912093F100615071090196F3CF0D
:104DA00021E0089709F020E08091E8008E77809359
:104DB000E800CECF2111CFCF0AC08091F401882323
:104DC00061F0853061F08091E80083FD0AC0809138
:104DD000E80082FFF2CF80E0089582E0089583E04A
:104DE000089581E008952091FB013091FC01261780
:104DF000370748F06115710539F42091E8002E77E6
:104E00002093E80001C0B901FC0120E061157105A3
:104E100091F18091F401882309F440C0853009F4B0
:104E20003FC08091E80083FD3DC08091E80082FD95
:104E30002FC08091E80080FFE9CF2091F30080919E
:104E4000F20090E0922B6115710559F088309105C0
:104E500040F424912093F10031966150710901963C
:104E6000F2CF21E0089709F020E08091E8008E77EA
:104E70008093E800CBCF2111CCCF0AC08091F40100
:104E8000882361F0853061F08091E80083FD0AC0DD
:104E90008091E80082FFF2CF80E0089582E00895DB
:104EA00083E0089581E00895982F973068F59093F6
:104EB000E900981739F07091EC002091ED005091C5
:104EC000F00003C0242F762F50E021FD02C09F5F29
:104ED000ECCF3091EB003E7F3093EB003091ED0052
:104EE0003D7F3093ED003091EB0031603093EB006B
:104EF0007093EC002093ED005093F0002091EE00B1
:104F000027FDE5CF80E008958F708093E90081E070
:104F100008958091F50187FF11C08091E80082FD1E
:104F200005C08091F4018111F8CF11C08091E80093
:104F30008B770BC08091F401882349F08091E800C1
:104F400080FFF8CF8091E8008E778093E800089585
:104F50002091E4003091E50095E64091EC00842F2B
:104F6000817040FF23C08091E80080FD1DC08091CA
:104F7000F401882399F0853099F08091EB0085FD4C
:104F800011C04091E4005091E5002417350729F342
:104F9000915011F09A01E1CF84E0089582E00895E4
:104FA00083E0089581E0089580E008954091E8004D
:104FB00042FFDDCF08950E9449280E945128E0EE6B
:104FC000F0E0808181608083E8EDF0E080818F7780
:104FD000808319BCA7EDB0E08C918E7F8C9380818B
:104FE0008F7E80831092F30108950F931F93CF93C8
:104FF000DF930E9449280E945128C8EDD0E08881A3
:105000008F77888388818068888388818F7D888373
:1050100019BC1092F4011092F0011092F20110925A
:10502000F10100EE10E0F80180818B7F80838881A0
:105030008160888342E060E080E00E945427E1EED6
:10504000F0E080818E7F8083E2EEF0E080818160FD
:105050008083808188608083F80180818E7F808357
:10506000888180618883DF91CF911F910F9108958E
:10507000E8EDF0E080818F7E8083E7EDF0E08081D5
:105080008160808384E082BF81E08093F3010C948F
:10509000F527E8EDF0E080818E7F80831092E200BA
:1050A00008951092DA001092E10008951F920F9275
:1050B0000FB60F9211242F933F934F935F936F93EB
:1050C0007F938F939F93AF93BF93EF93FF938091C1
:1050D000E10082FF0BC08091E20082FF07C0809157
:1050E000E1008B7F8093E1000E947A248091DA00B6
:1050F00080FF1FC08091D80080FF1BC08091DA0024
:105100008E7F8093DA008091D90080FF0DC080E10E
:1051100089BD82E189BD09B400FEFDCF81E08093A5
:10512000F4010E94532405C019BC1092F4010E949E
:1051300065248091E10080FF19C08091E20080FF2A
:1051400015C08091E2008E7F8093E2008091E200A2
:1051500080618093E2008091D80080628093D800C3
:1051600019BC85E08093F4010E9470248091E100D5
:1051700084FF30C08091E20084FF2CC080E189BDB3
:1051800082E189BD09B400FEFDCF8091D8008F7DFA
:105190008093D8008091E1008F7E8093E100809120
:1051A000E2008F7E8093E2008091E2008160809334
:1051B000E2008091F001882311F084E007C0809123
:1051C000E30087FD02C081E001C083E08093F40129
:1051D0000E9474248091E10083FF29C08091E20045
:1051E00083FF25C08091E100877F8093E10082E00A
:1051F0008093F4011092F0018091E1008E7F809302
:10520000E1008091E2008E7F8093E2008091E200D5
:1052100080618093E20042E060E080E00E945427D9
:105220008091F00088608093F0000E946C24FF91D0
:10523000EF91BF91AF919F918F917F916F915F910E
:105240004F913F912F910F900FBE0F901F90189587
:105250001F920F920FB60F9211242F933F934F93EB
:105260005F936F937F938F939F93AF93BF93CF93EE
:10527000DF93EF93FF93C091E900CF708091EC0032
:10528000D82FD17080FDD0E81092E9008091F00015
:10529000877F8093F00078940E946C291092E90037
:1052A0008091F00088608093F000CD2BCF70C09388
:1052B000E900FF91EF91DF91CF91BF91AF919F9165
:1052C0008F917F916F915F914F913F912F910F90AF
:1052D0000FBE0F901F9018951F93CF93DF93CDB7FC
:1052E000DEB7AA970FB6F894DEBF0FBECDBFE5EFCD
:1052F000F1E08091F100819321E0ED3FF207C9F7E1
:105300000E94CF248091E80083FF24C18091F501A1
:105310009091F601492F50E04A30510508F01AC12A
:10532000FA01EE57FF4F0C942E2C803881F0823812
:1053300009F010C18091F9018F708093E90080918C
:10534000EB0085FB882780F91092E90006C0809168
:10535000F1019091F201911182609091E800977FA4
:105360009093E8008093F1001092F100C8C0282FBC
:105370002D7F09F0EFC0882319F0823061F0EAC078
:105380008091F701813009F0E5C0933009F080E0A9
:105390008093F2012BC08091F701811127C0809189
:1053A000F9018F7009F4D6C08093E9002091EB00D9
:1053B00020FF1CC0933021F48091EB00806214C068
:1053C0009091EB0090619093EB0021E030E0A90117
:1053D00002C0440F551F8A95E2F74093EA001092ED
:1053E000EA008091EB0088608093EB001092E90066
:1053F0008091E800877F86C08111ACC01091F701D1
:105400001F778091E3008078812B8093E300809167
:10541000E800877F8093E8000E9489278091E80058
:1054200080FFFCCF8091E30080688093E30011113E
:1054300002C082E001C083E08093F4018BC08058F9
:10544000823008F087C08091F7019091F8018C3D7F
:1054500053E0950779F583E08A838AE289834FB721
:10546000F894DE01139620E03EE051E2E32FF0E0F5
:1054700050935700E49120FF03C0E295EF703F5F27
:10548000EF708E2F90E0EA3010F0C79601C0C09602
:105490008D939D932F5F243149F74FBF8091E80092
:1054A000877F8093E8006AE270E0CE0101960E9457
:1054B000952614C0AE014F5F5F4F6091F9010E94C5
:1054C000C625BC01892B09F445C09091E800977F5F
:1054D0009093E80089819A810E94F3268091E800E8
:1054E0008B778093E80036C08038A1F58091E80082
:1054F000877F8093E8008091F0018093F100809194
:10550000E8008E778093E8000E94892723C08111EC
:1055100021C08091F7019091F80199270297D4F466
:105520008091E800877F8093E8008091F701809365
:10553000F0010E9489278091F001811106C08091BD
:10554000E30087FD02C081E001C084E08093F401A4
:105550000E94BB248091E80083FF0AC08091E8008C
:10556000877F8093E8008091EB0080628093EB005E
:10557000AA960FB6F894DEBF0FBECDBFDF91CF91D4
:105580001F910895CF938091F4018823A1F0C091D9
:10559000E900CF709091EC00892F817090FD80E838
:1055A000C82B1092E9008091E80083FD0E946C29CD
:1055B000CF70C093E900CF9108950E94E42A6894C7
:1055C000B1110C94732B08950E94582B88F09F57AB
:1055D00098F0B92F9927B751B0F0E1F0660F771F17
:1055E000881F991F1AF0BA95C9F714C0B13091F00D
:1055F0000E94722BB1E008950C94722B672F782FC4
:105600008827B85F39F0B93FCCF3869577956795D1
:10561000B395D9F73EF490958095709561957F4F3D
:105620008F4F9F4F0895E89409C097FB3EF49095E3
:105630008095709561957F4F8F4F9F4F9923A9F06B
:10564000F92F96E9BB279395F695879577956795FA
:10565000B795F111F8CFFAF4BB0F11F460FF1BC03E
:105660006F5F7F4F8F4F9F4F16C0882311F096E9D1
:1056700011C0772321F09EE8872F762F05C066237F
:1056800071F096E8862F70E060E02AF09A95660F38
:10569000771F881FDAF7880F9695879597F90895F1
:1056A00057FD9058440F551F59F05F3F71F04795D3
:1056B000880F97FB991F61F09F3F79F087950895B8
:1056C000121613061406551FF2CF4695F1DF08C0D7
:1056D000161617061806991FF1CF869571056105F4
:1056E00008940895E894BB2766277727CB0197F99C
:1056F00008950E948C2B0C94FD2B0E94EF2B38F008
:105700000E94F62B20F0952311F00C94E62B0C94BC
:10571000EC2B11240C94732B0E94502B70F3959F4B
:10572000C1F3950F50E0551F629FF001729FBB2798
:10573000F00DB11D639FAA27F00DB11DAA1F649F34
:105740006627B00DA11D661F829F2227B00DA11DE7
:10575000621F739FB00DA11D621F839FA00D611D6D
:10576000221F749F3327A00D611D231F849F600D8E
:10577000211D822F762F6A2F11249F5750409AF0B7
:10578000F1F088234AF0EE0FFF1FBB1F661F771F43
:10579000881F91505040A9F79E3F510580F00C940E
:1057A000E62B0C94732B5F3FE4F3983ED4F386957D
:1057B00077956795B795F795E7959F5FC1F7FE2BAE
:1057C000880F911D9695879597F9089597F99F678A
:1057D00080E870E060E008959FEF80EC0895002479
:1057E0000A941616170618060906089500240A9446
:1057F00012161306140605060895092E0394000CCC
:1058000011F4882352F0BB0F40F4BF2B11F460FF5A
:1058100004C06F5F7F4F8F4F9F4F0895991B79E0B2
:1058200004C0991F961708F0961B881F7A95C9F730
:105830008095089597FB072E16F4009407D077FD06
:1058400009D00E94342C07FC05D03EF49095819538
:105850009F4F0895709561957F4F0895EE0FFF1F3C
:105860000590F491E02D0994AA1BBB1B51E107C0E0
:10587000AA1FBB1FA617B70710F0A61BB70B881FE0
:10588000991F5A95A9F780959095BC01CD0108956F
:10589000F999FECF92BD81BDF89A992780B50895F8
:1058A000A8E1B0E042E050E00C94702C262FF9996A
:1058B000FECF92BD81BDF89A019700B4021639F06F
:1058C0001FBA20BD0FB6F894FA9AF99A0FBE089540
:1058D0000196272F0E94572C0C94562CDC01CB01EB
:1058E000FC01F999FECF06C0F2BDE1BDF89A3196F0
:1058F00000B40D9241505040B8F70895F894FFCF8E
:10590000C4012808140A321E1F232024F523BF23B4
:1059100085230190919293959496973435366667D6
:10592000C6F1373332313001020304050607080996
:1059300000404D3622B00F630F2D0F0B0F970EB0A6
:065940000EC90EE20E008C
:00000001FF
