:100000000C94C2070C9409080C9409080C94090874
:100010000C9409080C9409080C9409080C9409081C
:100020000C9409080C9409080C9412280C94E528E7
:100030000C9415190C9409080C9409080C940908DF
:100040000C9409080C9409080C9409080C940908EC
:100050000C9409080C9489190C9409080C9409084B
:100060000C9409080C9409080C9409080C940908CC
:100070000C9409080C9409080C9409080C940908BC
:100080000C9409080C9409080C9409080C940908AC
:100090000C9409080C9409080C9409080C9409089C
:1000A0000C9409080C9409080C94090800F0290024
:1000B0001E001F0020002100220023002400250034
:1000C000260027002D002E0000002A002B0014001F
:1000D0001A00090013000A000D000F0018001C0090
:1000E00033002F003000310000002A00040015000A
:1000F0001600170007000B00110008000C0012008A
:100100003400000028000000C65C00001D001B0039
:100110000600190005000E001000360037003800F8
:100120000000C75C0000E000E200E3000000000007
:1001300000002C00000000000000E700E600055170
:100140000451000029001E001F0020002100220091
:10015000230024002500260027002D002E0000008B
:100160002A002B0014001A00090013000A000D00D9
:100170000F0018001C0033002F0030003100000079
:100180002A00040015001600170007000B001100DC
:1001900008000C0012003400000028000000C65CBB
:1001A00000001D001B000600190005000E001000D5
:1001B0003600370038000000C75C0000E000E300B4
:1001C000E2000000000000002C0000000000000021
:1001D000E600E70005510451000029001E001F0041
:1001E00020002100220023002400250026002700F3
:1001F0002D002E0000002A002B0014001A00080019
:10020000150017001C0018000C00120013002F002E
:10021000300031000000390004001600070009001A
:100220000A000B000D000E000F0033003400000028
:1002300028000000C65C00001D001B00060019001D
:100240000500110010003600370038000000C75CC0
:100250000000E000E200E3000000000000002C00CD
:10026000000000000000E700E60005510451000016
:1002700029001E001F00200021002200230024006E
:100280002500260027002D002E0000002A002B004C
:1002900014001A000800150017001C0018000C00BC
:1002A000120013002F00300031000000390004005C
:1002B0001600070009000A000B000D000E000F00D9
:1002C00033003400000028000000C65C00001D0060
:1002D0001B00060019000500110010003600370051
:1002E00038000000C75C0000E000E300E20000000E
:1002F000000000002C00000000000000E600E70005
:1003000005510451000035003A003B003C003D001F
:100310003E003F00400041004200430044004500D1
:1003200001004C0039004B004A0052004D004E00C5
:10033000010001004600470048005200010049004A
:100340000000E0000100500051004F0001000100DA
:1003500001004A004B0050004F000100280000003F
:1003600001000100AA00A900A8000100010001008D
:1003700001004D004E00510001000100010001008C
:10038000010001000000000000002C00000000003F
:1003900000000100010006510100000035003A0094
:1003A0003B003C003D003E003F0040004100420059
:1003B00043004400450001002A002B000100010019
:1003C000010001000100FB00FA00F900FC0001003F
:1003D0000100010001000000E0000100FD00FE003E
:1003E000FF000100F200F100F000F3000100010045
:1003F00001002800000001000100010001000100CF
:100400000100F600F500F400F700F800010001001B
:10041000E5000100010001000100000000000000F3
:10042000F400000000000000010001000100E400F1
:100430000000105011501250135001000100010033
:1004400001000100010001000100010001000100A4
:1004500001001250135001000100010001000100D1
:100460000100010001000100010001000000010085
:100470000100010001000100010001000100010074
:100480000100010001000100010000000100010065
:100490000100010011500100010001001050010095
:1004A0000100010001000100010001000100010044
:1004B000000000000000010000000000000001003A
:1004C00001000100010000000A44454255473A205E
:1004D000656E61626C65642E0A000A002530313653
:1004E00062003A200025303258000A722F63203013
:1004F0003132333435363738394142434445460A80
:10050000000A002530325820006B6579626F6172F5
:10051000645F7265706F72743A20000A0025303291
:1005200058006B6579626F6172645F7365745F6CAC
:1005300065643A2000646F6E652E0A00626F6F7406
:100540006D61676963207363616E3A202E2E2E20E1
:1005500000290A002575002F002575005D2800255B
:10056000640020002564002000256400200025642C
:10057000007C0025303258006D6F7573656B6579AE
:10058000205B62746E7C782079207620685D28720A
:1005900065702F61636C293A205B006D6B5F776833
:1005A00065656C5F74696D655F746F5F6D61782000
:1005B0003D2025640A006D6B5F776865656C5F6D33
:1005C00061785F7370656564203D2025640A006D65
:1005D0006B5F74696D655F746F5F6D6178203D203E
:1005E00025640A006D6B5F6D61785F73706565648B
:1005F000203D2025640A006D6B5F696E746572761C
:10060000616C203D2025640A006D6B5F64656C6140
:1006100079203D2025640A006D6B5F776865656C05
:100620005F74696D655F746F5F6D6178203D202533
:10063000640A006D6B5F776865656C5F6D61785FFC
:100640007370656564203D2025640A006D6B5F74DE
:10065000696D655F746F5F6D6178203D2025640A68
:10066000006D6B5F6D61785F7370656564203D2020
:1006700025640A006D6B5F696E74657276616C202B
:100680003D2025640A006D6B5F64656C6179203DD7
:100690002025640A000A00257500363A207768652F
:1006A000656C5F74696D655F746F5F6D61783A202A
:1006B000000A00257500353A20776865656C5F6D26
:1006C00061785F73706565643A20000A00257500E3
:1006D000343A2074696D655F746F5F6D61783A209C
:1006E000000A00257500333A206D61785F737065EC
:1006F00065643A20000A00257500323A20696E745C
:10070000657276616C286D73293A20000A002575A0
:1007100000313A2064656C6179282A31306D732983
:100720003A20000A092D2056616C756573202D0A48
:10073000004D3E004D25643E20003F00736574204F
:1007400064656661756C740A00433E2000776865D5
:1007500072652064656C74613A20637572736F72A0
:100760003D25642C20776865656C3D25640A5365DA
:100770006520687474703A2F2F656E2E77696B69E7
:1007800070656469612E6F72672F77696B692F4D91
:100790006F7573655F6B6579730A000A092D204DCB
:1007A0006F7573656B6579202D0A4553432F713A38
:1007B00009717569740A313A0964656C6179282A8E
:1007C00031306D73290A323A09696E746572766147
:1007D0006C286D73290A333A096D61785F7370650F
:1007E00065640A343A0974696D655F746F5F6D61A1
:1007F000780A353A09776865656C5F6D61785F7373
:10080000706565640A363A09776865656C5F746976
:100810006D655F746F5F6D61780A0A703A09707276
:10082000696E742076616C7565730A643A09736544
:10083000742064656661756C74730A75703A092B6F
:10084000310A646F776E3A092D310A706775703A14
:10085000092B31300A7067646F776E3A092D313099
:100860000A0A7370656564203D2064656C746120BC
:100870002A206D61785F7370656564202A20287274
:100880006570656174202F2074696D655F746F5F9A
:100890006D6178290A003F004D3E2000433E200054
:1008A0004C25640A0074696D65725F72656164331A
:1008B0003228293A202530346C580A006B65796259
:1008C0006F6172645F69646C653A2025580A006B39
:1008D0006579626F6172645F70726F746F636F6C61
:1008E0003A2025580A00686F73745F6B6579626FF0
:1008F0006172645F6C65647328293A2025580A0088
:100900000A092D20537461747573202D0A00474322
:10091000433A20362E322E30204156522D4C494239
:10092000433A20322E302E30204156525F415243FE
:10093000483A20617672350A004F5054494F4E5361
:100940003A204C55464120424F4F544D4147494370
:10095000204D4F5553454B45592045585452414B16
:10096000455920434F4E534F4C4520434F4D4D4129
:100970004E4420343039360A004255494C443A201E
:1009800022302E352E34302D3138372D67623565C3
:100990003833322D646972747922202832323A3227
:1009A000353A3438204A756E2020352032303137C0
:1009B000290A005649443A20307846454544284D96
:1009C00061737364726F7029205049443A20307803
:1009D00036303630285336302D5829205645523A75
:1009E000203078303030310A00444553433A20718A
:1009F0002E6D2E6B2E206B6579626F61726420669E
:100A000069726D7761726520666F72205336302D82
:100A1000580A000A092D2056657273696F6E202DE1
:100A20000A000A092D20436F6E736F6C65202D0A32
:100A30004553432F713A09717569740A6D3A096D0E
:100A40006F7573656B65790A000A092D204D616722
:100A50006963202D0A443A094465627567204D6533
:100A6000737361676520546F67676C650A583A094C
:100A70004D6174726978204465627567204D6F64BA
:100A80006520546F67676C65202D2053686F772051
:100A90006B65797072657373657320696E206D6123
:100AA0007472697820677269640A4B3A094B6579F8
:100AB000626F61726420446562756720546F676776
:100AC0006C65202D2053686F77206B657970726597
:100AD0007373207265706F72740A4D3A09446562CF
:100AE0007567204D6F75736520546F67676C650A75
:100AF000563A0956657273696F6E0A533A09537410
:100B0000617475730A433A09416374697661746567
:100B100020436F6E736F6C65204D6F64650A4631BC
:100B20002D4631303A0953776974636820746F2019
:100B30004C6179657220302D392028463130203DB6
:100B4000204C30290A302D393A095377697463688B
:100B500020746F204C6179657220302D390A45531D
:100B6000433A0953776974636820746F204C617944
:100B7000657220302028616C7465726E6174652026
:100B80006B65792031290A47524156453A09537716
:100B90006974636820746F204C617965722030201D
:100BA00028616C7465726E617465206B65792032A2
:100BB000290A50415553453A094A756D7020746FA2
:100BC00020426F6F746C6F61646572202852657388
:100BD0006574290A453A095072696E74204545507A
:100BE000524F4D2053657474696E67730A000A0092
:100BF0002575002E6E6B726F3A20000A0025750075
:100C00002E737761705F6261636B736C6173685F91
:100C10006261636B73706163653A20000A00257539
:100C2000002E737761705F67726176655F657363CD
:100C30003A20000A002575002E6E6F5F6775693ACD
:100C400020000A002575002E737761705F72616C59
:100C5000745F726775693A20000A002575002E736B
:100C60007761705F6C616C745F6C6775693A2000C6
:100C70000A002575002E636170736C6F636B5F747F
:100C80006F5F636F6E74726F6C3A20000A00257597
:100C9000002E737761705F636F6E74726F6C5F6349
:100CA0006170736C6F636B3A20000A002530325814
:100CB000006B65796D61705F636F6E6669672E7238
:100CC00061773A20000A002575002E6D6F757365F7
:100CD0003A20000A002575002E6B6579626F6172FB
:100CE000643A20000A002575002E6D6174726978DF
:100CF0003A20000A002575002E656E61626C653A27
:100D000020000A00253032580064656275675F6311
:100D10006F6E6669672E7261773A20000A0025754A
:100D20000064656661756C745F6C617965723A2008
:100D3000003F000A6D6F7573653A206F66660A00A2
:100D40000A6D6F7573653A206F6E0A000A6B6579DC
:100D5000626F6172643A206F66660A000A6B657999
:100D6000626F6172643A206F6E0A000A6D6174727C
:100D700069783A206F66660A000A6D617472697854
:100D80003A206F6E0A000A64656275673A206F66E2
:100D9000660A000A64656275673A206F6E0A000A87
:100DA0000A4A756D70696E6720746F20626F6F7488
:100DB0006C6F616465722E2E2E2000433E2000650C
:100DC00065636F6E6669673A0A005B735D004B6529
:100DD00079626F6172642073746172742E0A005BB1
:100DE000575D005B535D005B525D005B445D005BE3
:100DF000435D000C035300360030002D0058000006
:100E00000012034D00610073007300640072006FF4
:100E100000700000000403090409027400040100CA
:100E2000A0FA0904000001030101000921110100D9
:100E3000012240000705810308000A09040100019E
:100E400003010200092111010001224D0007058262
:100E50000308000A0904020001030000000921112F
:100E60000100012236000705830308000A09040374
:100E700000020300000009211101000122220007E5
:100E8000058403200001070504032000011201105E
:100E90000100000008EDFE60600100010200010693
:100EA00031FF0974A1010975150026FF0095207511
:100EB0000881020976150026FF0095207508910229
:100EC000C005010980A10185021601002603001A50
:100ED00081002A8300751095018100C0050C09016D
:100EE000A1018503160100269C021A01002A9C021A
:100EF000751095018100C005010902A1010901A138
:100F000000050919012905150025019505750181BF
:100F1000029501750381010501093009311581250B
:100F20007F95027508810609381581257F95017521
:100F3000088106050C0A38021581257F9501750880
:100F40008106C0C005010906A101050719E029E7CE
:100F5000150025019508750181029501750881012B
:100F6000050819012905950575019102950175037B
:100F700091010507190029FF150026FF0095067548
:100F8000088100C011241FBECFEFDAE0DEBFCDBF65
:100F900004B603FE27C08091FD019091FE01A0914F
:100FA000FF01B09100028730904BA740B04BD1F4C5
:100FB0001092FD011092FE011092FF0110920002AA
:100FC00014BE84B7877F84BF0FB6F894A89580912C
:100FD0006000886180936000109260000FBEE0E0C6
:100FE000F8E3099511E0A0E0B1E0EEE6F8E502C013
:100FF00005900D92A634B107D9F721E0A6E4B1E03F
:1010000001C01D92AD3FB207E1F70E9440250C944C
:10101000352C0C940000FF93EF93E0914601F09182
:101020004701309709F00995EF91FF910895FC0170
:101030008591803011F0EFDFFBCF0895FF27E0E2CC
:1010400030E247FF0CC0419597FF09C0EDE2609583
:10105000709580959095611D711D811D911D27FFD3
:1010600002C0219530E350E2AA27660F771F881F40
:10107000991FAA1FA41710F0A41B63955A95A9F7EE
:10108000AA3008F0A95FA05DAF93F39561157105D3
:101090008105910541F7ED3211F4EF93F395F217C5
:1010A00018F43F93F395FBCF8F91B5DFFA95E1F7F5
:1010B0000895E991F9918591803021F0853219F0F8
:1010C000AADFF9CF089520E0E89455915532C1F395
:1010D000503311F4689455915A3348F4505390F3B7
:1010E000220F022E220F220F200D250FF4CF0EF417
:1010F000219589919991533619F3533729F1533535
:1011000059F1BC0188279927E8945C3621F489912C
:10111000999168945591543639F446EF7EF077FFF3
:101120000DC08FEF9FEF0AC055374AE039F05835B0
:1011300040E121F0523642E009F00895FF93EF9329
:101140007DDFEF91FF91B7CFFF93EF93FC0181918A
:101150008030B9F360DFFBCFFF93EF9368DFF1CF0F
:10116000DF93CF93CDB7DEB72596A3DFCF91DF9185
:1011700008950C94700C0C946F0C0C94C3080C9490
:10118000F80981E0089581E008950E9409132FEF86
:1011900084E39CE0215080409040E1F700C00000D3
:1011A0000C94AF190F931F93CF93DF938C01FC0125
:1011B000C081D181CE010E948A17BE010E94FB0925
:1011C000EC01B8010E94BD08882331F0B801CE01BE
:1011D0000E94200C8111C1C080E0DF91CF911F914E
:1011E0000F910895F80182818823B1F30E94C50808
:1011F000F3CFF8018281882379F388EC94E00E9490
:1012000017088091CF0181608093CF01E5CFF8016D
:101210008281882309F380E00E94DD25DDCFF8017B
:101220008281882309F4B0C00E94A518811102C0F0
:101230000E948B180E94C21890E09093EF01809357
:10124000EE01FE01E350FC45E231F105C0F4E35D3F
:10125000F64F8091EE010C94E52B4B094D0958098E
:101260004F0951095309550957095A095C095E0983
:101270006909600962096409660968096B09809156
:10128000EE0181608093EE018091EE010E94C6180C
:101290000E940913A1CF8260F5CF8460F3CF8061F3
:1012A000F1CF8062EFCF8064EDCF8068EBCF8460B8
:1012B0008860E8CF8E7FE6CF8D7FE4CF8B7FE2CF53
:1012C0008F7EE0CF8F7DDECF8F7BDCCF8F77DACF45
:1012D0008B7F877FD7CF87FB992790F921E09227D3
:1012E00090FB87F9CFCF80914C0181110FC0809185
:1012F0004801909149010E945F19883C910530F4A2
:1013000086E20E94620F86E20E94491082E00E94FB
:101310009F1062CFF8018281882351F010924D0115
:101320000E94471990934B0180934A0180E24AC082
:1013300080914D0181110FC080914A0190914B0124
:101340000E945F19883C910530F487E20E94620F89
:1013500087E20E94491080E2DACFC531FCE5DF0761
:10136000D0F4C2308CE5D80708F059CFC115ECE5B0
:10137000DE0709F437CFC130DC4509F43ACF81E00C
:1013800080934C0180934D01C801DF91CF911F9153
:101390000F910C94C108C73C8CE5D80709F4BACF6B
:1013A000A0F4C63CDC4559F7F8018281882309F492
:1013B0009ACF10924C010E94471990934901809353
:1013C000480182E00E94981007CFCA3C8CE5D807FC
:1013D00009F41DCFCB3CDC4591F6F80182818823CE
:1013E00009F4FACE82E018CF0C94B9080C94BB082B
:1013F00008950C94BF08972F70E02FE0929F600D26
:10140000711D1124FB019BE4899FE00DF11D112446
:10141000EE0FFF1FE255FF4F859194910895FC0157
:10142000EE0FFF1FE455FF4F8591949108950E94A0
:10143000FB090E949E0B811520E4920708F08DC0E5
:10144000811540E3940708F0F6C0803E910508F04E
:1014500071C0803C910508F0DAC0883A910580F4AB
:10146000853A910508F0D8C08130910509F46EC025
:1014700020F08430910508F069C080E090E0089584
:101480008D3B9105D0F7883A910509F418C1893A46
:10149000910509F417C18A3A910509F416C18B3AEE
:1014A000910509F415C18C3A910509F414C18B3BDF
:1014B000910509F413C18C3B910509F412C18D3AD1
:1014C000910509F411C1803B910509F410C18E3AD0
:1014D000910509F40FC18F3A910509F40EC1813BC2
:1014E000910509F40DC1823B910509F40CC1833BC0
:1014F000910509F40BC1843B910509F40AC1853BB0
:10150000910509F409C1863B910509F408C1873B9F
:10151000910509F407C1883B910509F406C1893B8F
:10152000910509F405C18A3B910509F404C180E0E5
:1015300094E408958F3F910509F048F4803F9105A8
:1015400008F075C0883E910508F097CF0895811581
:1015500020E2920708F06DC00895811544E59407D4
:10156000A8F5811523E5920708F086C0811541E5AD
:10157000940710F5811520E5920708F466C09C01D8
:1015800044E0369527954A95E1F7922F9370482FBE
:10159000437021E030E002C0220F331F4A95E2F78A
:1015A0003C68392B86958695837040E2849FC00104
:1015B0001124822B932B0895811542E5940708F09E
:1015C00047C0982F8827816F906A0895811526E576
:1015D000920758F4382F22278115954508F460C0EA
:1015E000C90188279F7190620895811528E59207A7
:1015F00008F443CF811549E5940708F455C09C01D0
:1016000030562115304208F038CF9F71ECCF805C06
:1016100091090E940F0A0895853A910509F449C07D
:10162000863A910509F048C082E890E408959065F3
:1016300008959F70EECF9C01332793FF03C0C9012B
:10164000986C0895C901906C08959F70906A0895F0
:10165000AC014370552721E030E002C0220F331F58
:101660004A95E2F78695869540E2849FC001112451
:10167000822B932B9C680895AC014370552721E081
:1016800030E002C0220F331F4A95E2F78695869517
:1016900040E2849FC0011124822B932B9A68089505
:1016A000C901846F906A0895982F8827806F906A87
:1016B000089581E890E4089583E890E4089582EE27
:1016C00094E4089589EE94E408958AEE94E40895EC
:1016D00085EB94E4089586EB94E4089583EB94E419
:1016E000089584EB94E4089587EB94E408958CECDA
:1016F00094E408958DEC94E4089583E895E40895C6
:101700008AE895E4089582E995E4089584E995E4EA
:10171000089581E296E4089583E296E4089584E2D0
:1017200096E4089585E296E4089586E296E40895A5
:1017300087E296E408958AE296E408CF823891051C
:1017400049F1B0F48133910509F45AC048F4893263
:10175000910509F450C08A32910509F456C00895E4
:101760008533910509F442C08933910599F00895B4
:10177000833E910521F138F4803E910581F0823E4F
:101780009105A1F00895863E910501F1873E9105EE
:1017900031F108952091EE012370E1F50895209133
:1017A000EE0120FF12C089E390E008952091EE0140
:1017B00022FF0BC024FF31C080E090E0089520910B
:1017C000EE0122FD2DC024FDF7CF08952091EE01FA
:1017D00023FFFBCF24FDF0CF87EE90E0089520910A
:1017E000EE0123FFF0CF86EE90E008952091EE0108
:1017F00025FD19C008952091EE0125FD17C008951B
:101800002091EE0126FD15C008952091EE0126FDE0
:1018100013C0089580EE90E0089583EE90E008955F
:1018200082EE90E0089589E290E0089585E390E0EB
:1018300008958AE290E0089581E390E0C6CF08958C
:101840000F931F93CF938C01FB018281811106C0FE
:10185000C1E08C2FCF911F910F910895C0915B0132
:10186000C11125C005311C4599F70E941F0C81E06C
:1018700080935B010E94471990935A01809359010C
:1018800010924E011092500110924F01109252018D
:10189000109251011092540110925301109256016E
:1018A000109255011092580110925701D2CF809199
:1018B000590190915A010E945F19883C910540F6A8
:1018C00080914E01E82FF0E0EE0FFF1FE15BFE4F2D
:1018D000118300838F5F80934E01C0E0BACF0895DB
:1018E0000C946F0C85B7806885BF85B7806885BF0D
:1018F000A2E2B1E061E070E08D91E82FE295EF7037
:10190000F0E041A18F709B0101C0220F8A95EAF798
:10191000922F9095942391A382A1822B82A381E0A0
:10192000A732B80749F7A3E1B1E061E070E08D911B
:10193000E82FE295EF70F0E041A18F709B0101C0AC
:10194000220F8A95EAF7922F9095942391A382A172
:10195000822B82A381E0A232B80749F7E6E6F1E0E4
:10196000ACE5B1E080E791E0119211921D921D92D9
:101970008E179F07C9F70C94F4094F925F927F92DC
:101980008F929F92AF92BF92CF92DF92EF92FF928F
:101990000F931F93CF93DF930CE511E092E2C92ED2
:1019A00091E0D92EE801EE24E394F12C992493944C
:1019B000A880B98019821882D6018D916D01E82F17
:1019C000E295EF70F0E091A18F70970101C0220FB6
:1019D0008A95EAF7892F822B81A382A1822E809497
:1019E000882182A3B0EABA95F1F783E1482E81E01D
:1019F000582E80E090E0D2017D912D01472F429535
:101A00004F7050E0DA0190967C90488159817F7048
:101A1000D70102C0AA0FBB1F7A95E2F7BD0167216B
:101A200009F055C0B701082E02C0660F771F0A944F
:101A3000E2F7462B572B5983488301968F30910547
:101A4000D1F681A1882281A282A1282B22A388819C
:101A50009981A816B90641F0909270010E94471929
:101A600090937201809371012296B1E0C636DB0734
:101A700009F09ECF809170018823B1F080917101AF
:101A8000909172010E945F19069770F0E6E6F1E00E
:101A9000D8018D919D918D0181939193B1E006368E
:101AA0001B07B1F7109270010E94F60981E0DF91E7
:101AB000CF911F910F91FF90EF90DF90CF90BF904B
:101AC000AF909F908F907F905F904F90089560E0CF
:101AD00070E0AFCFE82FF0E0EE0FFF1FEA59FE4FA6
:101AE000808191810895CF92DF92EF92FF920F93C0
:101AF0001F93CF93DF938AEE94E00E94170886E647
:101B0000E82E81E0F82EC0E0D0E095EEC92E94E0FA
:101B1000D92E0CED14E0DF93CF93DF92CF920E9489
:101B2000B00882EE94E00E941708F701819191912C
:101B30007F010E9478189F938F931F930F930E94A9
:101B4000B0088AED94E00E94170821968DB79EB7E1
:101B500008960FB6F8949EBF0FBE8DBFC530D10555
:101B6000D1F6DF91CF911F910F91FF90EF90DF9011
:101B7000CF90089590937801809377010895E09134
:101B80007701F0917801309721F00190F081E02DFC
:101B9000099480E00895EF92FF921F93CF93DF9313
:101BA000F82E192FE0917701F09178013097A9F183
:101BB0000280F381E02D09958091CF0182FF2DC035
:101BC00080FF04C089E095E00E941708CF2DD12F37
:101BD00018E083E0E82E85E0F82E8091CF0180FFA9
:101BE0000BC088811F928F93FF92EF920E94B008E2
:101BF0000F900F900F900F90115021961111EDCF73
:101C00008091CF0180FF09C081E095E0DF91CF9105
:101C10001F91FF90EF900C941708DF91CF911F91C7
:101C2000FF90EF900895E0917701F091780130975F
:101C300021F00480F581E02D09940895209175012B
:101C4000309176012817390771F0909376018093CF
:101C50007501E0917701F0917801309721F00680CD
:101C6000F781E02D0994089520917301309174015A
:101C70002817390771F09093740180937301E091F4
:101C80007701F0917801309721F00084F185E02D03
:101C90000994089508950C944A0E0E943E190E94DA
:101CA000720C0C941C1ACF93C82F8091CF0182FF25
:101CB0001EC080FF04C082E295E00E941708809158
:101CC000CF0180FF0CC01F92CF938DE195E09F93D1
:101CD0008F930E94B0080F900F900F900F908091FB
:101CE000CF0180FF04C08BE195E00E9417088C2F84
:101CF000CF910C94F9095F926F927F928F929F928D
:101D0000AF92BF92CF92DF92EF92FF920F931F9309
:101D1000CF93DF93CDB7DEB72A970FB6F894DEBF27
:101D20000FBECDBF0E94BD0C9AE7A92E91E0B92E3F
:101D300000E010E088248394912C502E802F0E9484
:101D40006A0D7C01F501C190D1905F018C159D0554
:101D5000B1F40F5F1F4F0530110579F78FEF8983BD
:101D60008A831B820E9447198160782F9D838C8310
:101D700049815A816B818D810E94340F36C08091D8
:101D8000CF0181FD0E94730D80E090E0CE24DF241E
:101D90003401082E02C0660C771C0A94E2F7960103
:101DA00026213721232B09F443C08E835F82E6204E
:101DB000F72081E0EF2809F480E088870E94471926
:101DC0008160782F9A8789874E815F8168858A85AF
:101DD0000E94340F000F111FF801E658FE4F80815A
:101DE000918168267926718260820E94461D0E9438
:101DF000BF0D90917901891709F10E94BF0D809361
:101E000079012A960FB6F894DEBF0FBECDBFDF91E1
:101E1000CF911F910F91FF90EF90DF90CF90BF90E7
:101E2000AF909F908F907F906F905F900C94530E27
:101E300001968F30910509F0ABCF8BCF2A960FB664
:101E4000F894DEBF0FBECDBFDF91CF911F910F91F0
:101E5000FF90EF90DF90CF90BF90AF909F908F90CA
:101E60007F906F905F900895CF93DF93CDB7DEB7EB
:101E70002B970FB6F894DEBF0FBECDBF4F835887A8
:101E800069877A878B87DE01119686E0FD011192C2
:101E90008A95E9F785E0FE01379601900D928A95C3
:101EA000E1F749815A816B817C818D819E810E94FD
:101EB000D2152B960FB6F894DEBF0FBECDBFDF91C3
:101EC000CF910895CF93C82F882309F4E0C08238BA
:101ED00079F40E94BF0D81FDDAC089E30E94FA17F0
:101EE0000E94DB1789E30E941718CF910C94DB172F
:101EF000833859F40E94BF0D80FDC9C083E50E945C
:101F0000FA170E94DB1783E5EECF843859F40E945C
:101F1000BF0D82FDBCC087E40E94FA170E94DB1748
:101F200087E4E1CF8CEF8C0F813A48F48C2F0E942C
:101F30009D218111ACC08C2F0E94FA17D6CF80E270
:101F40008C0F883048F4C77081E001C0880FCA95B3
:101F5000EAF70E943618C9CF8BE58C0F833078F4EE
:101F6000C53A39F0C63A41F083E890E0CF910C943D
:101F70001E0E81E890E0FACF82E890E0F7CF88E586
:101F80008C0F853108F083C0C83A09F441C0C93AC2
:101F900009F441C0CA3A09F441C0CB3A09F441C03E
:101FA000CC3A09F441C0CB3B09F441C0CC3B09F425
:101FB00041C0CD3A09F441C0C03B09F441C0CE3A1A
:101FC00009F441C0CF3A09F441C0C13B09F441C012
:101FD000C23B09F441C0C33B09F441C0C43B09F40E
:101FE00041C0C53B09F441C0C63B09F441C0C73BF1
:101FF00009F441C0C83B09F441C0C93B09F441C0E0
:10200000CA3B09F441C080E090E0CF910C94340EBB
:1020100082EE90E0FACF89EE90E0F7CF8AEE90E082
:10202000F4CF85EB90E0F1CF86EB90E0EECF83EB41
:1020300090E0EBCF84EB90E0E8CF87EB90E0E5CF4A
:102040008CEC90E0E2CF8DEC90E0DFCF83E891E084
:10205000DCCF8AE891E0D9CF82E991E0D6CF84E95C
:1020600091E0D3CF81E292E0D0CF83E292E0CDCF76
:1020700084E292E0CACF85E292E0C7CF86E292E0A6
:10208000C4CF87E292E0C1CF8AE292E0BECFCF9187
:102090000895882309F44BC0823871F40E94BF0D63
:1020A00081FF45C089E30E94FA170E94DB1789E38C
:1020B0000E9417180C94DB17833859F40E94BF0D47
:1020C00080FF35C083E50E94FA170E94DB1783E585
:1020D000EFCF843859F40E94BF0D82FF28C087E4F7
:1020E0000E94FA170E94DB1787E4E2CF9CEF980F5B
:1020F000913AF0F290E2980F983050F4877091E0A6
:1021000001C0990F8A95EAF7892F0E943C18D2CF17
:102110009BE5980F933020F480E090E00C941E0E25
:10212000885A853120F480E090E00C94340E0895B4
:10213000882321F00E9436180C94DB170895882319
:1021400021F00E943C180C94DB170895CF92DF9287
:10215000EF92FF920F931F93CF93DF937C01D62FC3
:10216000C72FFC01058102950F70128111110E9489
:102170005518EC2FE295EF708E2F90E08C30910582
:1021800008F096C0FC01E953FF4E0C94E52BD310E8
:10219000D31015111511511185115811581197119E
:1021A00058115D125D128C2F807FCF70882311F043
:1021B000C295C07F1123E1F0CC2359F080E28D0F4E
:1021C000883010F0D11110C08C2F0E9436180E9458
:1021D000DB178D2FDF91CF911F910F91FF90EF9023
:1021E000DF90CF900C94620F8C2F0E944718EFCF96
:1021F0008D2F0E944910CC2309F45AC080E28D0F24
:10220000883010F0D1110DC08C2F0E943C18DF9146
:10221000CF911F910F91FF90EF90DF90CF900C9492
:10222000DB178C2F0E944D18F2CF9C2F907F8C2FA4
:102230008F70903211F08295807FD130D1F41123CC
:1022400061F00630A8F5DF91CF911F910F91FF90BB
:10225000EF90DF90CF900C949810053048F5DF9107
:10226000CF911F910F91FF90EF90DF90CF900C9442
:102270009F10112349F0002331F3F701958190FF5E
:10228000A8CF9F709583DFCF002349F38D2FDF9177
:10229000CF911F910F91FF90EF90DF90CF900C9412
:1022A00049108C2F86958695837059F08130D9F02E
:1022B000DF91CF911F910F91FF90EF90DF90CF9022
:1022C0000895112369F08D2F9C2F9370DF91CF918A
:1022D0001F910F91FF90EF90DF90CF900C941E0E06
:1022E00080E090E0F3CF112369F08D2F9C2F937045
:1022F000DF91CF911F910F91FF90EF90DF90CF90E2
:102300000C94340E80E090E0F3CF8D2F112361F018
:102310000E94CD1BDF91CF911F910F91FF90EF9005
:10232000DF90CF900C94B91C0E94351CF3CF8C2FFA
:10233000837009F05DC01111BBCF2D2F229526951A
:102340002770220F220F6D2F6F70C62ED12CE12C1B
:10235000F12C022E04C0CC0CDD1CEE1CFF1C0A94D8
:10236000D2F7D4FF25C06FE070E080E090E004C0B9
:10237000660F771F881F991F2A95D2F76095709571
:1023800080959095C695C695C370C230A9F010F59A
:102390006C297D298E299F29C13001F1DF91CF91D0
:1023A0001F910F91FF90EF90DF90CF900C94A416A7
:1023B00060E070E0CB01E6CF6C297D298E299F2952
:1023C000DF91CF911F910F91FF90EF90DF90CF9011
:1023D0000C94B6160E94A416C701B601DF91CF91E6
:1023E0001F910F91FF90EF90DF90CF900C94921679
:1023F000112309F440C08C2F8170882309F458CF31
:102400002D2F229526952770220F220F6D2F6F708A
:10241000C62ED12CE12CF12C022E04C0CC0CDD1CDC
:10242000EE1CFF1C0A94D2F7D4FF27C06FE070E0C7
:1024300080E090E004C0660F771F881F991F2A95DF
:10244000D2F76095709580959095C695C695C370A6
:10245000C230B9F020F56C297D298E299F29C13021
:1024600011F1DF91CF911F910F91FF90EF90DF90CD
:10247000CF900C9465178695C0CF60E070E0CB01DB
:10248000E4CF6C297D298E299F29DF91CF911F915F
:102490000F91FF90EF90DF90CF900C9477170E94F0
:1024A0006517C701B601DF91CF911F910F91FF9082
:1024B000EF90DF90CF900C945317D03F59F140F438
:1024C000D03ED8F4112309F460C00023D1F181CEAD
:1024D000D23F09F442C098F1D33FA1F7112309F488
:1024E0004AC08C2F8F71DF91CF911F910F91FF9078
:1024F000EF90DF90CF900C94D916DF708C2F8F71F6
:10250000112321F00E94EE168D2F9DCE0E940F17F1
:102510008D2FA5CE112379F0053008F0C9CE8C2F70
:102520008F71DF91CF911F910F91FF90EF90DF900E
:10253000CF900C943217063008F0BACEF0CF1123AA
:1025400071F08C2F8F71DF91CF911F910F91FF90C0
:10255000EF90DF90CF900C94EE16112391F38C2F17
:102560008F71DF91CF911F910F91FF90EF90DF90CE
:10257000CF900C940F17DF91CF911F910F91FF9087
:10258000EF90DF90CF900C94D416002341F37ECED1
:102590000F931F93CF93DF93EC01988189812B8157
:1025A0003C81232B39F08F3F19F481E09F3F19F0D4
:1025B00080E001C081E080FD13C0CE010E94D208FE
:1025C000882371F0688179818A810E94D7178C01F4
:1025D0000E9489170E948016B801CE010E94A610A1
:1025E000DF91CF911F910F9108950E9455180E947D
:1025F00058180E9428180E94DB170E94E91D0E94AB
:10260000B91C80E090E00E941E0E80E090E00C94E7
:10261000340E0E9444180C94F5120E94CC17E92F36
:10262000E295EF704E2F50E0FA013297EE30F1054F
:10263000D8F4E35EFC4E0C94E52B2B132B133413D0
:10264000341336133413341334132B132B133B135B
:10265000341334133B13803F19F020F4803E20F4F0
:1026600081E00895843FE1F380E00895803EC0F367
:10267000813FD1F7F5CF93FB882780F90895CF9359
:10268000DF9300D000D01F92CDB7DEB70F900F9030
:102690000F900F900F90DF91CF910895CF93DF931C
:1026A00000D000D000D0CDB7DEB726960FB6F89494
:1026B000DEBF0FBECDBFDF91CF9108951F93CF93A3
:1026C000DF93C091840116E080918501C81304C096
:1026D000DF91CF911F910895D0E01C9FF0011D9FC5
:1026E000F00D1124EA57FE4F4081518162817381C0
:1026F000848195810E944E132196C770E5CF409149
:10270000B6015091B7016091B8017091B901809103
:10271000BA019091BB010C944E131F93CF93DF939A
:102720008091BB0182958F70D1F48091B80188238C
:10273000B1F080918401D0918501B091B601C09132
:10274000B7014091B9015091BA01A1E0BF3F09F032
:10275000A0E0BA016095709516E08D1304C0DF917A
:10276000CF911F91089541155105D9F1CF3FD9F16E
:1027700020E090E020FD3CC0189FF001199FF00D73
:102780001124EA57FE4F21812C1332C020812B13D4
:102790002FC0228121112CC02381348124173507B9
:1027A00020F1241B350B283C310510F52091BB018D
:1027B0002F7020612093BB0126E0289FF001299F04
:1027C000F00D1124E557FE4F80818F70806180836A
:1027D00086EB91E00E94C812DF91CF911F910C947B
:1027E0005E1321E0C6CF2A2FC4CF260F371FDBCFC1
:1027F00001968770B2CFAF92BF92CF92DF92EF92E5
:10280000FF920F931F93CF93DF93CDB7DEB76197FE
:102810000FB6F894DEBF0FBECDBF8C0185E0F80186
:10282000DE011D9601900D928A95E1F7D8014C9139
:1028300011965C9111971296EC903091B6016091CF
:10284000B7018091B9019091BA01009739F06F3FBB
:1028500019F421E03F3F19F020E001C021E0B22F40
:10286000B170BB2E20FD90C1F801C380D480A09030
:10287000B801AA2009F432C12091BB01C816D906BB
:1028800010F1D601A81BB90BCD01FF24F394883CAD
:102890009105F0F0F12C207F09F0E9C07C2DD98A58
:1028A000C88A6E2D89890E943F1386EB91E00E94B1
:1028B000C812E6EBF1E086E0DF011D928A95E9F7A8
:1028C0000E947F131EC0809590958C0D9D1DDDCFBD
:1028D000822F807F09F084C0651325C0341323C084
:1028E000FE2CE11020C02F7020612093BB010E94BC
:1028F0007F1386EB91E00E94C8128091BB01F80122
:1029000085838F2D61960FB6F894DEBF0FBECDBFC5
:10291000DF91CF911F910F91FF90EF90DF90CF90BB
:10292000BF90AF900895CD2839F05F3F19F481E052
:102930004F3F19F080E001C081E080FD24C081E0BC
:102940008E25F82FF170FF2E80FF3FC0809184010B
:102950002091850136E0821318C04D875E878D85F2
:102960009E850E94CC17292F22952F70223008F1C6
:10297000243030F59F7009F1D80115969C91907F15
:10298000E1F4FB2CBECF80E0DCCF90E0389FF0017B
:10299000399FF00D1124EA57FE4F6181561306C08E
:1029A0006081641303C06281E6120FC001968770D4
:1029B000D2CF9F7011F0882321F3805E883008F316
:1029C000C8010E94C812BF2CDCCFFE2CEE2009F4F7
:1029D00098CF8091BB0181608093BB01F12C91CF96
:1029E000651314C0341312C0E11010C08091BB01F4
:1029F000F8018583C8010E94C81286E0F801A6EBA1
:102A0000B1E001900D928A95E1F75ACF4D875E872C
:102A10008D859E850E940D13882309F4BFC0EE208A
:102A200009F4BCC02091BB01822F82958F7090E089
:102A3000029774F08091B6019091B70198878F83C7
:102A40001986DB86CA862C87CE0107960E94C8129B
:102A500086E0F801A6EBB1E001900D928A95E1F7CE
:102A60000E948D130E947F13FF24F3944ACF6513B5
:102A700014C0341312C0E11010C08091BB01F801E2
:102A80008583C8010E94C81286E0E6EBF1E0DF0111
:102A90001D928A95E9F7FA2C34CF4D875E878D8594
:102AA0009E850E940D13882309F478C0EE2009F456
:102AB00075C02091BB01822F82958F7090E00297A4
:102AC0003CF28091B6019091B7019A8389831B8271
:102AD000DD82CC822E83CE010196B8CFC816D906EE
:102AE00080F0F601E81BF90BCF01883C910570F0EE
:102AF000F12C7C2DD98AC88A6E2D89890E943F13BA
:102B0000D8CE809590958C0D9D1DEFCFFE2CEE209C
:102B100009F444C0651327C0341325C08091BB015C
:102B200080FD18C0982F92959F70292F30E02115B5
:102B3000310581F0D80115968C9315972F3031050A
:102B400009F458CF9F5F9295907F8F70892B1596CF
:102B50008C9350CF86E0F801A6EBB1E001900D9286
:102B60008A95E1F7CECE4D875E878D859E850E9442
:102B70000D1381116DCF8091BB0181608093BB01EA
:102B8000C8010E94C812BDCEEE2041F04D875E877D
:102B90008D859E850E940D1381115ACFC8010E9418
:102BA000C81262CF1F93CF93DF93CDB7DEB72C97B8
:102BB0000FB6F894DEBF0FBECDBF4F83588769872D
:102BC0007A878B879C87CE0107960E94FB13882308
:102BD00049F19F8188852A853B85232B39F08F3FDA
:102BE00019F481E09F3F19F080E001C081E080FD91
:102BF00008C04F81588569857A858B859C850E94A0
:102C00004E1316E08091840190918501891348C08C
:102C10002C960FB6F894DEBF0FBECDBFDF91CF91DB
:102C20001F91089586E0FE013796DE01119601900E
:102C30000D928A95E1F7FF81E8856A857B856115AC
:102C4000710539F0EF3F19F481E0FF3F19F080E0A2
:102C500001C081E080FDD5CF2091850130E0C90120
:102C60000196877099274091840150E08417950759
:102C7000C9F1F983EA837D836C8396E0929FD0014A
:102C8000939FB00D1124AA57BE4FFE0131960190BB
:102C90000D929A95E1F7809385010E945E13B1CF62
:102CA000819FC00111248A579E4F0E94FB138823E5
:102CB00009F4AECFE09184011E9FF0011124EA5780
:102CC000FE4F4081518162817381848195810E9490
:102CD0004E138091840190E001968770992780932C
:102CE000840190CF0E9409131092850110928401F3
:102CF000E6EBF1E086E0DF011D928A95E9F788CFE7
:102D0000089508950C9481160E9482166093C00164
:102D10007093C1018093C2019093C3010C94F5128A
:102D20000C9484160F931F930091C0011091C10160
:102D30002091C2013091C301602B712B822B932B08
:102D40001F910F910C9484160F931F930091C00153
:102D50001091C1012091C2013091C3016023712300
:102D6000822393231F910F910C9484160F931F932A
:102D70000091C0011091C1012091C2013091C301A5
:102D800060277127822793271F910F910C94841637
:102D90000E9481166093BC017093BD018093BE01B7
:102DA0009093BF010C94F51260E070E0CB010C949D
:102DB000C8160F931F9341E050E060E070E08A0175
:102DC0009B0104C0000F111F221F331F8A95D2F7E9
:102DD000C901B8011F910F910C94C8160F931F934E
:102DE00041E050E060E070E004C0440F551F661FF2
:102DF000771F8A95D2F78091BC019091BD01A09177
:102E0000BE01B091BF018A019B01082B192B2A2B0F
:102E10003B2BC901B8011F910F910C94C8160F9359
:102E20001F9341E050E060E070E004C0440F551F84
:102E3000661F771F8A95D2F7CB01BA01609570950E
:102E4000809590950091BC011091BD012091BE012B
:102E50003091BF0160237123822393231F910F912F
:102E60000C94C8160F931F9341E050E060E070E0AF
:102E700004C0440F551F661F771F8A95D2F78091B3
:102E8000BC019091BD01A091BE01B091BF018A012A
:102E90009B01082719272A273B27C901B8011F9141
:102EA0000F910C94C8160F931F930091BC011091C1
:102EB000BD012091BE013091BF01602B712B822B8F
:102EC000932B1F910F910C94C8160F931F93009191
:102ED000BC011091BD012091BE013091BF01602362
:102EE0007123822393231F910F910C94C8160F9383
:102EF0001F930091BC011091BD012091BE01309142
:102F0000BF0160277127822793271F910F910C948F
:102F1000C8160895BF92CF92DF92EF92FF920F935F
:102F20001F93CF93DF938C01C090BC01D090BD0163
:102F3000E090BE01F090BF018091C0019091C1016D
:102F4000A091C201B091C301C82AD92AEA2AFB2A5A
:102F5000CFE1D0E0BC2ED701C6010C2E04C0B6953F
:102F6000A795979587950A94D2F780FD0EC0219773
:102F700088F7B12C8B2DDF91CF911F910F91FF908E
:102F8000EF90DF90CF90BF900895B8018C2F0E94F2
:102F9000170A019761F3EECFCF93DF93EC010E9404
:102FA0008A17BE010E94170ADF91CF910895CB01C5
:102FB0000E94CC170895E0910001F09101018091E9
:102FC000CE018083E0910001F09101018081909118
:102FD000CD01892B8083E0910001F0910101808176
:102FE0009091CC01892B8083809100019091010107
:102FF0000C94CB0D2091000130910101F901329622
:103000009FEF40E05191851751F09F3F19F4511106
:1030100001C0942F4F5F4630A9F79F3F09F40895F0
:10302000290F311D97FD3A95F9018283089520916A
:10303000000130910101F9013296285F3F4F9081E4
:10304000891301C010823196E217F307C1F7089582
:1030500081E090E0E0910001F0910101E80FF91F9B
:103060001082019688309105A9F708959091CE01BC
:10307000892B8093CE010895982F90958091CE0151
:1030800089238093CE0108951092CE0108959091E6
:10309000CD01892B8093CD010895982F9095809133
:1030A000CD0189238093CD0108951092CD0108951B
:1030B0001092CC01089590934701809346010895A2
:1030C000829590E09C01220F331F220F331F2C7C2E
:1030D00095958795959587958373282B30E0C90141
:1030E000880F991F8A7A359527952575822B089523
:1030F000CF93DF93D92F0E946018C82F8D2F0E9485
:1031000060182C2F30E0322F2227A901482BCA014A
:10311000DF91CF9108956DEE7EEF80E090E00E9408
:103120001F2C60E082E090E00E940D2C60E083E0C4
:1031300090E00E940D2C60E084E090E00E940D2C55
:1031400060E085E090E00C940D2C80E090E00E941F
:10315000072C21E08D3E9E4F09F020E0822F08953C
:1031600082E090E00C94FF2B682F82E090E00C94BA
:103170000D2C83E090E00C94FF2B682F83E090E00F
:103180000C940D2C84E090E00C94FF2B682F84E0CD
:1031900090E00C940D2C8091F401843039F1109260
:1031A000D00120E488E190E00FB6F894A8958093D0
:1031B00060000FBE2093600080E00E94F90983B791
:1031C000817F846083BF83B7816083BF7894889553
:1031D00083B78E7F83BF0FB6F894A8958091600067
:1031E000886180936000109260000FBE089508957A
:1031F0000C94F718CF930E94F8180E94BD0C0E94FF
:10320000F718C0E08C2F0E946A0D892B31F4CF5F34
:10321000C530C1F780E0CF91089581E0FCCF0E94D6
:1032200009130E94BF0D0C94F9091F920F920FB65B
:103230000F9211248F939F93AF93BF938091D001EE
:10324000811113C08091EA019091EB01A091EC01F2
:10325000B091ED014196A11DB11D8093EA019093BB
:10326000EB01A093EC01B093ED01BF91AF919F9161
:103270008F910F900FBE0F901F90189582E084BD24
:1032800093E095BD9AEF97BD80936E0008952FB798
:10329000F8948091EA019091EB01A091EC01B0913A
:1032A000ED012FBF08952FB7F8946091EA01709156
:1032B000EB018091EC019091ED012FBF0895CF9229
:1032C000DF92EF92FF920F931F932FB7F8944091E4
:1032D000EA015091EB016091EC017091ED012FBF7B
:1032E0006A017B01EE24FF248C0120E030E0C0164F
:1032F000D106E206F30650F0481B590BCA011F9194
:103300000F91FF90EF90DF90CF90089541505109B9
:10331000F3CF78941F920F920FB60F9211248F93D0
:103320009F93AF93BF938091EA019091EB01A0919D
:10333000EC01B091ED010196A11DB11D8093EA0150
:103340009093EB01A093EC01B093ED01BF91AF918D
:103350009F918F910F900FBE0F901F9018950E9414
:103360009727F8942FEF87EA91E62150804090400C
:10337000E1F700C0000087E090EBDC018093FD01E5
:103380009093FE01A093FF01B09300029CE088E1BE
:103390000FB6F894A895809360000FBE90936000DC
:1033A000FFCFAF92BF92CF92DF92EF92FF920F9337
:1033B0001F93CF93C0E0CC24C394D12CE82EF12CE2
:1033C0008C2F0E946A0D5C0100E010E0C601002E07
:1033D00002C0880F991F0A94E2F78A219B21892B4A
:1033E00099F40F5F1F4F0F30110581F7CF5FC53084
:1033F00039F780E0CF911F910F91FF90EF90DF9010
:10340000CF90BF90AF900895602F7C2F80E00E94F6
:10341000FB09E816F90629F781E0ECCFCF93C82F16
:103420008CE20E94D119882321F08C2FCF910C942B
:10343000D11980E0CF910895CF930E94A5188111F2
:1034400002C00E948B188CE395E00E941708C5E625
:10345000C15009F0EDC085E395E00E94170889E2AC
:103460000E940E1A811118C18AE20E940E1A81115F
:103470000E948B1885E00E940E1A81110E94AF19DC
:103480000E94B0188093CF0187E00E940E1A882313
:1034900089F08BE10E940E1A882309F4D2C0809132
:1034A000CF0181FB992790F921E0922790FB81F9C8
:1034B0008093CF018091CF010E94B4180E94C2185E
:1034C00090E09093EF018093EE0180EE0E940E1A3F
:1034D000882341F08091EE01982F909590FB80F920
:1034E0008093EE0189E30E940E1A882359F080919F
:1034F000EE0181FB992790F921E0922790FB81F959
:103500008093EE0182EE0E940E1A882359F080917A
:10351000EE0182FB992790F921E0922790FB82F936
:103520008093EE0186EE0E940E1A882359F0809156
:10353000EE0183FB992790F921E0922790FB83F914
:103540008093EE0183EE0E940E1A882359F0809139
:10355000EE0184FB992790F921E0922790FB84F9F2
:103560008093EE0185E30E940E1A882359F0809122
:10357000EE0185FB992790F921E0922790FB85F9D0
:103580008093EE0181E30E940E1A882359F0809106
:10359000EE0186FB992790F921E0922790FB86F9AE
:1035A0008093EE0181E10E940E1A882359F08091E8
:1035B000EE0187FB992790F921E0922790FB87F98C
:1035C0008093EE018091EE010E94C61887E20E946E
:1035D0000E1AC82F8EE10E940E1A8111C2608FE16F
:1035E0000E940E1A8111C46080E20E940E1A81119D
:1035F000C86081E20E940E1A8111C06182E20E94BD
:103600000E1A8111C06283E20E940E1A8111C064F9
:1036100084E20E940E1A8823C9F1C0688C2F0E9490
:10362000BD186C2F70E080E090E0CF910C94901664
:103630000E94BD0C8FE39CE90197F1F700C00000E8
:1036400007CF8EE00E940E1A882351F08091CF019F
:1036500082FB992790F921E0922790FB82F928CFED
:1036600080E10E940E1A9091CF01882351F093FBC4
:10367000882780F921E0822780FB93F99093CF017E
:1036800019CF892F809580FB90F9F8CFC111C6CF53
:103690000E94B918682FC6CFCF9108958091D301A9
:1036A00080FF12C06091050185E0689FB001112480
:1036B000759567957595679560387105A8F56115DD
:1036C000710581F581E0089581FF09C060910501D0
:1036D00085E0689FB001112475956795EDCF82FF55
:1036E00007C06091050185E0689FB0011124E4CF17
:1036F0009091D4019923A1F060910401961788F765
:103700002091050185E0289F90011124929FA0013E
:10371000939F500D112470E0CA010E94D12BCCCF91
:1037200065E070E0862F08958FE708958091D301BA
:1037300080FF0CC06091030170E0759567957595E9
:1037400067956115710539F581E0089581FF06C01F
:103750006091030170E075956795F3CF82FF08C013
:103760006091030170E06038710558F38FE70895A8
:103770008091D401882369F060910201861780F757
:1037800090910301899FC001112470E00E94D12B08
:10379000EACF61E070E0862F0895803F31F40E9407
:1037A0004E1B81958093D7010895813F19F40E94A3
:1037B0004E1BF8CF823F31F40E944E1B81958093BF
:1037C000D6010895833F19F40E944E1BF8CF893F1C
:1037D00029F40E94961B8093D80108958A3F21F412
:1037E0000E94961B8195F7CF8B3F31F40E94961B68
:1037F00081958093D90108958C3F19F40E94961BFE
:10380000F8CF843F31F48091D50181608093D50158
:103810000895853F21F48091D5018260F7CF863FDE
:1038200021F48091D5018460F1CF873F21F480910C
:10383000D5018860EBCF883F21F48091D50180616C
:10384000E5CF8D3F31F48091D30181608093D30126
:1038500008958E3F21F48091D3018260F7CF8F3F8E
:10386000B9F78091D3018460F1CF803FC1F480919A
:10387000D70187FD1092D7018091D60181110EC02A
:103880008091D70181110AC08091D801811106C0B1
:103890008091D901811102C01092D4010895813F15
:1038A00029F48091D70118162CF3E6CF9091D60118
:1038B000823F29F497FFE0CF1092D601DDCF833FFE
:1038C00019F41916CCF3D8CF893F39F48091D80177
:1038D000181694F61092D801CFCF8A3F29F4809120
:1038E000D80187FFC9CFF6CF8B3F39F48091D9013A
:1038F00087FFC2CF1092D901BFCF8C3F29F48091AE
:10390000D9011816BCF3B8CF843F31F48091D501AA
:103910008E7F8093D501B0CF853F21F48091D50172
:103920008D7FF7CF863F21F48091D5018B7FF1CF3A
:10393000873F21F48091D501877FEBCF883F21F429
:103940008091D5018F7EE5CF8D3F31F48091D301F9
:103950008E7F8093D30190CF8E3F21F48091D3014D
:103960008D7FF7CF8F3F09F087CF8091D3018B7F79
:10397000F0CF8091CF0183FF7EC088E795E00E9461
:1039800017088091D5011F928F9383E795E09F934D
:103990008F930E94B00881E795E00E9417088091FC
:1039A000D601282F082E000C330B3F938F938EE601
:1039B00095E09F938F930E94B0088CE695E00E945B
:1039C00017088091D701282F082E000C330B3F9346
:1039D0008F9389E695E09F938F930E94B00887E6C6
:1039E00095E00E9417088091D801282F082E000C1E
:1039F000330B3F938F9384E695E09F938F930E94C0
:103A0000B00882E695E00E9417088091D901282F1E
:103A1000082E000C330B3F938F938FE595E09F9317
:103A20008F930E94B0088CE595E00E941708809162
:103A3000D4011F928F9389E595E09F938F930E9405
:103A4000B00887E595E00E9417088091D3011F9286
:103A50008F9384E595E09F938F930E94B00881E552
:103A600095E00E9417088DB79EB74C960FB6F89454
:103A70009EBF0FBE8DBF85ED91E00E94130E0E9488
:103A800047199093D2018093D10108951F93CF934A
:103A9000DF938091D1019091D2010E945F19AC0116
:103AA0009091D4019923D1F02091060130E0421782
:103AB000530780F08091D601C091D701D091D801F1
:103AC0001091D901811111C0C1117FC0D1117DC0E8
:103AD00011117BC0DF91CF911F91089520910701B3
:103AE0008AE0289F90011124E2CF9F3F19F09F5F49
:103AF0009093D401181624F40E944E1B8093D60193
:103B00008091D60187FF05C00E944E1B819580934E
:103B1000D6011C1624F40E944E1B8093D70180917D
:103B2000D70187FF05C00E944E1B81958093D70166
:103B30006091D601662331F1C091D701CC2311F1F8
:103B4000062E000C770B880B990B0E94CC2A23E3DE
:103B500033E343E35FE30E94302B0E94942A609397
:103B6000D6016C2FCC0F770B880B990B0E94CC2AB7
:103B700023E333E343E35FE30E94302B0E94942A64
:103B80006093D7011D1624F40E94961B8093D801E0
:103B90008091D80187FF05C00E94961B8195809374
:103BA000D801111624F40E94961B8093D9018091AC
:103BB000D90187FF05C00E94961B81958093D9018A
:103BC000DF91CF911F910C94B91C9F3F09F08FCFCB
:103BD000A0CFE5EDF1E085E0DF011D928A95E9F7E0
:103BE0001092D4011092D30108958BE997E00E94BE
:103BF00017081F9281E08F931F9285E08F938DE4C9
:103C000097E09F938F930E94B0080F900F900F90B2
:103C10000F900F900F900895833009F445C028F459
:103C2000813061F0823049F10895853009F46AC02D
:103C300008F451C0863009F47CC0089580910701D2
:103C4000262F30E0280F311D2F3F310594F4680FE7
:103C500060930701809107011F928F9386E896E099
:103C60009F938F930E94B0080F900F900F900F902A
:103C700008958FEF80930701EDCF80910601262FE5
:103C800030E0280F311D2F3F310554F4680F609349
:103C90000601809106011F928F9384E796E0E0CFA2
:103CA0008FEF80930601F5CF80910501262F30E03C
:103CB000280F311D2F3F310554F4680F6093050123
:103CC000809105011F928F9381E696E0C9CF8FEF17
:103CD00080930501F5CF80910401262F30E0280F55
:103CE000311D2F3F310554F4680F6093040180911A
:103CF00004011F928F938CE496E0B2CF8FEF8093F4
:103D00000401F5CF80910301262F30E0280F311DEB
:103D10002F3F310554F4680F609303018091030134
:103D20001F928F9383E396E09BCF8FEF80930301E5
:103D3000F5CF20910201862F90E0820F911D8F3FD9
:103D4000910554F4620F60930201809102011F9269
:103D50008F9388E196E084CF8FEF80930201F5CFB7
:103D60008330C9F128F4813061F0823019F108956F
:103D7000853009F452C008F43FC0863009F45EC0B3
:103D8000089580910701681790F4861B80930701BE
:103D9000809107011F928F9389E096E09F938F9304
:103DA0000E94B0080F900F900F900F9008951092FE
:103DB0000701EECF80910601681750F4861B8093AF
:103DC0000601809106011F928F9387EF95E0E6CF61
:103DD00010920601F6CF80910501681750F4861BFA
:103DE00080930501809105011F928F9384EE95E0E9
:103DF000D5CF10920501F6CF80910401681750F4D9
:103E0000861B80930401809104011F928F938FEC95
:103E100095E0C4CF10920401F6CF8091030168179A
:103E200050F4861B80930301809103011F928F93AE
:103E300086EB95E0B3CF10920301F6CF809102019B
:103E4000681750F4861B80930201809102011F9233
:103E50008F938BE995E0A2CF10920201F6CFCF931A
:103E6000C82F1F928F9380EA98E09F938F930E94B0
:103E7000B00861E070E080E090E004C0660F771F5A
:103E8000881F991FCA95D2F70E9490160F900F9025
:103E90000F900F90CF910C940913CF93873208F0B5
:103EA0004EC08E3108F038C28E3009F4D1C1B8F45A
:103EB000873009F4B2C148F4863009F49BC181E32C
:103EC0009DE00E94170880E0A6C1883009F462C016
:103ED0008B30A9F789E49AE00E94170889C18631DE
:103EE00009F4E3C190F4803151F78091CF0183FB55
:103EF000992790F921E0922790FB83F98093CF01D5
:103F000083FFB9C180E49DE014C0893109F4B6C1D2
:103F10008B31A9F68091CF0181FB992790F921E09F
:103F2000922790FB81F98093CF0181FF8EC189E7B1
:103F30009DE00E9417088091CF01816083C1883382
:103F400049F248F4893229F0853319F0873209F0B3
:103F5000B6CF80E007C08334E1F338F48A3308F445
:103F6000AECF89530E942F1F43C1883409F0A7CFD9
:103F70000E9409138FE99DE00E9417089FEF23ED2F
:103F800080E3915020408040E1F700C000000E9493
:103F9000AF192EC18FEB9DE00E94170881E29DE0D2
:103FA0000E9417080E94B9181F928F938EE19DE01E
:103FB0009F938F930E94B0088CE19DE00E941708A8
:103FC0000E94B018C82F89E09DE00E9417081F9238
:103FD000CF9384E09DE09F938F930E94B00882E08E
:103FE0009DE00E94170888EF9CE00E9417088C2F24
:103FF00081701F928F9385EF9CE09F938F930E9417
:10400000B00883EF9CE00E94170889EE9CE00E94B4
:104010001708C1FB882780F91F928F9386EE9CE0DA
:104020009F938F930E94B00884EE9CE00E94170833
:1040300088ED9CE00E941708C2FB882780F91F9238
:104040008F9385ED9CE09F938F930E94B00883ED42
:104050009CE00E9417088AEC9CE00E941708C3FBB2
:10406000CC27C0F91F92CF9387EC9CE09F938F934E
:104070000E94B00885EC9CE00E9417080E94C218BC
:10408000C82F81EB9CE00E9417081F92CF938CEA07
:104090009CE09F938F930E94B0088AEA9CE00E9464
:1040A000170881E99CE00E9417088C2F81701F92ED
:1040B0008F938EE89CE09F938F930E94B0088DB7FA
:1040C0009EB780960FB6F8949EBF0FBE8DBF8CE84A
:1040D0009CE00E94170885E79CE00E941708C1FB3E
:1040E000882780F91F928F9382E79CE09F938F939C
:1040F0000E94B00880E79CE00E9417088EE59CE0D3
:104100000E941708C2FB882780F91F928F938BE5C6
:104110009CE09F938F930E94B00889E59CE00E94E9
:10412000170887E49CE00E941708C3FB882780F9E2
:104130001F928F9384E49CE09F938F930E94B0081A
:1041400082E49CE00E94170888E39CE00E94170824
:10415000C4FB882780F91F928F9385E39CE09F938F
:104160008F930E94B00883E39CE00E94170881E2CD
:104170009CE00E941708C5FB882780F91F928F9347
:104180008EE19CE09F938F930E94B0088CE19CE0AD
:104190000E94170880E09CE00E941708C6FB882751
:1041A00080F91F928F938DEF9BE09F938F930E94D6
:1041B000B0088BEF9BE00E94170883EF9BE00E9402
:1041C0001708C7FBCC27C0F91F92CF9380EF9BE065
:1041D0009F938F930E94B0088EEE9BE00E94170879
:1041E0008DB79EB74C960FB6F8949EBF0FBE8DBF8D
:1041F00081E011C08091CF01817F8E7F8093CF01BC
:1042000082E29AE00E9417088BEB9DE00E9417085B
:1042100081E08093DB01CF9108958091CF01982FA9
:10422000909590FB80F98093CF0180FF03C083E9D4
:104230009DE052CE86E89DE00E9417088091CF0154
:10424000897F877F8093CF01D3CF8BE69DE044CEDB
:104250008091CF0182FB992790F921E0922790FB72
:1042600082F98093CF0182FF03C08CE59DE061CE8F
:104270008CE49DE031CE83E39DE02ECE83E19AE095
:104280000E94170889EE99E00E94170883EB99E0D5
:104290000E94170889E799E00E94170889E399E0CE
:1042A0000E9417088EE099E017CE80E099E00E9406
:1042B00017080E94BF0D1F928F9386EE98E09F9380
:1042C0008F930E94B008809112011F928F938FEC00
:1042D00098E09F938F930E94B0088091E8011F920D
:1042E0008F938CEB98E09F938F930E94B0080E946D
:1042F00053199F938F937F936F9385EA98E09F93D1
:104300008F930E94B0088DB79EB742960FB6F8946F
:104310009EBF0FBE8DBF6CCF8D5124CE80E008951F
:104320000C948E218E518A3030F4E82FF0E0E95D54
:10433000FE4F8081089580E00895CF93C82F80912B
:10434000DB018130D1F038F0823009F44DC0109299
:10435000DB0180E010C0E0910001F091010180815B
:104360008232B9F78C2F0E94902181111EC08C2FB0
:104370000E944D1F8170CF910895E0910001F0914E
:1043800001018081823271F38C2F0E948E21811174
:104390001BC0C431D9F060F4CB3071F0C031D1F022
:1043A00086E998E00E94170813C081E090E0E2CF10
:1043B000C93261F0C833A1F782E29AE00E9417087F
:1043C0008CE998E00E94170881E0D4CF1092DB01BD
:1043D00080E0D0CF0E94F51D88E998E00E94170880
:1043E00082E08093DB01F0CFC432C8F4CE3108F014
:1043F000BEC0CB30E1F040F4C73009F4CCC08AE352
:1044000097E00E94170826C0C331C1F1C431B9F743
:104410008091DA01882351F11092DA010AC0CB347D
:1044200009F4B7C0C8F4C93299F3C83341F70E9400
:10443000F51D8091DA01882309F4C4C01F928F937F
:1044400084E397E09F938F930E94B0080F900F90A2
:104450000F900F9081E08FCFC13509F494C0C23521
:1044600009F48BC0CE3459F66AE08EC089E497E037
:104470000E94170881E08093DB017DCF83E297E003
:104480000E94170881E197E00E94170880910701B8
:104490001F928F938EE097E09F938F930E94B008B6
:1044A0008CE097E00E9417088AEF96E00E941708B8
:1044B000809106011F928F9387EF96E09F938F93D1
:1044C0000E94B00885EF96E00E94170886EE96E0FD
:1044D0000E941708809105011F928F9383EE96E04A
:1044E0009F938F930E94B00881EE96E00E94170878
:1044F00080ED96E00E941708809104011F928F932F
:104500008DEC96E09F938F930E94B0088BEC96E021
:104510000E94170886EB96E00E941708809103011D
:104520001F928F9383EB96E09F938F930E94B00826
:1045300081EB96E00E9417088AE996E00E9417082E
:10454000809102011F928F9387E996E09F938F934A
:104550000E94B00885E996E00E9417088DB79EB7C3
:1045600048960FB6F8949EBF0FBE8DBF62CF8C2FBA
:104570000E9492218093DA015CCF61E08091DA01A0
:104580000E940C1E56CF61E08091DA010E94B01E9D
:1045900050CF6AE0F3CF8EE18093070182E38093EE
:1045A00006018AE08093050184E18093040188E09C
:1045B0008093030188E2809302018CE397E00E94DC
:1045C000170837CF81E397E01CCF8091E70108956A
:1045D0009FB7F8941092DE019FBF9091F401943040
:1045E00009F049C02091E9002F709091EC0090FDF6
:1045F00030C090E0922B24E02093E9002091EB0062
:1046000020FF36C02091EE0027FF32C02091DC0150
:10461000222321F02091E80025FF2AC01092DC011E
:1046200026E03091E80035FF16C08093F1008091BC
:10463000E80085FD29C08091E80080FFFCCF8091D3
:10464000E8008E778093E8009F709093E90080E007
:10465000089590E8CFCF3091F401343049F430918F
:10466000EB0035FD05C0215041F481E08093DC0171
:104670009F709093E9008FEF0895EFE9FFE0319785
:10468000F1F700C00000CDCF8FB7F89421E0209360
:10469000DE018FBFD9CF0F931F93CF93DF9300D04D
:1046A0001F92CDB7DEB78C010E94ED25823011F04C
:1046B000843019F583E089831B830A838093E900A2
:1046C0008FEF9091E800815095FD06C095ED9A9589
:1046D000F1F700008111F5CF8091E80085FF0DC052
:1046E00040E050E063E070E0CE0101960E940A26AF
:1046F0008091E8008E778093E8000F900F900F90E4
:10470000DF91CF911F910F910895CF93DF9300D048
:104710001F92CDB7DEB72091F401243031F522E0AD
:104720002983805891099B838A8383E08093E900E1
:104730008FEF9091E800815095FD06C095ED9A9518
:10474000F1F700008111F5CF8091E80085FF0DC0E1
:1047500040E050E063E070E0CE0101960E940A263E
:104760008091E8008E778093E8000F900F900F9073
:10477000DF91CF910895CF93DF93EC010E94ED2557
:10478000823011F08430F9F482E08093E9008FEFF9
:104790009091E800815095FD06C095ED9A95F1F74E
:1047A00000008111F5CF8091E80085FF0CC040E04A
:1047B00050E065E070E0CE010E940A268091E8009A
:1047C0008E778093E800DF91CF910895CF93DF93A8
:1047D000EC010E94ED25823011F0843039F581E042
:1047E0008093E9008FEF9091E800815095FD06C01D
:1047F00095ED9A95F1F700008111F5CF8091E800D1
:1048000085FF14C040E050E068E070E0CE010E94F7
:104810000A268091E8008E778093E80088E0FE0108
:10482000AFEDB1E001900D928A95E1F7DF91CF9164
:1048300008958FEE9DE00E9417088091F301811189
:1048400009C00E9497270E94F4278091E2008460AB
:104850008093E20008958BEE9DE00E94170810926D
:10486000F301089587EE9DE00C94170883EE9DE018
:104870000C9417088FED9DE00E9417080C940F19F7
:104880002091DD012F5F822F62E30E94C52B9923C7
:1048900019F02093DD0108951092DD018091DE0171
:1048A0008823E9F08091F4018430B9F49091E90013
:1048B0009F708091EC0080FD13C080E0892B94E014
:1048C0009093E9009091EB0090FF04C09091EE006E
:1048D00097FD0AC08F708093E9001092DE01089561
:1048E00080E8ECCF1092F1009091E80095FDFACFAE
:1048F0009091E80090FFEECF9091E8009E77909322
:10490000E800E8CF42E061EC81E00E94142742E039
:1049100061EC82E00E94142742E061EC83E00E9497
:10492000142742E261EC84E00C9414278091F60194
:10493000833009F452C030F4813059F1823009F4E7
:104940008EC008958A3009F47AC08B3009F460C0B3
:10495000893009F041C08091F5018132E9F58091FB
:10496000F9019091FA01892BB9F58091E800877FD0
:104970008093E8008091E80082FF2AC08091F100D6
:104980008093E7018091E8008B778093E8000C9496
:1049900049278091F501813AF9F48091E800877FF9
:1049A0008093E8008091F9019091FA01892B61F4DC
:1049B00068E08FED91E070E00E9459268091E80058
:1049C0008B778093E800089560E080E090E0F3CF7B
:1049D0008091F4018111CECF08958091F501813A43
:1049E000D9F78091F9019091FA01892BA9F780916B
:1049F000E800877F8093E8008091E80080FFFCCF8B
:104A0000809112018093F1008091E8008E77BDCFF4
:104A10008091F501813201F78091F9019091FA01BD
:104A2000892BD1F68091E800877F8093E8000E946F
:104A300049278091F701809312010C94091380910A
:104A4000F501813249F68091E800877F8093E80084
:104A50000E9449278091F8018093E8010895809190
:104A6000F501813A09F0B8CF8091E800877F809303
:104A7000E8008091E80080FFFCCF8091E801C2CF80
:104A800084B7877F84BF0FB6F894A89580916000A3
:104A9000886180936000109260000FBE80E8809370
:104AA0006100109261000E944B0E0E9497270E94A5
:104AB000F4278091E20084608093E20088EE92E225
:104AC0000E945B1878940E94782A0E944D0E88E01C
:104AD00091E00E94BA0D8EEC9DE00E941708809133
:104AE000F401853019F00E947B0EF9CF8AEC9DE02D
:104AF0000E9417080E94CB188091F201882379F355
:104B00000E94FA18882359F30E94F425E8CF292F30
:104B100033272330310579F158F421303105F1F094
:104B20002230310519F180E090E020E030E01AC039
:104B30002132310599F122323105A9F7643098F715
:104B400070E0FB01EE0FFF1FEB5CFE4F2081318117
:104B50006F5C7E4FFB01808190E004C082E190E0B9
:104B60002DE83EE0FA0131832083089584E790E048
:104B700029E13EE0F7CF99278130910561F028F0D7
:104B8000029789F6E3EFFDE002C0E5E1FEE08491E3
:104B900090E09F01E7CFE1E0FEE0F9CF643008F05C
:104BA000C2CFE62FF0E0EE0FFF1FE35CFE4F208147
:104BB000318189E090E0D6CF0895CF93C82F0E942D
:104BC000DC25C093E901CF9108958091F4018430F0
:104BD00011F081E0089582E008958091E90181114A
:104BE00002C00C94E525089580E189BD82E189BD6C
:104BF00009B400FEFDCF8091D8008F7D8093D8004E
:104C00008091E00082608093E0008091E00081FD6F
:104C1000FCCF0895AF92BF92DF92EF92FF920F9375
:104C20001F93CF93DF93EC018B017A010E946827D9
:104C3000D82E811124C0E114F10439F0F7018081EC
:104C40009181081B190BC80FD91FA12CB12C01157C
:104C50001105A9F08091E80085FD22C08091E8004F
:104C60008E778093E800E114F104A1F0F7018081D0
:104C70009181A80EB91EB182A08285E0D82E8D2D1B
:104C8000DF91CF911F910F91FF90EF90DF90BF9038
:104C9000AF9008950E9468278823C9F2D82EEFCFDD
:104CA00089918093F10001501109FFEFAF1ABF0AFB
:104CB000CECF2091FB013091FC0126173707A8F0D9
:104CC0006115710529F42091E8002E772093E80002
:104CD000FC0120E06115710551F4211108C080919B
:104CE000E80082FF33C080E00895B901F1CF8091E0
:104CF000F4018823B9F18530B9F18091E80083FD92
:104D00002FC08091E80082FDEACF8091E80080FF0B
:104D1000E1CF2091F3008091F20090E0922B611599
:104D2000710519F08830910550F021E0089709F0DD
:104D300020E08091E8008E778093E800CBCF21912E
:104D40002093F100615071090196E9CF8091F4013F
:104D5000882341F0853041F08091E80083FFBFCF88
:104D600081E0089582E0089583E008952091FB0199
:104D70003091FC0126173707A8F06115710529F459
:104D80002091E8002E772093E800FC0120E06115D7
:104D9000710551F4211108C08091E80082FF34C0F0
:104DA00080E00895B901F1CF8091F4018823C1F129
:104DB0008530C1F18091E80083FD30C08091E8002A
:104DC00082FDEACF8091E80080FFE1CF2091F300DF
:104DD0008091F20090E0922B6115710519F08830F6
:104DE000910550F021E0089709F020E08091E8005B
:104DF0008E778093E800CBCF24912093F1003196F9
:104E0000615071090196E8CF8091F401882341F047
:104E1000853041F08091E80083FFBECF81E00895A6
:104E200082E0089583E00895982F973028F08F70DE
:104E30008093E90081E008959093E900981751F07C
:104E40007091EC002091ED005091F00021FD06C022
:104E50009F5FEBCF242F762F50E0F8CF3091EB00FF
:104E60003E7F3093EB003091ED003D7F3093ED00BD
:104E70003091EB0031603093EB007093EC002093A5
:104E8000ED005093F0002091EE0027FDE1CF80E08F
:104E900008958091F50187FF13C08091E80082FF9B
:104EA00006C08091E8008B778093E80004C0809171
:104EB000F4018111F2CF08958091F4018823D9F390
:104EC0008091E80080FFF8CF8091E8008E77ECCFEA
:104ED0002091E4003091E50085E69091EC0090FD92
:104EE00020C09091E80092FD20C09091F401992398
:104EF00091F0953091F09091EB0095FD10C04091AC
:104F0000E4005091E5004217530739F381509A01AC
:104F100021F784E0089582E0089583E0089581E018
:104F200008959091E80090FFE0CF80E008950E94FE
:104F300005280E940D28E0EEF0E0808181608083EA
:104F4000E8EDF0E080818F77808319BCA7EDB0E0B9
:104F50008C918E7F8C9380818F7E80831092F30161
:104F600008950F931F93CF93DF930E9405280E940B
:104F70000D28C8EDD0E088818F778883888180688C
:104F8000888388818F7D888319BC1092F4011092E8
:104F9000F0011092F2011092F10100EE10E0F80120
:104FA00080818B7F808388818160888342E060E09C
:104FB00080E00E941427E1EEF0E080818E7F808304
:104FC000E2EEF0E080818160808380818860808370
:104FD000F80180818E7F8083888180618883DF9162
:104FE000CF911F910F910895E8EDF0E080818F7EC1
:104FF0008083E7EDF0E080818160808384E082BF80
:1050000081E08093F3010C94B127E8EDF0E080811A
:105010008E7F80831092E20008951092DA00109241
:10502000E10008951F920F920FB60F9211242F9353
:105030003F934F935F936F937F938F939F93AF9320
:10504000BF93EF93FF938091E10082FF0BC08091AB
:10505000E20082FF07C08091E1008B7F8093E10036
:105060000E9440248091DA0080FF19C08091D8000E
:1050700080FF15C08091DA008E7F8093DA008091E6
:10508000D90080FF94C080E189BD82E189BD09B467
:1050900000FEFDCF81E08093F4010E9419248091ED
:1050A000E10080FF19C08091E20080FF15C080916F
:1050B000E2008E7F8093E2008091E2008061809325
:1050C000E2008091D80080628093D80019BC85E00E
:1050D0008093F4010E9436248091E10084FF29C06E
:1050E0008091E20084FF25C080E189BD82E189BD15
:1050F00009B400FEFDCF8091D8008F7D8093D80049
:105100008091E1008F7E8093E1008091E2008F7EAC
:105110008093E2008091E20081608093E2008091C0
:10512000F001882309F449C084E08093F4010E94CF
:105130003A248091E10083FF29C08091E20083FF3F
:1051400025C08091E100877F8093E10082E0809319
:10515000F4011092F0018091E1008E7F8093E100D4
:105160008091E2008E7F8093E2008091E200806176
:105170008093E20042E060E080E00E94142780918A
:10518000F00088608093F0000E943224FF91EF913C
:10519000BF91AF919F918F917F916F915F914F914F
:1051A0003F912F910F900FBE0F901F90189519BC33
:1051B0001092F4010E942B2472CF8091E30087FDAE
:1051C00002C081E0B2CF83E0B0CF1F920F920FB642
:1051D0000F9211242F933F934F935F936F937F937D
:1051E0008F939F93AF93BF93CF93EF93FF93C09110
:1051F000E900CF708091EC001092E9008091F000FE
:10520000877F8093F00078940E9421291092E90012
:105210008091F00088608093F000C093E900FF91D6
:10522000EF91CF91BF91AF919F918F917F916F91AE
:105230005F914F913F912F910F900FBE0F901F9054
:1052400018951F93CF93DF93CDB7DEB7AA970FB60C
:10525000F894DEBF0FBECDBFE5EFF1E08091F10025
:10526000819321E0ED3FF207C9F70E9496248091D7
:10527000E80083FF44C08091F5019091F601492F29
:1052800050E04A30510508F03AC0FA01E65BF64DAD
:105290000C94E52B542978297F2978297F29D32953
:1052A000F6297F294B2A582A803879F0823839F537
:1052B0008091F9018F708093E9008091EB0085FB6C
:1052C000882780F91092E90006C08091F101909141
:1052D000F201911182609091E800977F9093E8002D
:1052E0008093F1001092F1008091E8008E772DC03C
:1052F000282F2D7F21F48823D1F0823059F180911D
:10530000E80083FF0AC08091E800877F8093E8006F
:105310008091EB0080628093EB00AA960FB6F89420
:10532000DEBF0FBECDBFDF91CF911F910895809159
:10533000F701813021F7933009F080E08093F2018A
:105340001092E9008091E800877F8093E8000E9436
:105350004927D5CF8091F7018111F2CF8091F901D2
:105360008F7069F28093E9002091EB0020FFE8CF75
:10537000933031F48091EB0080628093EB00E0CFBA
:105380009091EB0090619093EB0021E030E001C040
:10539000220F8A95EAF72093EA001092EA008091A2
:1053A000EB008860EACF8111AACF1091F7011F7737
:1053B0008091E3008078812B8093E3008091E80066
:1053C000877F8093E8000E9449278091E80080FF52
:1053D000FCCF8091E30080688093E300111104C04A
:1053E00082E08093F4018BCF83E0FBCF8058823042
:1053F00008F085CF8091F7019091F8018C3D23E072
:105400009207A1F583E08A838AE289834FB7F894F3
:10541000DE01139620E03EE051E2E32FF0E05093EE
:105420005700E49120FF03C0E295EF703F5FEF70FB
:105430008E2F90E0EA30C0F0C7968D939D932F5F3A
:10544000243159F74FBF8091E800877F8093E800AF
:105450006AE270E0CE0101960E9459268091E80030
:105460008B778093E8004BCFC096E7CFAE014F5FBC
:105470005F4F6091F9010E948725BC01892B09F4D7
:105480003ECF9091E800977F9093E80089819A81C0
:105490000E94B626E3CF803809F031CF8091E80032
:1054A000877F8093E8008091F0018093F1001CCF0A
:1054B000811125CF9091F701923008F020CF809193
:1054C000E800877F8093E8009093F0010E944927CD
:1054D0008091F001882311F084E005C08091E30001
:1054E00087FDFACF81E08093F4010E94822407CFE8
:1054F000CF938091F401882399F0C091E900CF7097
:105500008091EC0080FD0EC080E0C82B1092E90075
:105510008091E80083FD0E942129CF70C093E900AB
:10552000CF91089580E8F1CF0E949B2A6894B11131
:105530000C942A2B08950E940F2B88F09F5798F007
:10554000B92F9927B751B0F0E1F0660F771F881F88
:10555000991F1AF0BA95C9F714C0B13091F00E94A2
:10556000292BB1E008950C94292B672F782F8827D9
:10557000B85F39F0B93FCCF3869577956795B395C9
:10558000D9F73EF490958095709561957F4F8F4F38
:105590009F4F0895E89409C097FB3EF4909580953D
:1055A000709561957F4F8F4F9F4F9923A9F0F92FE9
:1055B00096E9BB279395F695879577956795B79567
:1055C000F111F8CFFAF4BB0F11F460FF1BC06F5F4D
:1055D0007F4F8F4F9F4F16C0882311F096E911C05F
:1055E000772321F09EE8872F762F05C0662371F080
:1055F00096E8862F70E060E02AF09A95660F771F94
:10560000881FDAF7880F9695879597F9089557FDC3
:105610009058440F551F59F05F3F71F04795880F20
:1056200097FB991F61F09F3F79F0879508951216B7
:1056300013061406551FF2CF4695F1DF08C0161663
:1056400017061806991FF1CF869571056105089414
:105650000895E894BB2766277727CB0197F908952B
:105660000E94432B0C94B42B0E94A62B38F00E946E
:10567000AD2B20F0952311F00C949D2B0C94A32BB3
:1056800011240C942A2B0E94072B70F3959FC1F3D1
:10569000950F50E0551F629FF001729FBB27F00DE0
:1056A000B11D639FAA27F00DB11DAA1F649F662735
:1056B000B00DA11D661F829F2227B00DA11D621F84
:1056C000739FB00DA11D621F839FA00D611D221F3E
:1056D000749F3327A00D611D231F849F600D211D22
:1056E000822F762F6A2F11249F5750409AF0F1F0A5
:1056F00088234AF0EE0FFF1FBB1F661F771F881F0E
:1057000091505040A9F79E3F510580F00C949D2B7D
:105710000C942A2B5F3FE4F3983ED4F3869577955B
:105720006795B795F795E7959F5FC1F7FE2B880FB3
:10573000911D9695879597F9089597F99F6780E849
:1057400070E060E008959FEF80EC089500240A94D3
:105750001616170618060906089500240A9412164C
:105760001306140605060895092E0394000C11F47F
:10577000882352F0BB0F40F4BF2B11F460FF04C02C
:105780006F5F7F4F8F4F9F4F0895991B79E004C043
:10579000991F961708F0961B881F7A95C9F7809570
:1057A000089597FB072E16F4009407D077FD09D0D3
:1057B0000E94EB2B07FC05D03EF4909581959F4FFE
:1057C0000895709561957F4F0895EE0FFF1F059026
:1057D000F491E02D0994AA1BBB1B51E107C0AA1F3D
:1057E000BB1FA617B70710F0A61BB70B881F991F82
:1057F0005A95A9F780959095BC01CD010895F99926
:10580000FECF92BD81BDF89A992780B50895A8E191
:10581000B0E042E050E00C94272C262FF999FECFFF
:1058200092BD81BDF89A019700B4021639F01FBAF3
:1058300020BD0FB6F894FA9AF99A0FBE0895019612
:10584000272F0E940E2C0C940D2CDC01CB01FC01A7
:10585000F999FECF06C0F2BDE1BDF89A319600B4C9
:0E5860000D9241505040B8F70895F894FFCFD4
:10586E00C4012808140A321EE522E623BB23852331
:10587E004B230190919293959496973435366667A3
:10588E00C6F1373332313001020304050607080929
:10589E0000404D3622440FF70EC10E9F0E2B0E44C4
:0658AE000E5D0E760E00F7
:00000001FF
