:100000000C940F030C9456030C9456030C94560353
:100010000C9456030C9456030C9456030C945603FC
:100020000C9456030C9456030C94191C0C94EC1C61
:100030000C9477130C9456030C9456030C945603AB
:100040000C9456030C9456030C9456030C945603CC
:100050000C9456030C94DF130C9456030C94560323
:100060000C9456030C9456030C9456030C945603AC
:100070000C9456030C9456030C9456030C9456039C
:100080000C9456030C9456030C9456030C9456038C
:100090000C9456030C9456030C9456030C9456037C
:1000A0000C9456030C9456030C94560300F0350040
:1000B0001E001F0020002100220023002400250034
:1000C000260027002D002E0000002A002B0014001F
:1000D0001A00090013000A000D000F0018001C0090
:1000E00033002F00300031000000296104001500AA
:1000F0001600170007000B00110008000C0012008A
:100100003400000028000000CB5C00001D001B0034
:100110000600190005000E001000360037003800F8
:100120000000CC5C0000E000E300E2000000000002
:1001300000002C00000000000000E600E700055170
:100140000451000035001E001F0020002100220085
:10015000230024002500260027002D002E0000008B
:100160002A002B0014001A00090013000A000D00D9
:100170000F0018001C0033002F0030003100000079
:100180002961040015001600170007000B0011007C
:1001900008000C0012003400000028000000CB5CB6
:1001A00000001D001B000600190005000E001000D5
:1001B0003600370038000000CC5C0000E000E200B0
:1001C000E3000000000000002C0000000000000020
:1001D000E700E60005510451000035001E001F0035
:1001E00020002100220023002400250026002700F3
:1001F0002D002E0000002A002B0014001A00080019
:10020000150017001C0018000C00120013002F002E
:1002100030003100000029610400160007000900C9
:100220000A000B000D000E000F0033003400000028
:1002300028000000CB5C00001D001B000600190018
:100240000500110010003600370038000000CC5CBB
:100250000000E000E200E3000000000000002C00CD
:10026000000000000000E700E60005510451000016
:1002700035001E001F002000210022002300240062
:100280002500260027002D002E0000002A002B004C
:1002900014001A000800150017001C0018000C00BC
:1002A000120013002F00300031000000296104000B
:1002B0001600070009000A000B000D000E000F00D9
:1002C00033003400000028000000CB5C00001D005B
:1002D0001B00060019000500110010003600370051
:1002E00038000000CC5C0000E000E300E200000009
:1002F000000000002C00000000000000E600E70005
:1003000005510451000035003A003B003C003D001F
:100310003E003F00400041004200430044004500D1
:1003200001004C0039004B004A0052004D004E00C5
:10033000010001004600470048005200010049004A
:10034000000001000100500051004F0001000100B9
:1003500001004A004B0050004F000100280000003F
:1003600001000100AA00A900A8000100010001008D
:1003700001004D004E00510001000100010001008C
:10038000010001000000000000002C00000000003F
:1003900000000100010006510100000035003A0094
:1003A0003B003C003D003E003F0040004100420059
:1003B00043004400450001002A002B000100010019
:1003C000010001000100FB00FA00F900FC0001003F
:1003D000010001000100000001000100FD00FE001D
:1003E000FF000100F200F100F000F3000100010045
:1003F00001002800000001000100010001000100CF
:100400000100F600F500F400F700F800010001001B
:10041000E5000100010001000100000000000000F3
:10042000F400000000000000010001000100E400F1
:100430000000105011501250135001000100010033
:1004400001000100010001000100010001000100A4
:1004500001001250135001000100010001000100D1
:100460000100010001000100010001000000010085
:100470000100010001000100010001000100010074
:100480000100010001000100010000000100010065
:100490000100010011500100010001001050010095
:1004A0000100010001000100010001000100010044
:1004B000000000000000010000000000000001003A
:1004C00001000100010000000403300000000C03E3
:1004D0005300360030002D005800000012034D007C
:1004E000610073007300640072006F007000000010
:1004F0000403090409025400030100A0FA090400DE
:10050000000103010100092111010001224000073F
:1005100005810308000A0904010001030102000922
:100520002111010001224D000705820308000A097C
:10053000040200010300000009211101000122361C
:10054000000705830308000A1201100100000008DB
:10055000EDFE606001000102030105010980A101B7
:1005600085021601002603001A81002A83007510F7
:1005700095018100C0050C0901A101850316010048
:10058000269C021A01002A9C02751095018100C068
:1005900005010902A1010901A100050919012905A7
:1005A00015002501950575018102950175038101ED
:1005B0000501093009311581257F950275088106ED
:1005C00009381581257F950175088106050C0A38C3
:1005D000021581257F950175088106C0C0050109B6
:1005E00006A101050719E029E71500250195087501
:1005F00001810295017508810105081901290595F8
:1006000005750191029501750391010507190029EE
:10061000FF150026FF00950675088100C000112413
:100620001FBECFEFDAE0DEBFCDBF04B603FE27C0AA
:100630008091E9019091EA01A091EB01B091EC0168
:100640008730904BA740B04BD1F41092E901109243
:10065000EA011092EB011092EC0114BE84B7877F7F
:1006600084BF0FB6F894A89580916000886180934C
:100670006000109260000FBEE0E0F8E3099511E021
:10068000A0E0B1E0E2E1FEE302C005900D92A633E6
:10069000B107D9F721E0A6E3B1E001C01D92A93E60
:1006A000B207E1F70E944B190C94071F0C9400004D
:1006B0000C948D070C948C070C9462030C94D80452
:1006C00081E0089581E008950E94A00D2FEF84E35A
:1006D0009CE0215080409040E1F700C000000C9465
:1006E00005140F931F93CF93DF938C01FC01C081FE
:1006F000D181CE010E942312BE010E94DB04EC01D5
:10070000B8010E945C03882331F0B801CE010E9439
:100710003D07811101C180E0DF91CF911F910F91C1
:100720000895F80182818823B1F30E946403F3CF16
:10073000F8018281882379F38091BE0181608093E2
:10074000BE01E9CFF8018281882329F380E00E946D
:10075000E419E1CFF8018281882309F4F2C00E94F4
:10076000D512811102C00E94BB120E94F21290E0C9
:100770009093DB018093DA01FE01E350FC45E23106
:10078000F105C0F4E853FC4F8091DA010C94B71ED8
:10079000E603E803F303EA03EC03EE03F003F203DA
:1007A000F503F703F9030404FB03FD03FF0301044E
:1007B000030406048091DA0181608093DA0180915C
:1007C000DA010E94F6120E94A00DA5CF8260F5CF3B
:1007D0008460F3CF8061F1CF8062EFCF8064EDCF92
:1007E0008068EBCF84608860E8CF8E7FE6CF8D7F16
:1007F000E4CF8B7FE2CF8F7EE0CF8F7DDECF8F7B0C
:10080000DCCF8F77DACF8B7F877FD7CF87FB992796
:1008100090F921E0922790FB87F9CFCFF8018281F0
:10082000882361F010923B010E94A9139093380134
:100830008093370182E00E94470B6DCF80913B018E
:1008400081110FC080913701909138010E94B5133A
:10085000883C910530F486E20E94DA0986E20E9423
:10086000E60A82E00E944E0B56CF80913C01811136
:100870000FC08091390190913A010E94B513883CD4
:10088000910530F487E20E94DA0987E20E94E60AC5
:1008900080E2E8CFF801828181116DC080913C0136
:1008A0008111F6CF8091390190913A010E94B513E0
:1008B000883C910568F780E20E944E0B88E20E9416
:1008C000DA0988E20E94E60A26CF0E949312982F46
:1008D000F80182812091000130910101882389F083
:1008E0009A7A81E009F480E080933601911107C083
:1008F00069E2C9010E9421130E9474120CCF65E3C2
:10090000F8CF80913601811105C069E2C9010E94CA
:100910002313F2CF65E3FACFC531FCE5DF07A9F277
:10092000B8F4C130ECE5DE0709F402CF08F012CFCD
:10093000C115DC4509F4F5CE81E080933B0180933D
:100940003C01C801DF91CF911F910F910C9460037E
:10095000CD3CECE5DE0709F49DCFB8F4CB3C8CE54B
:10096000D80709F45BCFCC3CDC4531F7F801828134
:10097000882309F47ACF10923C010E94A913909326
:100980003A018093390180E256CFC03DFCE5DF0794
:1009900009F4D8CEC13DDC4579F6F801828188237F
:1009A00009F4B9CE82E0D3CE0C9458030C945A03C8
:1009B00008950C945E03972F70E02FE0929F600DD6
:1009C000711D1124FB019BE4899FE00DF11D112491
:1009D000EE0FFF1FE255FF4F859194910895FC01A2
:1009E000EE0FFF1FE455FF4F859194910895CF932B
:1009F000DF930E94DB040E948F06EC018115904476
:100A000008F091C0C11580E3D80708F005C1C03EC9
:100A1000D10508F071C0C03CD10508F0E9C0C83A62
:100A2000D10580F4C53AD10508F0E9C0C130D1053F
:100A300009F46EC020F0C430D10508F069C0C0E0F0
:100A4000D0E066C0CD3BD105D0F7C83AD10509F456
:100A500027C1C93AD10509F426C1CA3AD10509F41A
:100A600025C1CB3AD10509F424C1CC3AD10509F40A
:100A700023C1CB3BD10509F422C1CC3BD10509F4FC
:100A800021C1CD3AD10509F420C1C03BD10509F4FB
:100A90001FC1CE3AD10509F41EC1CF3AD10509F4E0
:100AA0001DC1C13BD10509F41CC1C23BD10509F4EC
:100AB0001BC1C33BD10509F41AC1C43BD10509F4DC
:100AC00019C1C53BD10509F418C1C63BD10509F4CC
:100AD00017C1C73BD10509F416C1C83BD10509F4BC
:100AE00015C1C93BD10509F414C1CA3BD10509F4AC
:100AF00013C1C0E0D4E40CC0CF3FD10509F060F4CD
:100B0000C03FD10508F086C0C83ED10508F097CF98
:100B1000CE01DF91CF910895C11520E2D207C0F335
:100B2000CE019F7068C0C11584E5D807A0F5C11536
:100B300023E5D20708F091C0C11581E5D80708F573
:100B4000C11520E5D20708F471C0CE0154E0969596
:100B500087955A95E1F783709C2F937021E030E0E0
:100B600002C0220F331F9A95E2F73C68382BC695D6
:100B7000C695C37080E2C89FE0011124C22BD32B1D
:100B8000C7CFC11582E5D80708F053C0DC2FCC27AA
:100B9000C16FD06ABDCFC11526E5D20758F49C2F8E
:100BA0008827C115D54508F46CC0EC01CC27DF714E
:100BB000D062AECFC11588E5D80708F440CFC11583
:100BC00029E5D20708F461C0CE0190568115904204
:100BD00008F035CF8D2F8F710E941007DD27D0626E
:100BE00090E0982F882788279F71C82BD92B90CF0A
:100BF000CE01805C91090E94EF04EC0189CFC53AD7
:100C0000D10509F447C0C63AD10509F046C0C2E88B
:100C1000D0E47ECFD0657CCFCE019927D3FF03C02F
:100C2000EC01D86C75CFEC01D06C72CFDF70D06A5C
:100C30006FCFCE018370992721E030E002C0220FF0
:100C4000331F8A95E2F7C695C69580E2C89FE001FA
:100C50001124C22BD32BDC685BCFCE018370992784
:100C600021E030E002C0220F331F8A95E2F7C695DB
:100C7000C69580E2C89FE0011124C22BD32BDA680D
:100C800047CFEC01C46FD06A43CFDC2FCC27C06FB5
:100C9000D06A3ECFC1E8D0E43BCFC3E8D0E438CF40
:100CA000C2EED4E435CFC9EED4E432CFCAEED4E4F8
:100CB0002FCFC5EBD4E42CCFC6EBD4E429CFC3EBC4
:100CC000D4E426CFC4EBD4E423CFC7EBD4E420CFC5
:100CD000CCECD4E41DCFCDECD4E41ACFC3E8D5E4FA
:100CE00017CFCAE8D5E414CFC2E9D5E411CFC4E9DF
:100CF000D5E40ECFC1E2D6E40BCFC3E2D6E408CFF1
:100D0000C4E2D6E405CFC5E2D6E402CFC6E2D6E41B
:100D1000FFCEC7E2D6E4FCCECAE2D6E4F9CE8238F2
:100D2000910549F1B0F48133910509F45AC048F4B2
:100D30008932910509F450C08A32910509F456C0F0
:100D400008958533910509F442C08933910599F0DE
:100D50000895833E910521F138F4803E910581F09C
:100D6000823E9105A1F00895863E910501F1873EEE
:100D7000910531F108952091DA012370E1F508958C
:100D80002091DA0120FF12C089E390E008952091BC
:100D9000DA0122FF0BC024FF31C080E090E008950B
:100DA0002091DA0122FD2DC024FDF7CF0895209176
:100DB000DA0123FFFBCF24FDF0CF87EE90E008950A
:100DC0002091DA0123FFF0CF86EE90E00895209184
:100DD000DA0125FD19C008952091DA0125FD17C01B
:100DE00008952091DA0126FD15C008952091DA01B9
:100DF00026FD13C0089580EE90E0089583EE90E004
:100E0000089582EE90E0089589E290E0089585E3E8
:100E100090E008958AE290E0089581E390E0C6CFE3
:100E2000CF93C82F0E94F21290E09093DB01809341
:100E3000DA0182FF06C09C2F9871983079F4C77F41
:100E4000C46083FF06C09C2F9871983171F4C77EEF
:100E5000C46184FDC77E8C2FCF9108959C2F94711F
:100E6000943079F7CB7FC860ECCF9C2F947194318C
:100E700081F7CB7EC861EDCF08950F931F93CF9379
:100E80008C01FB018281811106C0C1E08C2FCF91C2
:100E90001F910F910895C0914A01C11125C00631DB
:100EA0001C4599F70E943C0781E080934A010E940B
:100EB000A913909349018093480110923D0110922B
:100EC0003F0110923E011092410110924001109298
:100ED0004301109242011092450110924401109278
:100EE000470110924601D2CF80914801909149016B
:100EF0000E94B513883C910540F680913D01E82F92
:100F0000F0E0EE0FFF1FE25CFE4F118300838F5F66
:100F100080933D01C0E0BACF08950C948C0785B74B
:100F2000806885BF85B7806885BFA2E2B1E061E0D7
:100F300070E08D91E82FE295EF70F0E041A18F70A5
:100F40009B0101C0220F8A95EAF7922F9095942376
:100F500091A382A1822B82A381E0A732B80749F72F
:100F6000A3E1B1E061E070E08D91E82FE295EF70D0
:100F7000F0E041A18F709B0101C0220F8A95EAF732
:100F8000922F9095942391A382A1822B82A381E03A
:100F9000A232B80749F7E5E5F1E0ABE4B1E08FE54F
:100FA00091E0119211921D921D928E179F07C9F721
:100FB0000C94D4044F925F927F928F929F92AF9243
:100FC000BF92CF92DF92EF92FF920F931F93CF9336
:100FD000DF930BE411E092E2C92E91E0D92EE801F3
:100FE000EE24E394F12C99249394A880B98019827B
:100FF0001882D6018D916D01E82FE295EF70F0E037
:1010000091A18F70970101C0220F8A95EAF7892F6D
:10101000822B81A382A1822E8094882182A3B0EAB0
:10102000BA95F1F783E1482E81E0582E80E090E0F8
:10103000D2017D912D01472F42954F7050E0DA018A
:1010400090967C90488159817F70D70102C0AA0F89
:10105000BB1F7A95E2F7BD01672109F055C0B701C2
:10106000082E02C0660F771F0A94E2F7462B572B13
:101070005983488301968F309105D1F681A188224A
:1010800081A282A1282B22A388819981A816B90662
:1010900041F090925F010E94A913909361018093A7
:1010A00060012296B1E0C535DB0709F09ECF809143
:1010B0005F018823B1F080916001909161010E94ED
:1010C000B513069770F0E5E5F1E0D8018D919D919B
:1010D0008D0181939193B1E005351B07B1F7109213
:1010E0005F010E94D60481E0DF91CF911F910F91A3
:1010F000FF90EF90DF90CF90BF90AF909F908F9038
:101100007F905F904F90089560E070E0AFCFE82F40
:10111000F0E0EE0FFF1FEB5AFE4F808191810895A2
:10112000089590936701809366010895E0916601A8
:10113000F0916701309721F00190F081E02D099442
:1011400080E00895E0916601F0916701309721F009
:101150000280F381E02D09940895E0916601F091F9
:101160006701309721F00480F581E02D09940895FE
:1011700020916401309165012817390771F090932F
:10118000650180936401E0916601F09167013097F9
:1011900021F00680F781E02D0994089520916201E5
:1011A000309163012817390771F0909363018093A0
:1011B0006201E0916601F0916701309721F00084AF
:1011C000F185E02D0994089508950C94E40881E0D8
:1011D00008950E94A0130E948F070C9474145F92CC
:1011E0006F927F928F929F92AF92BF92CF92DF9237
:1011F000EF92FF920F931F93CF93DF93CDB7DEB79C
:101200002A970FB6F894DEBF0FBECDBF0E94DA0753
:101210000E94E708811134C08FEF89838A831B8283
:101220000E94A9138160782F9D838C8349815A8104
:101230006B818D810E94AC090E9414170E94960850
:1012400090916801891709F471C00E9496088093F3
:1012500068012A960FB6F894DEBF0FBECDBFDF91AE
:10126000CF911F910F91FF90EF90DF90CF90BF90A3
:10127000AF909F908F907F906F905F900C94D90467
:1012800099E6A92E91E0B92E00E010E0882483941D
:10129000912C502E802F0E9487087C01F501C1906F
:1012A000D1905F018C159D0531F40F5F1F4F053004
:1012B000110579F7B1CF8091BE0181FD0E949008A0
:1012C00080E090E0CE24DF243401082E02C0660CBA
:1012D000771C0A94E2F7960126213721232B09F186
:1012E0008E835F82E620F72081E0EF2809F480E01A
:1012F00088870E94A9138160782F9A8789874E81F9
:101300005F8168858A850E94AC09000F111FF80172
:10131000E759FE4F8081918168267926718260822B
:101320008BCF01968F30910579F6BFCF2A960FB6F5
:10133000F894DEBF0FBECDBFDF91CF911F910F910B
:10134000FF90EF90DF90CF90BF90AF909F908F90E5
:101350007F906F905F900895CF93DF93CDB7DEB706
:101360002B970FB6F894DEBF0FBECDBF4F835887C3
:1013700069877A878B87DE01119686E0FD011192DD
:101380008A95E9F785E0FE01379601900D928A95DE
:10139000E1F749815A816B817C818D819E810E9418
:1013A00069102B960FB6F894DEBF0FBECDBFDF914C
:1013B000CF910895882309F408C18238F9F40E9476
:1013C000960881FD02C169E38091000190910101BD
:1013D0000E9421130E9474122FEF81EE94E021509D
:1013E00080409040E1F700C0000069E38091000177
:1013F000909101010E9423130C9474128338C1F45C
:101400000E94960880FDE1C063E580910001909103
:1014100001010E9421130E9474122FEF81EE94E0CB
:10142000215080409040E1F700C0000063E5DECF2E
:101430008438C1F40E94960882FDC7C067E4809199
:101440000001909101010E9421130E9474122FEF5C
:1014500081EE94E0215080409040E1F700C0000010
:1014600067E4C4CF9CEF980F913A40F4682F8091C5
:101470000001909101010E942113BECF90E2980FCC
:10148000983050F4877091E001C0990F8A95EAF77F
:10149000892F0E949612B0CF9BE5980F933070F47D
:1014A000853A31F0863A39F083E890E00C94B80838
:1014B00081E890E0FBCF82E890E0F8CF98E5980FC4
:1014C000953108F082C0883A09F440C0893A09F49D
:1014D00040C08A3A09F440C08B3A09F440C08C3AC3
:1014E00009F440C08B3B09F440C08C3B09F440C078
:1014F0008D3A09F440C0803B09F440C08E3A09F4AB
:1015000040C08F3A09F440C0813B09F440C0823B9F
:1015100009F440C0833B09F440C0843B09F440C057
:10152000853B09F440C0863B09F440C0873B09F481
:1015300040C0883B09F440C0893B09F440C08A3B65
:1015400009F440C080E090E00C94CE0882EE90E078
:10155000FBCF89EE90E0F8CF8AEE90E0F5CF85EBF7
:1015600090E0F2CF86EB90E0EFCF83EB90E0ECCF12
:1015700084EB90E0E9CF87EB90E0E6CF8CEC90E055
:10158000E3CF8DEC90E0E0CF83E891E0DDCF8AE817
:1015900091E0DACF82E991E0D7CF84E991E0D4CF2E
:1015A00081E292E0D1CF83E292E0CECF84E292E07A
:1015B000CBCF85E292E0C8CF86E292E0C5CF87E24A
:1015C00092E0C2CF8AE292E0BFCF0895882309F467
:1015D0005DC08238B1F40E94960881FF57C069E36C
:1015E00080910001909101010E9421130E947412C8
:1015F00069E380910001909101010E9423130C94F2
:101600007412833879F40E94960880FF3FC063E526
:1016100080910001909101010E9421130E94741297
:1016200063E5E7CF843879F40E94960882FF2EC0E4
:1016300067E480910001909101010E9421130E94B2
:10164000741267E4D6CF9CEF980F913A10F4682F8C
:10165000D0CF90E2980F983050F4877091E001C09D
:10166000990F8A95EAF7892F0E949C12C8CF9BE5B3
:10167000980F933020F480E090E00C94B808885ADA
:10168000853120F480E090E00C94CE080895882302
:1016900021F00E9496120C9474120895882321F070
:1016A0000E949C120C9474120895CF92DF92EF92D4
:1016B000FF920F931F93CF93DF937C01D62FC72FF9
:1016C000FC01058102950F70128111110E94B51263
:1016D000DC2ED2948FE0D8228D2D90E08C309105B5
:1016E00008F03FC0FC01E958F44F0C94B71E830B7F
:1016F000830BC90BC90BF00B1C0CB10BB10B650CA8
:10170000B10B0A0D0A0D8C2F807FCF70882311F04A
:10171000C295C07F1123A9F0CC2359F080E28D0F30
:10172000883010F0D11109C08C2F0E9496120E94AF
:1017300074128D2F0E94DA0914C08C2F0E94A712F8
:10174000F6CF8D2F0E94E60ACC2359F080E28D0F50
:10175000883010F0D11119C08C2F0E949C120E9469
:10176000741298E0D91609F4E9C0D91628F086EF6A
:101770008D0D823008F4E2C0DF91CF911F910F915F
:10178000FF90EF90DF90CF9008958C2F0E94AD12C4
:10179000E6CF9C2F907F8C2F8F70903211F0829526
:1017A000807FD13061F4112329F00630D0F60E94F9
:1017B000470BD7CF0530A8F60E944E0BD2CF11238E
:1017C00049F00023A1F3F701958190FFB2CF9F70FC
:1017D0009583EDCF002381F38D2F0E94E60AC1CFC0
:1017E0008C2F86958695837091F0813009F0B9CF62
:1017F0001123F9F08D2F9C2F9370DF91CF911F91C2
:101800000F91FF90EF90DF90CF900C94CE081123B2
:1018100069F08D2F9C2F9370DF91CF911F910F91C5
:10182000FF90EF90DF90CF900C94B80880E090E0AC
:10183000F3CF80E090E0E1CF112341F1D53FD1F02B
:10184000D63FF1F0D43F49F48091D4019091D50175
:1018500081609093D5018093D4018D2F0E941D1635
:10186000DF91CF911F910F91FF90EF90DF90CF907C
:101870000C9409178091D4019091D5018260E9CF31
:101880008091D4019091D5018460E3CFD53F89F058
:10189000D63FA9F0D43F49F48091D4019091D5016D
:1018A0008E7F9093D5018093D4018D2F0E94851651
:1018B000D7CF8091D4019091D5018D7FF2CF8091C7
:1018C000D4019091D5018B7FECCF8C2F837009F0E0
:1018D00053C0111133C02D2F229526952770220F4A
:1018E000220F6D2F6F70C62ED12CE12CF12C022E01
:1018F00004C0CC0CDD1CEE1CFF1C0A94D2F7D4FFF4
:1019000029C06FE070E080E090E004C0660F771FB0
:10191000881F991F2A95D2F76095709580959095AC
:10192000C695C695C370C230C9F0F8F46C297D29FC
:101930008E299F29C130E9F00E943B110E94960830
:10194000DF91CF911F910F91FF90EF90DF90CF909B
:101950000C94D90460E070E0CB01E2CF6C297D29C2
:101960008E299F290E944D11E9CF0E943B11C7018A
:10197000B6010E942911E2CF1123C1F18C2F817091
:101980008823E1F22D2F229526952770220F220F12
:101990006D2F6F70C62ED12CE12CF12C022E04C0BD
:1019A000CC0CDD1CEE1CFF1C0A94D2F7D4FF20C027
:1019B0006FE070E080E090E004C0660F771F881F42
:1019C000991F2A95D2F76095709580959095C69548
:1019D000C695C370C23081F0B0F46C297D298E2980
:1019E0009F29C130A1F00E94FE11A8CF8695C8CFD3
:1019F00060E070E0CB01EBCF6C297D298E299F2917
:101A00000E9410129BCF0E94FE11C701B6010E94D6
:101A1000EC1194CFD03F09F138F4D03E88F4112373
:101A2000D9F1002351F185CED23F61F120F1D33FAE
:101A3000B1F7112371F18C2F8F710E94721191CE29
:101A4000DF708C2F8F71112321F00E9487118D2F51
:101A5000AECE0E94A8118D2FAFCE112341F00530DC
:101A600008F07FCE8C2F8F710E94CB117ACE06307A
:101A700008F077CEF7CF112339F08C2F8F710E94A9
:101A800087116FCE1123C9F38C2F8F710E94A8117B
:101A900068CE0E946D1165CE0023B1F3D93309F0F1
:101AA0009BCEFFEF27EE83E0F15020408040E1F72E
:101AB00000C0000091CE0F931F93CF93DF93EC01F2
:101AC000988189812B813C81232B39F08F3F19F438
:101AD00081E09F3F19F080E001C081E080FD13C0EC
:101AE000CE010E947103882371F0688179818A8117
:101AF0000E9470128C010E9422120E941711B801DC
:101B0000CE010E94550BDF91CF911F910F91089547
:101B10000E94B5120E94B8128091000190910101BB
:101B20000E9425130E9474120E94A0170E94091798
:101B300080E090E00E94B80880E090E00C94CE082D
:101B40000E94A4120C94880D0E946512E92FE29560
:101B5000EF704E2F50E0FA013297EE30F105D8F4D5
:101B6000EC54F24F0C94B71EC20DC20DCB0DCB0D31
:101B7000CD0DCB0DCB0DCB0DC20DC20DD20DCB0DAE
:101B8000CB0DD20D803F19F020F4803E20F481E08F
:101B90000895843FE1F380E00895803EC0F3813FE3
:101BA000D1F7F5CF93FB882780F90895CF93DF9382
:101BB00000D000D01F92CDB7DEB70F900F900F90DE
:101BC0000F900F90DF91CF910895CF93DF9300D0C6
:101BD00000D000D0CDB7DEB726960FB6F894DEBFA2
:101BE0000FBECDBFDF91CF9108951F93CF93DF93A9
:101BF000C091730116E080917401C81304C0DF9195
:101C0000CF911F910895D0E01C9FF0011D9FF00D12
:101C10001124EB58FE4F4081518162817381848190
:101C200095810E94E50D2196C770E5CF4091A501F1
:101C30005091A6016091A7017091A8018091A9011E
:101C40009091AA010C94E50D1F93CF93DF9380919F
:101C5000AA0182958F70D1F48091A7018823B1F0F9
:101C600080917301D0917401B091A501C091A6013A
:101C70004091A8015091A901A1E0BF3F09F0A0E067
:101C8000BA016095709516E08D1304C0DF91CF9175
:101C90001F91089541155105D9F1CF3FD9F120E0A9
:101CA00090E020FD3CC0189FF001199FF00D112419
:101CB000EB58FE4F21812C1332C020812B132FC0F3
:101CC000228121112CC0238134812417350720F172
:101CD000241B350B283C310510F52091AA012F70EB
:101CE00020612093AA0126E0289FF001299FF00D92
:101CF0001124E658FE4F80818F708061808385EAD1
:101D000091E00E945B0DDF91CF911F910C94F50D36
:101D100021E0C6CF2A2FC4CF260F371FDBCF019675
:101D20008770B2CFAF92BF92CF92DF92EF92FF92C5
:101D30000F931F93CF93DF93CDB7DEB761970FB6A5
:101D4000F894DEBF0FBECDBF8C0185E0F801DE0147
:101D50001D9601900D928A95E1F7D8014C9111964C
:101D60005C9111971296EC903091A5016091A601BB
:101D70008091A8019091A901009739F06F3F19F463
:101D800021E03F3F19F020E001C021E0B22FB17007
:101D9000BB2E20FD90C1F801C380D480A090A70184
:101DA000AA2009F432C12091AA01C816D90610F15F
:101DB000D601A81BB90BCD01FF24F394883C9105F3
:101DC000F0F0F12C207F09F0E9C07C2DD98AC88A77
:101DD0006E2D89890E94D60D85EA91E00E945B0DE7
:101DE000E5EAF1E086E0DF011D928A95E9F70E94BD
:101DF000160E1EC0809590958C0D9D1DDDCF822FF7
:101E0000807F09F084C0651325C0341323C0FE2CE5
:101E1000E11020C02F7020612093AA010E94160EAD
:101E200085EA91E00E945B0D8091AA01F80185830B
:101E30008F2D61960FB6F894DEBF0FBECDBFDF9138
:101E4000CF911F910F91FF90EF90DF90CF90BF90B7
:101E5000AF900895CD2839F05F3F19F481E04F3FEE
:101E600019F080E001C081E080FD24C081E08E2572
:101E7000F82FF170FF2E80FF3FC0809173012091F9
:101E8000740136E0821318C04D875E878D859E856C
:101E90000E946512292F22952F70223008F12430DC
:101EA00030F59F7009F1D80115969C91907FE1F46F
:101EB000FB2CBECF80E0DCCF90E0389FF001399F53
:101EC000F00D1124EB58FE4F6181561306C060815E
:101ED000641303C06281E6120FC001968770D2CFEF
:101EE0009F7011F0882321F3805E883008F3C801C9
:101EF0000E945B0DBF2CDCCFFE2CEE2009F498CFA6
:101F00008091AA0181608093AA01F12C91CF651381
:101F100014C0341312C0E11010C08091AA01F8015E
:101F20008583C8010E945B0D86E0F801A5EAB1E057
:101F300001900D928A95E1F75ACF4D875E878D8586
:101F40009E850E94A40D882309F4BFC0EE2009F4E9
:101F5000BCC02091AA01822F82958F7090E00297D9
:101F600074F08091A5019091A60198878F831986BE
:101F7000DB86CA862C87CE0107960E945B0D86E021
:101F8000F801A5EAB1E001900D928A95E1F70E946F
:101F9000240E0E94160EFF24F3944ACF651314C03A
:101FA000341312C0E11010C08091AA01F80185839A
:101FB000C8010E945B0D86E0E5EAF1E0DF011D92B9
:101FC0008A95E9F7FA2C34CF4D875E878D859E85FB
:101FD0000E94A40D882309F478C0EE2009F475C08E
:101FE0002091AA01822F82958F7090E002973CF297
:101FF0008091A5019091A6019A8389831B82DD823D
:10200000CC822E83CE010196B8CFC816D90680F0B7
:10201000F601E81BF90BCF01883C910570F0F12C1B
:102020007C2DD98AC88A6E2D89890E94D60DD8CE7A
:10203000809590958C0D9D1DEFCFFE2CEE2009F420
:1020400044C0651327C0341325C08091AA0180FDC8
:1020500018C0982F92959F70292F30E021153105D7
:1020600081F0D80115968C9315972F30310509F41E
:1020700058CF9F5F9295907F8F70892B15968C9388
:1020800050CF86E0F801A5EAB1E001900D928A9563
:10209000E1F7CECE4D875E878D859E850E94A40D8B
:1020A00081116DCF8091AA0181608093AA01C8013E
:1020B0000E945B0DBDCEEE2041F04D875E878D8581
:1020C0009E850E94A40D81115ACFC8010E945B0D0C
:1020D00062CF1F93CF93DF93CDB7DEB72C970FB6A8
:1020E000F894DEBF0FBECDBF4F83588769877A87CC
:1020F0008B879C87CE0107960E94920E882349F118
:102100009F8188852A853B85232B39F08F3F19F4E1
:1021100081E09F3F19F080E001C081E080FD08C0B0
:102120004F81588569857A858B859C850E94E50D50
:1021300016E08091730190917401891348C02C9628
:102140000FB6F894DEBF0FBECDBFDF91CF911F91C8
:10215000089586E0FE013796DE01119601900D92FA
:102160008A95E1F7FF81E8856A857B8561157105B0
:1021700039F0EF3F19F481E0FF3F19F080E001C032
:1021800081E080FDD5CF2091740130E0C901019636
:10219000877099274091730150E084179507C9F122
:1021A000F983EA837D836C8396E0929FD001939FAD
:1021B000B00D1124AB58BE4FFE01319601900D9227
:1021C0009A95E1F7809374010E94F50DB1CF819F3C
:1021D000C00111248B589E4F0E94920E882309F44F
:1021E000AECFE09173011E9FF0011124EB58FE4F1A
:1021F0004081518162817381848195810E94E50DC6
:102200008091730190E00196877099278093730104
:1022100090CF0E94A00D1092740110927301E5EA14
:10222000F1E086E0DF011D928A95E9F788CF0895F5
:1022300008950C9418110E9419116093AF017093C6
:10224000B0018093B1019093B2010C94880D0C946D
:102250001B110F931F930091AF011091B0012091BA
:10226000B1013091B201602B712B822B932B1F9106
:102270000F910C941B110F931F930091AF011091BC
:10228000B0012091B1013091B2016023712382230A
:1022900093231F910F910C941B110F931F93009187
:1022A000AF011091B0012091B1013091B2016027CE
:1022B0007127822793271F910F910C941B110C9467
:1022C00018110E945F116093AB017093AC01809371
:1022D000AD019093AE010C94880D60E070E0CB01ED
:1022E0000C9461110F931F9341E050E060E070E0A7
:1022F0008A019B0104C0000F111F221F331F8A9502
:10230000D2F7C901B8011F910F910C9461110F937D
:102310001F9341E050E060E070E004C0440F551F9F
:10232000661F771F8A95D2F78091AB019091AC011F
:10233000A091AD01B091AE018A019B01082B192B30
:102340002A2B3B2BC901B8011F910F910C946111ED
:102350000F931F9341E050E060E070E004C0440F31
:10236000551F661F771F8A95D2F7CB01BA0160957A
:102370007095809590950091AB011091AC012091E2
:10238000AD013091AE0160237123822393231F910D
:102390000F910C9461110F931F9341E050E060E0A6
:1023A00070E004C0440F551F661F771F8A95D2F74F
:1023B0008091AB019091AC01A091AD01B091AE01C3
:1023C0008A019B01082719272A273B27C901B80141
:1023D0001F910F910C9461110F931F930091AB010A
:1023E0001091AC012091AD013091AE01602B712BA9
:1023F000822B932B1F910F910C9461110F931F93BC
:102400000091AB011091AC012091AD013091AE0172
:1024100060237123822393231F910F910C946111E8
:102420000F931F930091AB011091AC012091AD016E
:102430003091AE0160277127822793271F910F915A
:102440000C9461110895BF92CF92DF92EF92FF92A8
:102450000F931F93CF93DF938C01C090AB01D0906B
:10246000AC01E090AD01F090AE018091AF01909190
:10247000B001A091B101B091B201C82AD92AEA2ACB
:10248000FB2ACFE1D0E0BC2ED701C6010C2E04C040
:10249000B695A795979587950A94D2F780FD0EC0BB
:1024A000219788F7B12C8B2DDF91CF911F910F9140
:1024B000FF90EF90DF90CF90BF900895B8018C2FE0
:1024C0000E94F704019761F3EECFCF93DF93EC0105
:1024D0000E942312BE010E94F704DF91CF9108955C
:1024E000CB010E9465120895E0910001F091010175
:1024F0008091BD018083E0910001F0910101808114
:102500009091BC01892B8083E0910001F091010141
:1025100080819091BB01892B8083809100019091F3
:1025200001010C94A2088091BD0108959091BD0114
:10253000892B8093BD010895982F90958091BD01BE
:1025400089238093BD0108951092BD010895909153
:10255000BC01892B8093BC010895982F90958091A0
:10256000BC0189238093BC0108951092BC01089599
:102570001092BB0108956DEE7EEF80E090E00E9426
:10258000F11E60E082E090E00E94DF1E60E083E0E8
:1025900090E00E94DF1E60E084E090E00E94DF1E79
:1025A00060E085E090E00C94DF1E80E090E00E9407
:1025B000D91E21E08D3E9E4F09F020E0822F089524
:1025C00082E090E00C94D11E682F82E090E00C94A1
:1025D000DF1E83E090E00C94D11E682F83E090E032
:1025E0000C94DF1E84E090E00C94D11E682F84E0F0
:1025F00090E00C94DF1E9C01FC0132969FEF80E07E
:102600004191461751F09F3F19F4411101C0982F95
:102610008F5F8630A9F79F3F09F40895290F311D78
:1026200097FD3A95F90162830895FC013296089668
:102630002081261301C010823196E817F907C1F7EF
:1026400008950C94FB120C941513FC013196089616
:102650001192E817F907E1F708958091E0018430BD
:1026600039F11092BF0120E488E190E00FB6F894B0
:10267000A895809360000FBE2093600080E00E94C8
:10268000D90483B7817F846083BF83B7816083BFB0
:102690007894889583B78E7F83BF0FB6F894A895FA
:1026A00080916000886180936000109260000FBE8E
:1026B000089508950C945913CF930E945A130E94C1
:1026C000DA070E945913C0E08C2F0E948708892BDB
:1026D00031F4CF5FC530C1F780E0CF91089581E03C
:1026E000FCCF0E94A00D0E9496080C94D9041F9262
:1026F0000F920FB60F9211248F939F93AF93BF93B6
:102700008091BF01811113C08091D6019091D701B2
:10271000A091D801B091D9014196A11DB11D80931E
:10272000D6019093D701A093D801B093D901BF915E
:10273000AF919F918F910F900FBE0F901F901895A2
:1027400082E084BD93E095BD9AEF97BD80936E00C3
:1027500008952FB7F8948091D6019091D701A09158
:10276000D801B091D9012FBF0895CF92DF92EF9297
:10277000FF920F931F932FB7F8944091D601509179
:10278000D7016091D8017091D9012FBF6A017B01F7
:10279000EE24FF248C0120E030E0C016D106E206D2
:1027A000F30650F0481B590BCA011F910F91FF907F
:1027B000EF90DF90CF90089541505109F3CF789476
:1027C0001F920F920FB60F9211248F939F93AF9386
:1027D000BF938091D6019091D701A091D801B0917B
:1027E000D9010196A11DB11D8093D6019093D70107
:1027F000A093D801B093D901BF91AF919F918F91D0
:102800000F900FBE0F901F90189581E08093E0000D
:1028100080E28093D8001092C9008FE19EE4019776
:10282000F1F700C0000087E090EBDC018093E90144
:102830009093EA01A093EB01B093EC019CE088E156
:102840000FB6F894A895809360000FBE9093600037
:10285000FFCFAF92BF92CF92DF92EF92FF920F9392
:102860001F93CF93C0E0CC24C394D12CE82EF12C3D
:102870008C2F0E9487085C0100E010E0C601002E4A
:1028800002C0880F991F0A94E2F78A219B21892BA5
:1028900099F40F5F1F4F0F30110581F7CF5FC530DF
:1028A00039F780E0CF911F910F91FF90EF90DF906B
:1028B000CF90BF90AF900895602F7C2F80E00E9452
:1028C000DB04E816F90629F781E0ECCFCF93C82F97
:1028D0008CE20E942914882321F08C2FCF910C9434
:1028E000291480E0CF910895CF930E94D5128111D1
:1028F00002C00E94BB12C5E6C15009F0E9C089E2DE
:102900000E946614811118C18AE20E946614811126
:102910000E94BB1285E00E94661481110E9405147A
:102920000E94E0128093BE0187E00E946614882313
:1029300089F08BE10E946614882309F4D2C080914B
:10294000BE0181FB992790F921E0922790FB81F944
:102950008093BE018091BE010E94E4120E94F21297
:1029600090E09093DB018093DA0180EE0E94661480
:10297000882341F08091DA01982F909590FB80F99F
:102980008093DA0189E30E946614882359F08091CC
:10299000DA0181FB992790F921E0922790FB81F9D8
:1029A0008093DA0182EE0E946614882359F08091A8
:1029B000DA0182FB992790F921E0922790FB82F9B6
:1029C0008093DA0186EE0E946614882359F0809184
:1029D000DA0183FB992790F921E0922790FB83F994
:1029E0008093DA0183EE0E946614882359F0809167
:1029F000DA0184FB992790F921E0922790FB84F972
:102A00008093DA0185E30E946614882359F080914F
:102A1000DA0185FB992790F921E0922790FB85F94F
:102A20008093DA0181E30E946614882359F0809133
:102A3000DA0186FB992790F921E0922790FB86F92D
:102A40008093DA0181E10E946614882359F0809115
:102A5000DA0187FB992790F921E0922790FB87F90B
:102A60008093DA018091DA010E94F61287E20E94D7
:102A70006614C82F8EE10E9466148111C2608FE136
:102A80000E9466148111C46080E20E946614811164
:102A9000C86081E20E9466148111C06182E20E94D6
:102AA00066148111C06283E20E9466148111C064C1
:102AB00084E20E9466148823C9F1C0688C2F0E94AA
:102AC000ED126C2F70E080E090E0CF910C94271114
:102AD0000E94DA078FE39CE90197F1F700C000003C
:102AE0000BCF8EE00E946614882351F08091BE01C6
:102AF00082FB992790F921E0922790FB82F928CF59
:102B000080E10E9466149091BE01882351F093FBEE
:102B1000882780F921E0822780FB93F99093BE01FA
:102B200019CF892F809580FB90F9F8CFC111C6CFBE
:102B30000E94E912682FC6CFCF9108958091C201FB
:102B400080FF12C06091050185E0689FB0011124EB
:102B5000759567957595679560387105A8F5611548
:102B6000710581F581E0089581FF09C0609105013B
:102B700085E0689FB001112475956795EDCF82FFC0
:102B800007C06091050185E0689FB0011124E4CF82
:102B90009091C3019923A1F060910401961788F7E1
:102BA0002091050185E0289F90011124929FA001AA
:102BB000939F500D112470E0CA010E94A31ECCCF38
:102BC00065E070E0862F08958FE708958091C20137
:102BD00080FF0CC06091030170E075956795759555
:102BE00067956115710539F581E0089581FF06C08B
:102BF0006091030170E075956795F3CF82FF08C07F
:102C00006091030170E06038710558F38FE7089513
:102C10008091C301882369F060910201861780F7D3
:102C200090910301899FC001112470E00E94A31EAE
:102C3000EACF61E070E0862F0895803F31F40E9472
:102C40009E1581958093C6010895813F19F40E94D5
:102C50009E15F8CF823F31F40E949E158195809396
:102C6000C5010895833F19F40E949E15F8CF893F4E
:102C700029F40E94E6158093C70108958A3F21F444
:102C80000E94E6158195F7CF8B3F31F40E94E6153F
:102C900081958093C80108958C3F19F40E94E61530
:102CA000F8CF843F31F48091C40181608093C401E6
:102CB0000895853F21F48091C4018260F7CF863F5B
:102CC00021F48091C4018460F1CF873F21F4809189
:102CD000C4018860EBCF883F21F48091C4018061FA
:102CE000E5CF8D3F31F48091C20181608093C201B4
:102CF00008958E3F21F48091C2018260F7CF8F3F0B
:102D0000B9F78091C2018460F1CF803FC1F4809116
:102D1000C60187FD1092C6018091C50181110EC0C8
:102D20008091C60181110AC08091C701811106C03E
:102D30008091C801811102C01092C3010895813FA2
:102D400029F48091C60118162CF3E6CF9091C501A5
:102D5000823F29F497FFE0CF1092C501DDCF833F7A
:102D600019F41916CCF3D8CF893F39F48091C701F3
:102D7000181694F61092C701CFCF8A3F29F480919C
:102D8000C70187FFC9CFF6CF8B3F39F48091C801C7
:102D900087FFC2CF1092C801BFCF8C3F29F480912A
:102DA000C8011816BCF3B8CF843F31F48091C40138
:102DB0008E7F8093C401B0CF853F21F48091C40100
:102DC0008D7FF7CF863F21F48091C4018B7FF1CFB7
:102DD000873F21F48091C401877FEBCF883F21F4A6
:102DE0008091C4018F7EE5CF8D3F31F48091C20187
:102DF0008E7F8093C20190CF8E3F21F48091C201DB
:102E00008D7FF7CF8F3F09F087CF8091C2018B7FF5
:102E1000F0CF84EC91E00E94AD080E94A91390933A
:102E2000C1018093C00108951F93CF93DF938091D8
:102E3000C0019091C1010E94B513AC019091C301F2
:102E40009923D1F02091060130E04217530780F01A
:102E50008091C501C091C601D091C7011091C801F0
:102E6000811111C0C11168C0D11166C0111164C0B7
:102E7000DF91CF911F910895209107018AE0289F4B
:102E800090011124E2CF9F3F19F09F5F9093C301FF
:102E9000181624F40E949E158093C5018091C501E7
:102EA00087FF05C00E949E1581958093C5011C1661
:102EB00024F40E949E158093C6018091C60187FF6D
:102EC00005C00E949E1581958093C6014091C50161
:102ED000442379F03091C601332359F025EB4203A6
:102EE000A00111245093C5013203900111243093A5
:102EF000C6011D1624F40E94E6158093C701809137
:102F0000C70187FF05C00E94E61581958093C70120
:102F1000111624F40E94E6158093C8018091C8011F
:102F200087FF05C00E94E61581958093C801DF9157
:102F3000CF911F910C9409179F3F09F0A6CFB7CFEF
:102F4000E4ECF1E085E0DF011D928A95E9F710924B
:102F5000C3011092C20108958091D10108950F9389
:102F60001F93CF93DF9300D01F92CDB7DEB78C01B4
:102F70000E94F419823011F0843019F583E08983BE
:102F80001B830A838093E9008FEF9091E8008150C2
:102F900095FD06C095ED9A95F1F700008111F5CFEA
:102FA0008091E80085FF0DC040E050E063E070E0F4
:102FB000CE0101960E94111A8091E8008E778093CD
:102FC000E8000F900F900F90DF91CF911F910F911C
:102FD0000895CF93DF9300D01F92CDB7DEB7209135
:102FE000E001243031F522E02983805891099B8348
:102FF0008A8383E08093E9008FEF9091E80081500D
:1030000095FD06C095ED9A95F1F700008111F5CF79
:103010008091E80085FF0DC040E050E063E070E083
:10302000CE0101960E94111A8091E8008E7780935C
:10303000E8000F900F900F90DF91CF910895CF93FC
:10304000DF93EC010E94F419823011F08430F9F41E
:1030500082E08093E9008FEF9091E800815095FD28
:1030600006C095ED9A95F1F700008111F5CF80919A
:10307000E80085FF0CC040E050E065E070E0CE0164
:103080000E94111A8091E8008E778093E800DF910A
:10309000CF910895CF93DF93EC010E94F419823011
:1030A00011F0843039F581E08093E9008FEF909141
:1030B000E800815095FD06C095ED9A95F1F7000066
:1030C0008111F5CF8091E80085FF14C040E050E009
:1030D00068E070E0CE010E94111A8091E8008E77BE
:1030E0008093E80088E0FE01A9ECB1E001900D9228
:1030F0008A95E1F7DF91CF9108958091DF018111E9
:1031000009C00E949E1B0E94FB1B8091E20084600C
:103110008093E20008951092DF01089508950895C4
:103120000C94711342E061EC81E00E941B1B42E0B1
:1031300061EC82E00E941B1B42E061EC83E00C9496
:103140001B1B8091E201833009F452C030F48130BE
:1031500059F1823009F48EC008958A3009F47AC09A
:103160008B3009F460C0893009F041C08091E101E1
:103170008132E9F58091E5019091E601892BB9F55D
:103180008091E800877F8093E8008091E80082FFCB
:103190002AC08091F1008093D1018091E8008B7763
:1031A0008093E8000C94501B8091E101813AF9F47E
:1031B0008091E800877F8093E8008091E5019091FD
:1031C000E601892B61F468E089EC91E070E00E94EF
:1031D000601A8091E8008B778093E800089560E0A2
:1031E00080E090E0F3CF8091E0018111CECF08958F
:1031F0008091E101813AD9F78091E5019091E60152
:10320000892BA9F78091E800877F8093E80080915F
:10321000E80080FFFCCF809112018093F100809143
:10322000E8008E77BDCF8091E101813201F7809176
:10323000E5019091E601892BD1F68091E800877F26
:103240008093E8000E94501B8091E301809312015B
:103250000C94A00D8091E101813249F68091E80043
:10326000877F8093E8000E94501B8091E401809347
:10327000D20108958091E101813A09F0B8CF80919F
:10328000E800877F8093E8008091E80080FFFCCF12
:103290008091D201C2CF84B7877F84BF0FB6F894E4
:1032A000A895809160008861809360001092600012
:1032B0000FBE80E880936100109261000E94E508D3
:1032C0000E949E1B0E94FB1B8091E2008460809301
:1032D000E20078940E94871E0E94E90888E091E04D
:1032E0000E9491088091E001853019F00E94EF085A
:1032F000F9CF0E942D138091DE01882399F30E945B
:103300005C13882379F30E94FB19ECCF0C94881985
:10331000292F33272330310579F158F42130310535
:10332000F1F02230310519F180E090E020E030E04A
:103330001AC021323105C9F122323105A9F76330B3
:10334000710590F7FB01EE0FFF1FE65DFE4F208138
:103350003181695D7E4FFB01808190E004C082E194
:1033600090E028E435E0FA0131832083089584E574
:1033700090E024EF34E0F7CF99278130910579F080
:1033800040F08230910571F0039771F6E8ECF4E0BB
:1033900002C0E0EFF4E0849190E09F01E4CFECED17
:1033A000F4E0F9CFEEECF4E0F6CF6330710508F00D
:1033B000BBCF660F771FFB01E05DFE4F208131819F
:1033C00089E090E0D0CF0895CF93C82F0E94E319F1
:1033D000C093D301CF9108958091E001843011F022
:1033E00081E0089582E008958091D301811102C0A7
:1033F0000C94EC19089580E189BD82E189BD09B47E
:1034000000FEFDCF8091D8008F7D8093D800809101
:10341000E00082608093E0008091E00081FDFCCFBD
:103420000895AF92BF92DF92EF92FF920F931F9396
:10343000CF93DF93EC018B017A010E946F1BD82E92
:10344000811124C0E114F10439F0F70180819181E8
:10345000081B190BC80FD91FA12CB12C0115110580
:10346000A9F08091E80085FD22C08091E8008E7768
:103470008093E800E114F104A1F0F70180819181CB
:10348000A80EB91EB182A08285E0D82E8D2DDF91C5
:10349000CF911F910F91FF90EF90DF90BF90AF9071
:1034A00008950E946F1B8823C9F2D82EEFCF89910F
:1034B0008093F10001501109FFEFAF1ABF0ACECF80
:1034C0002091E7013091E80126173707A8F0611530
:1034D000710529F42091E8002E772093E800FC0183
:1034E00020E06115710551F4211108C08091E800B8
:1034F00082FF33C080E00895B901F1CF8091E001EF
:103500008823B9F18530B9F18091E80083FD2FC09F
:103510008091E80082FDEACF8091E80080FFE1CF52
:103520002091F3008091F20090E0922B61157105DB
:1035300019F08830910550F021E0089709F020E05B
:103540008091E8008E778093E800CBCF2191209383
:10355000F100615071090196E9CF8091E001882363
:1035600041F0853041F08091E80083FFBFCF81E0DA
:10357000089582E0089583E008952091E701309155
:10358000E80126173707A8F06115710529F4209185
:10359000E8002E772093E800FC0120E0611571051A
:1035A00051F4211108C08091E80082FF34C080E00E
:1035B0000895B901F1CF8091E0018823C1F18530F0
:1035C000C1F18091E80083FD30C08091E80082FD68
:1035D000EACF8091E80080FFE1CF2091F300809155
:1035E000F20090E0922B6115710519F08830910579
:1035F00050F021E0089709F020E08091E8008E77F4
:103600008093E800CBCF24912093F1003196615054
:1036100071090196E8CF8091E001882341F085305F
:1036200041F08091E80083FFBECF81E0089582E001
:10363000089583E00895982F973028F08F70809335
:10364000E90081E008959093E900981751F0709196
:10365000EC002091ED005091F00021FD06C09F5F2D
:10366000EBCF242F762F50E0F8CF3091EB003E7F48
:103670003093EB003091ED003D7F3093ED003091C1
:10368000EB0031603093EB007093EC002093ED0081
:103690005093F0002091EE0027FDE1CF80E00895E7
:1036A0008091E10187FF13C08091E80082FF06C08E
:1036B0008091E8008B778093E80004C08091E0015E
:1036C0008111F2CF08958091E0018823D9F3809190
:1036D000E80080FFF8CF8091E8008E77ECCF209152
:1036E000E4003091E50085E69091EC0090FD20C06B
:1036F0009091E80092FD20C09091E001992391F013
:10370000953091F09091EB0095FD10C04091E40050
:103710005091E5004217530739F381509A0121F780
:1037200084E0089582E0089583E0089581E008959B
:103730009091E80090FFE0CF80E008950E940C1C7B
:103740000E94141CE0EEF0E0808181608083E8ED4F
:10375000F0E080818F77808319BCA7EDB0E08C9179
:103760008E7F8C9380818F7E80831092DF010895FD
:103770000F931F93CF93DF930E940C1C0E94141C85
:10378000C8EDD0E088818F778883888180688883BE
:1037900088818F7D888319BC1092E0011092DC0132
:1037A0001092DE011092DD0100EE10E0F801808140
:1037B0008B7F808388818160888342E060E080E045
:1037C0000E941B1BE1EEF0E080818E7F8083E2EEA1
:1037D000F0E0808181608083808188608083F8014F
:1037E00080818E7F8083888180618883DF91CF9103
:1037F0001F910F910895E8EDF0E080818F7E808326
:10380000E7EDF0E080818160808384E082BF81E029
:103810008093DF010C94B81BE8EDF0E080818E7F8F
:1038200080831092E20008951092DA001092E10075
:1038300008951F920F920FB60F9211242F933F936A
:103840004F935F936F937F938F939F93AF93BF93A8
:10385000EF93FF938091E10082FF0BC08091E20023
:1038600082FF07C08091E1008B7F8093E1000E947E
:10387000861E8091DA0080FF19C08091D80080FFF9
:1038800015C08091DA008E7F8093DA008091D90094
:1038900080FF94C080E189BD82E189BD09B400FE4A
:1038A000FDCF81E08093E0010E947D188091E100CE
:1038B00080FF19C08091E20080FF15C08091E20076
:1038C0008E7F8093E2008091E20080618093E2002D
:1038D0008091D80080628093D80019BC85E08093E5
:1038E000E0010E948F188091E10084FF29C080913F
:1038F000E20084FF25C080E189BD82E189BD09B471
:1039000000FEFDCF8091D8008F7D8093D8008091FC
:10391000E1008F7E8093E1008091E2008F7E8093B2
:10392000E2008091E20081608093E2008091DC01FE
:10393000882309F449C084E08093E0010E94901834
:103940008091E10083FF29C08091E20083FF25C0C0
:103950008091E100877F8093E10082E08093E00125
:103960001092DC018091E1008E7F8093E1008091D4
:10397000E2008E7F8093E2008091E200806180937C
:10398000E20042E060E080E00E941B1B8091F000BA
:1039900088608093F0000E948E18FF91EF91BF9194
:1039A000AF919F918F917F916F915F914F913F91D7
:1039B0002F910F900FBE0F901F90189519BC109269
:1039C000E0010E948B1872CF8091E30087FD02C056
:1039D00081E0B2CF83E0B0CF1F920F920FB60F926B
:1039E00011242F933F934F935F936F937F938F9304
:1039F0009F93AF93BF93CF93EF93FF93C091E90051
:103A0000CF708091EC001092E9008091F000877FE8
:103A10008093F00078940E94281D1092E900809114
:103A2000F00088608093F000C093E900FF91EF916F
:103A3000CF91BF91AF919F918F917F916F915F9146
:103A40004F913F912F910F900FBE0F901F9018959F
:103A50001F93CF93DF93CDB7DEB7AA970FB6F89435
:103A6000DEBF0FBECDBFE1EEF1E08091F1008193AA
:103A700021E0E93EF207C9F70E94A1188091E80011
:103A800083FF46C08091E1019091E201492F50E00F
:103A90004A30510508F03CC0FA01EF5AF24E0C943E
:103AA000B71E5B1D811D881D811D881DDF1D021E27
:103AB000881D591E661E803889F0823849F580912C
:103AC000E5018F70873020F58093E9008091EB004D
:103AD00085FB882780F91092E90006C08091DD01FE
:103AE0009091DE01911182609091E800977F909310
:103AF000E8008093F1001092F1008091E8008E7749
:103B00002DC0282F2D7F21F48823D1F0823059F148
:103B10008091E80083FF0AC08091E800877F80934E
:103B2000E8008091EB0080628093EB00AA960FB6CC
:103B3000F894DEBF0FBECDBFDF91CF911F910895E6
:103B40008091E301813021F7933009F080E0809388
:103B5000DE011092E9008091E800877F8093E80001
:103B60000E94501BD5CF8091E3018111F2CF80914B
:103B7000E5018F702FEF280F263050F68093E90073
:103B80002091EB0020FFE5CF933031F48091EB00E2
:103B900080628093EB00DDCF9091EB009061909379
:103BA000EB0021E030E001C0220F8A95EAF7209374
:103BB000EA001092EA008091EB008860EACF811160
:103BC000A7CF1091E3011F778091E3008078812BCC
:103BD0008093E3008091E800877F8093E8000E9453
:103BE000501B8091E80080FFFCCF8091E30080684B
:103BF0008093E300111104C082E08093E00188CF3C
:103C000083E0FBCF8058823008F082CF8091E301BF
:103C10009091E4018C3D23E09207A1F583E08A8333
:103C20008AE289834FB7F894DE01139620E03EE0E4
:103C300051E2E32FF0E050935700E49120FF03C0DE
:103C4000E295EF703F5FEF708E2F90E0EA30C0F0AA
:103C5000C7968D939D932F5F243159F74FBF809165
:103C6000E800877F8093E8006AE270E0CE01019669
:103C70000E94601A8091E8008B778093E80048CF1B
:103C8000C096E7CF6091E5017091E601AE014F5F0C
:103C90005F4F0E948619BC01892B09F439CF90919E
:103CA000E800977F9093E80089819A810E94BD1A6D
:103CB000E1CF803809F02CCF8091E800877F809396
:103CC000E8008091DC018093F10017CF811120CFB3
:103CD0009091E301923008F01BCF8091E800877F3C
:103CE0008093E8009093DC010E94501B8091DC01DE
:103CF000882311F084E005C08091E30087FDFACFAE
:103D000081E08093E0010E94921802CF0895CF9342
:103D10008091E001882399F0C091E900CF708091F3
:103D2000EC0080FD0EC080E0C82B1092E90080916D
:103D3000E80083FD0E94281DCF70C093E900CF9159
:103D4000089580E8F1CF97FB072E16F4009407D072
:103D500077FD09D00E94BD1E07FC05D03EF490956A
:103D600081959F4F0895709561957F4F0895EE0F4F
:103D7000FF1F0590F491E02D0994AA1BBB1B51E194
:103D800007C0AA1FBB1FA617B70710F0A61BB70BCB
:103D9000881F991F5A95A9F780959095BC01CD0170
:103DA0000895F999FECF92BD81BDF89A992780B503
:103DB0000895A8E1B0E042E050E00C94F91E262FEF
:103DC000F999FECF92BD81BDF89A019700B4021611
:103DD00039F01FBA20BD0FB6F894FA9AF99A0FBEBF
:103DE00008950196272F0E94E01E0C94DF1EDC012F
:103DF000CB01FC01F999FECF06C0F2BDE1BDF89AF6
:103E0000319600B40D9241505040B8F70895F8949F
:023E1000FFCFE2
:103E1200B3012808140A321EAC174A181F18E917F2
:103E2200AF170190919293959496973435366667C1
:103E3200C6F13733323130404D36DD0590055A0533
:063E420006051F0538050E
:00000001FF
